:020000040802F0
:10000000F0CB01209D0102085B24040815BE030803
:10001000892004083911020845B9050800000000CC
:100020000000000000000000000000001D92040815
:100030005DCA0208000000009135040847E4040886
:10004000B7010208B7010208B7010208B7010208A8
:10005000B7010208B7010208B7010208B701020898
:10006000B7010208B7010208B7010208B701020888
:10007000B7010208B7010208B7010208B701020878
:10008000B7010208B7010208B7010208B701020868
:10009000B7010208B7010208B7010208B701020858
:1000A000B7010208B7010208B7010208B701020848
:1000B000A9050508B1050508B7010208B70102083E
:1000C000B7010208B7010208B7010208B701020828
:1000D000B701020861690508B7010208B701020803
:1000E000B7010208B7010208B7010208B701020808
:1000F000B7010208B7010208B7010208B7010208F8
:10010000B7010208557C0408B7010208B7010208CC
:10011000B7010208B7010208B7010208B7010208D7
:10012000B7010208B7010208B7010208D5C00208EA
:10013000B7010208EDFA0208B7010208B701020888
:10014000B7010208B7010208B7010208B7010208A7
:10015000B7010208B7010208B70102087169050872
:10016000B7010208B7010208B7010208B701020887
:10017000B701020889260408B7010208B70102087E
:10018000B7010208B7010208DFF80CD000F0BEFB8F
:10019000004800474F2C0608F0CB01200648804756
:1001A00006480047FEE7FEE7FEE7FEE7FEE7FEE75C
:1001B000FEE7FEE7FEE7FEE7D9EE04088901020844
:1001C00010B5431A934209D28318881803E010F837
:1001D000011D03F8011D521EF9D210BD40EA0103B2
:1001E0009B0703D009E008C9121F08C0042AFAD2ED
:1001F00003E011F8013B00F8013B521EF9D210BD9B
:10020000D2B201E000F8012B491EFBD27047002258
:10021000F6E710B513460A4604461946FFF7F0FF05
:10022000204610BD421E12F8013F002BFBD111F8F1
:10023000013B02F8013B002BF9D1704710B5044691
:1002400004E00B7800F8013B03B1491C521EF8D2C0
:10025000204610BD421C10F8011B0029FBD1801A5A
:10026000704710B5002200E0521C835C8C5CA342F6
:1002700001D1002BF8D1D8B2E1B2401A10BD30B58F
:1002800004460020034600E05B1C934203D2E05C7E
:10029000CD5C401BF8D030BD034611F8012B00F8AF
:1002A000012B002AF9D11846704730B505460020C9
:1002B000034600E05B1C934205D2EC5CC85C201A4C
:1002C00001D1002CF6D130BD2DE9FE4F81EA0304A7
:1002D00004F0004421F0004100944FF0000B23F0A3
:1002E000004350EA01045ED052EA03045BD0C3F33A
:1002F0000A54C1F30A552C44A4F2F3340194A0FB30
:100300000254C1F3130141F48011C3F3130343F406
:10031000801301FB024400FB034E840A970A44EA5F
:10032000815447EA8357A4FB076802958D0A05FBB1
:1003300007854FEA932C04FB0C542705029D4FEAD6
:10034000065847EA1637B5EB08056EEB070C870E23
:10035000920E47EA811742EA8312A7FB0201B6EB2D
:100360000B0164EB00042B0D43EA0C335E1844EBE5
:100370001C50DA465146E7FB0201C5F313044FEA6D
:100380000B3343EA14534FEA0432019C43EA060359
:10039000A4F10C040294009CCDE900B400F0A9F98A
:1003A00003B0BDE8F08F00200146F9E72DE9F04DDC
:1003B00081EA030404F0004B21F0004514464FF09D
:1003C000000A23F0004150EA050220D054EA01025D
:1003D0001DD0C5F30A570246C5F31303C1F313003A
:1003E000C1F30A5640F4801543F48013A7EB0608C6
:1003F000101BD64608F2FD3873EB050002D308F156
:10040000010801E092185B41B8F1000F03DA002007
:100410000146BDE8F08D00204FF480110646844669
:100420000EE0171B73EB050705D3121B63EB0503E7
:1004300006434CEA010C49084FEA300092185B4130
:1004400050EA0107EDD152EA030012D082EA04001B
:1004500083EA0501084305D0101BAB4106D20122F7
:10046000002306E000224FF0004302E06FF001029B
:1004700053101AEB06004CEB085110EB0A0041EB4D
:100480000B01BDE8F04D00F025B970B5C1F30A527B
:1004900001F000450024C1F3130140F2FF3341F4A1
:1004A00080119A4201DA002070BD40F233439A4233
:1004B000A2F2334203DC524200F0C5F800E0904063
:1004C0002C43F1D0404270BDC1F30A5210B5C1F3C4
:1004D000130140F2FF3341F480119A4201DA002007
:1004E00010BD40F233439A42A2F2334203DC52423F
:1004F00000F0A9F810BD904010BD00F0004230F0AF
:1005000000400AD0C10D01F56071C0F3160042EA47
:100510000151C2084007114370470020014670474F
:1005200030B5041E71F1000404DB4FF0004440427A
:1005300064EB0101141E73F1000405DB1C464FF04F
:100540000043524263EB04038B4208BF824230BD3A
:1005500030B5041E71F1000404DB4FF0004440424A
:1005600064EB0101141E73F1000405DB1C464FF01F
:100570000043524263EB0403994208BF904230BDEE
:1005800001F0004330B421F0004150EA010206D0EE
:100590000A0DA2F56072C1F31301002A02DC30BC1F
:1005A00000207047440F44EAC104C100E01830BC89
:1005B00000EBC25000F057B830B50B4601460020A2
:1005C0002022012409E021FA02F59D4205D303FA15
:1005D00002F5491B04FA02F52844151EA2F1010296
:1005E000F1DC30BD2DE9F05F0546002092469B46C8
:1005F00088460646814640241BE028464146474639
:10060000224600F020F853465A46C01A914110D3B2
:1006100011461846224600F08BF92D1A67EB0108A7
:100620004F4622460120002100F082F917EB000915
:100630004E41201EA4F10104DFDC484631462A4623
:100640004346BDE8F09F202A04DB203A21FA02F05D
:100650000021704721FA02F3D040C2F120029140FC
:100660000843194670470029A8BF7047401C49003D
:1006700008BF20F00100704710B4B0FA80FC00FA07
:100680000CF050EA010404BF10BC704749B1CCF132
:10069000200421FA04F411FA0CF118BF01212143BE
:1006A0000843A3EB0C01CB1D4FEA00614FEA102079
:1006B00042BF002010BC704700EBC350104400291B
:1006C000A4BF10BC7047401C490008BF20F00100C7
:1006D00010BC704710B5141E73F1000408DA401CFA
:1006E00041F1000192185B411A4301D120F0010051
:1006F00010BD2DE9F04D92469B4611B1B1FA81F241
:1007000002E0B0FA80F22032904600F011F904467F
:100710000F4640EA0A0041EA0B0153465A46084395
:1007200013D0114653EA010019D0C8F140025046D7
:10073000FFF789FF05460E4650465946424600F0EF
:10074000F7F8084305D0012004E020463946BDE80B
:10075000F08D0020054346EAE0762C4337430A98A3
:100760006305E40AA0EB08000022FD0A44EA4754AE
:100770000A3002D500200146E9E701051019694158
:10078000DDE9084500196941BDE8F04DA2E72DE912
:10079000FE4F804681EA0300C00F0C46009021F016
:1007A000004123F00045B8EB0200A94105D24046C4
:1007B000214690461C460B46024623F0004010435B
:1007C00047D0270DC7F30A00C3F30A510290401A1D
:1007D000019040286BDAC3F3130040F4801B0098AB
:1007E000924620B10023D2EB030A63EB0B0B019876
:1007F0005946C0F14002504600F09AF806460D46B0
:1008000050465946019A00F0A2F810EB08006141E9
:10081000002487EA115284EAE7731A4340D0009A11
:1008200062B3019A012A4FEA075215DC001B61EB03
:1008300002014FF0004202EA0752CDE90042001CDB
:1008400041F5801132462B46FFF753FF03B0BDE858
:10085000F08F40462146F9E7001B61EB0201001CC6
:1008600041F5801300185B412018A2F5001747EBF3
:10087000030140EAD570B6196D4111E06D084FEAE9
:10088000360645EAC0754FEA0752001B61EB0201CC
:10089000001C41F5801149084FEA30000019514110
:1008A00032462B4603B0BDE8F04FFFF713BF009868
:1008B000012240000023D0EB020263EBE0730098BA
:1008C00021464FEAE074B8EB000061EB0401E9E770
:1008D00083F000435BE781F0004158E7C1F30A521F
:1008E000C1F3130140F2FF3341F480119A4202DA5E
:1008F00000200146704740F233439A42A2F233424D
:1009000002DC5242FFF79FBE00F012B8064C074DC2
:1009100006E0E06840F0010394E8070098471034CF
:10092000AC42F6D3FFF734FC4409070884090708F2
:10093000202A04DB203A00FA02F10020704791409F
:10094000C2F1200320FA03F3194390407047202A94
:1009500006DBCB17203A41FA02F043EAE07306E0E7
:1009600041FA02F3D040C2F12002914008431946F7
:10097000704770B58C1810F8015B15F0070301D1B2
:1009800010F8013B2A1106D110F8012B03E010F8F2
:10099000016B01F8016B5B1EF9D12B0705D4002315
:1009A000521E0DD401F8013BFAE710F8013BCB1AB7
:1009B000921C03E013F8015B01F8015B521EF9D5AC
:1009C000A142D8D3002070BD10B52DED0A8BB0EE3A
:1009D000408AF0EE608A1AF00DFCB0EE409A1AF0F0
:1009E00005F9F0EE409A9FED1A0AB0EE40AAB7EE74
:1009F000000AF0EE40AA19EE100AFFF77EFD41EC66
:100A00001C0BB0EE4C0AF0EE6C0A3BF00DF8B0EEA9
:100A100040BAF0EE60BA9FED0F0B53EC102B51EC87
:100A20001B0BFFF77DFD04D29FED090ABDEC0A8B7D
:100A300010BD89EE890AF7EE000A20EE200A78EE52
:100A4000C80A20EE200AB0EE40AAB0EE4A0AEDE74E
:100A500000000000000000E0E2361A3F2DE9F047F8
:100A600005460E4614461AF0CBF807461BF0E6F88A
:100A7000804619F057FD814625B1012D10D0022D79
:100A80004ED12DE017B1012F08D106E03046A04726
:100A90003046A0473046A04700E000BF00BF40E01E
:100AA000B8F1000F09D0B8F1010F07D0B8F1020F6B
:100AB00007D0B8F1030F10D108E00FE03046A0478F
:100AC0000CE03046A0473046A04707E03046A0473C
:100AD0003046A0473046A04700E000BF00BF20E0FE
:100AE000B9F1000F09D0B9F1010F07D0B9F1020F28
:100AF00007D0B9F1030F10D108E00FE03046A0474E
:100B00000CE03046A0473046A04707E03046A047FB
:100B10003046A0473046A04700E000BF00BF00E0DD
:100B200000BF00BFBDE8F08701460148405C704748
:100B3000EA0400200246FF20002107E0074B5B5C2F
:100B4000934201D1084607E04B1CD9B2034B9B1ED0
:100B500093F8FE308B42F1DC00BF7047EA040020BE
:100B600010B50446062C26D2DFE804F0251009173C
:100B70001E03124A0121084629F07EFB1CE00F4AA1
:100B8000121D0121084629F077FB15E00B4A0832B7
:100B90000121084629F070FB0EE0084A0C320121C1
:100BA000084629F069FB07E0044A10320121084693
:100BB00029F062FB00E000BF00BF10BD8C98060862
:100BC0002DE9F04107460C4615461E4630203AF006
:100BD000BBFE38463AF0BEFE31203AF0B5FE381280
:100BE0003AF0B8FE34203AF0AFFE20463AF0B2FEBA
:100BF00035203AF0A9FE20123AF0ACFE32203AF04D
:100C0000A3FE28463AF0A6FE33203AF09DFE2812B5
:100C10003AF0A0FE36203AF097FE30463AF09AFEBF
:100C200037203AF091FE30123AF094FE24F09AFB0D
:100C3000BDE8F08107201E4981F8C000052081F839
:100C4000C1000020887001211948C1700221017182
:100C500003214171042181710521C17106210172B5
:100C6000144800681249C1F8C4001248416810488D
:100C7000C0F8C8100F4881680D48C0F8CC100D4866
:100C8000C1680B48C0F8D0100A4801690848C0F88C
:100C9000D410084841690648C0F8D8100548816951
:100CA0000348C0F8DC1004A00149C1F8E000704717
:100CB000381500209C9A0608B8DFBCB6B2CECAFD33
:100CC00000000000FF2006494870002081F8E40081
:100CD00081F8E5000021024880F8E6107047000026
:100CE0003815002010B51BF0E9FE01281BD11AF0C1
:100CF0004DF9B0F5802F03D0B0F5801F12D108E078
:100D000001200A4981F8E5000121084880F8E61031
:100D100008E00120054981F8E5000021034880F83A
:100D2000E61000BF00BF00F0FDF810BD3815002030
:100D300010B5284890F8E50001284AD1254890F8D8
:100D4000E600012842D123480178801C405C072836
:100D50003BD2DFE800F004111E22262A37000120D2
:100D600029F07CFA1F2029F06DFA142029F070FA7E
:100D7000152029F05BFA28E0012029F06FFA1F20E6
:100D800029F060FA132029F063FA152029F04EFAB1
:100D90001BE0112029F04AFA17E0122029F046FA48
:100DA00013E0102029F042FA0FE0012029F056FA52
:100DB0001F2029F047FA232029F04AFA152029F0AC
:100DC00035FA02E01DF0DCFC00BF02E0082029F04B
:100DD0002DFA10BD3815002010B53D4890F8E400FC
:100DE000012874D13A484078FF284ED038484078DE
:100DF00000EB800101EBC00135480A3000EB4100F7
:100E000001893348407800EB800202EBC002304891
:100E10000A3000EB420081802D48407800EB8001D1
:100E200001EBC0012A480A3000EB41004189284803
:100E3000407800EB800202EBC00225480A3000EB4C
:100E40004200C1802249487814F0E4F84FF6FF715F
:100E50001F48007800EB800202EBC0021C480A30F9
:100E600000EB420081804FF6E0211948007800EB4A
:100E7000800202EBC00216480A3000EB4200C1803B
:100E80001349087814F0C6F81DE04FF6FF711048BA
:100E9000007800EB800202EBC0020D480A3000EB44
:100EA000420081804FF6E0210948007800EB800283
:100EB00002EBC00206480A3000EB4200C180044940
:100EC000087814F0A7F8024800780149487010BD6E
:100ED000381500201CB50020114981F8E4000120DC
:100EE0008DF80000084690F8C1008DF8010002203E
:100EF0008DF80200084690F8C0008DF803000846FF
:100F0000019068461CF094FD054800780449497832
:100F1000884203D00120024981F8E4001CBD000092
:100F20003815002010B500241AF0AAF90446002C48
:100F30000FDD084890F8C000A0420ADB01200549F7
:100F400081F8E5000121034880F8E610601E0149A0
:100F5000087010BD381500200421024A1172114694
:100F60000860704774AE002000B589B047F038F9CA
:100F700001A83FF01DFCDDE90101CDE904019DF868
:100F8000130000909DF81230BDF810201EA106A895
:100F900047F07AFC06A802F0A5F9002831D11EA07E
:100FA00000234FF6FF7200901F4801881F480088F9
:100FB00015F00EF822F02CFA8DF80C0023F09AFFB1
:100FC0008DF80D0024F078F88DF80E009DF80C00D7
:100FD00080B99DF80D0068B99DF80E0050B914A0B5
:100FE00000231A460090104801881048008814F029
:100FF000EFFF06E0134A0121084629F03DF922F0EF
:1010000073FB09B000BD0000253034642530326424
:101010002530326400000000D5FDD4DAD7D4B6AF55
:10102000B1B8B7DD2E2E2E000600002004000020EF
:1010300020202020202020202020202020202020B0
:1010400000000000E48C060810B53BF0DFFD3BF02B
:10105000E7FB3BF064FD3BF0ADFC3BF045FD3BF0B6
:1010600073FD3BF0F9FB3BF017FE3BF0AFFC3BF0B0
:1010700085FC3BF0DDFB10BD10B522480078002850
:1010800036D0012802D0022833D110E01E48008853
:10109000401C1D490880084600881C490988884270
:1010A00004DB00F039F802201649087027E01648E2
:1010B0000088401C144908800846008814490988A3
:1010C000884214DB0020104908801248008801285B
:1010D0000ADD10480088401E0E4908800120094999
:1010E000087000F021F802E000200649087006E0D0
:1010F00005E000F011F800200249087000BF00BFB1
:1011000010BD0000400000204400002048000020E6
:10111000460000204200002010B54FF0004002F0D1
:10112000C7FD21F03FFE10BD10B54FF0004029F083
:1011300075F821F037FE10BD00BFFEE738B5044654
:101140000020009019F022FA054694FBF5F005FB0B
:101150001040C0B28DF8000094FBF5F0401CC0B206
:101160008DF80100BDF80010084638BD2DE9F047A4
:10117000054619F00BFA07460026B046B146002096
:1011800028706870012F07DA304A0121084629F0DB
:1011900073F80020BDE8F087012019F0DFF906465A
:1011A00000244EE004EBC402294901EB420106EBA6
:1011B000C60288180A22002147F08FFB8046611C76
:1011C00001EBC102224901EB420106EBC60288187D
:1011D0000A22002147F081FB81464846B8F1000110
:1011E00001DB0A4600E04A42002801DB034600E03A
:1011F00043429A4223DB2C706E70164890F83303FA
:1012000020B1012809D0022815D10DE00F4A121D86
:101210000121084629F030F80EE00C4A083201217D
:10122000084629F029F807E0084A0C32012108464F
:1012300029F022F800E000BF00BF0020AAE7601CF0
:10124000C4B2781EA042ADDC0120A3E7F8980608DE
:10125000B21300207411002010B50446012C01DBEC
:101260000A2C06DD044A0121084629F005F8002071
:1012700010BD0120FCE70000F4980608594991F8D8
:10128000331321B1012907D002290FD109E056A15A
:10129000544AC2F828130AE059A1524AC2F8281346
:1012A00005E05DA14F4AC2F8281300E000BF00BF6F
:1012B00002214C4A82F82F13002182F823130122C5
:1012C000484981F824235A490968464AC2F8181344
:1012D000114691F8331321B1012912D002295CD1B2
:1012E00035E0404991F8301329B951494A683D49E0
:1012F000C1F81C2304E04E498A683A49C1F81C230E
:101300004CE0384991F8311331B101290AD0022952
:101310000ED0032918D111E04549CA683149C1F8F6
:101320001C2312E042490A692E49C1F81C230CE033
:101330003F494A692B49C1F81C2306E03C498A69A8
:101340002849C1F81C2300E000BF00BF26E0254962
:1013500091F8321331B101290AD002290ED00329A4
:1013600018D111E03249CA681E49C1F81C2312E0A5
:101370002F490A691B49C1F81C230CE02C494A6912
:101380001849C1F81C2306E029498A691549C1F8A2
:101390001C2300E000BF00BF00E000BF00BF012130
:1013A000104A82F8211300220E4981F822230020DE
:1013B00015E0002200EB800101EBC0030949891C04
:1013C00001EB83014A7600EB800101EBC003054984
:1013D000891C01EB830181F83320411CC8B20A2823
:1013E000E7DB704774110020B8BABAC9CDA8B5C000
:1013F000207C20B1EAB6A8B2CECAFDC9E8D6C300A7
:10140000CEBBD2C6CDA8B5C0207C20B1EAB6A8B26A
:10141000CECAFDC9E8D6C300B1E4D0CECDA8B5C0D0
:10142000207C20B1EAB6A8B2CECAFDC9E8D6C30076
:10143000D898060870B519F0A9F804460C48057844
:101440000078401C0A4908700846017890F82F037C
:10145000401E10FB04F091FBF0F200FB1210044957
:10146000087008460078A84201D1FF20487070BD7E
:101470007411002010B5FF2011494870002081F838
:101480002503012081F82C03002081F82D03002181
:101490000B4880F82E1319F0B3FB094981F830038B
:1014A0001AF0CCFB064981F8310319F03BF80449E6
:1014B00081F8320319F0A0F8014981F8330310BD17
:1014C00074110020F8B5654805782846FFF736FE08
:1014D00000901BF0F3FA012870D119F057FDB0F518
:1014E000802F09D0B0F5801F73D0B0F1805F67D036
:1014F000B0F1005F6CD194E019F026FF0446201E85
:1015000002D0022862D100E0F8BD544890F83403BC
:1015100050BB19F015FF06783046FFF79DFED0B19D
:101520004E4890F81503A0B919F00AFF4B49066818
:1015300091F8200301F2F222314641F0D9FE19F070
:1015400025F8064601F032FF0120444981F83503B1
:1015500000E000BF00BF0120404981F82D030021B9
:101560003E4880F82E13CFE79DF8000000EB800185
:1015700001EBC0013948801C00EB81009DF801108F
:1015800001EB810202EBC10100EB4100407EC0B9DA
:1015900019F0D6FE9DF8001001EBC103304901EBB4
:1015A00043019DF8013003EBC303CA182B490668B9
:1015B00091F82003314641F09BFE03E04CE008E047
:1015C0003DE000BF00BF00F07BFB00E000BF00BFBC
:1015D00041E019F0B9FE0446201E02D003281DD1B7
:1015E0000BE0082028F022FE01201C4981F82D0381
:1015F00000211A4880F82E1311E0184890F834039F
:1016000020B90120154981F8250302E0FF20134984
:1016100048700120114981F82C0300E000BF00BF91
:1016200019E019F005F8064628F000FE01200B49E4
:1016300081F82D030121094880F82E130BE00820C2
:1016400028F0F4FD0120054981F82D03002103480D
:1016500080F82E1300BF00BF00BF55E774110020B3
:10166000B213002008B50C4890F82D03012810D1C2
:10167000094890F82E0301280BD16846FFF776FD44
:1016800028B9072028F0D2FD22F02EF808BD00F07E
:1016900021FB00BFFAE700007411002010B51248CA
:1016A00090F8250301281DD100200F4981F825035A
:1016B000084690F8340318B9012000F0ABFA0DE0A9
:1016C00009484078FF2804D007484178002000F0FE
:1016D00077FB05480178012000F072FB0248007892
:1016E0000149487010BD000074110020FEB50024AF
:1016F00018F04CFF054600261BF0E0F9012833D115
:1017000019F044FC04462D4890F8340388B9B4F528
:10171000003F29D10126002000F07CFA0120274952
:1017200081F8250381F8340300200870FF204870F9
:101730001AE022490878FFF701FD0090B4F5002F68
:1017400012D19DF8000078B901261C4801780020CC
:1017500000F036FB0120194981F82503002081F8AB
:1017600034030870FF204870012E00D1FEBD012017
:101770008DF804008DF80550104890F82F03401E96
:10178000C0B28DF806009DF805009DF8061010FB0C
:1017900001F0C0B28DF807000848029001A81CF0C3
:1017A00047F90648007805494978884203D0012066
:1017B000024981F8250300BFD8E70000741100201A
:1017C00038B519F0B1FD0446A74805782846FFF75B
:1017D000B5FC009023F0AEFD40F2CB2020804FF40A
:1017E000CD70608041F6FC40A0809F4890F83403A3
:1017F00020B99D48B0F80603E08013E09DF8000092
:1018000000EB800101EBC0019748801C00EB8100D8
:101810009DF8011001EB810202EBC10100EB4100D8
:101820004089E0804FF6FF70A08240F2CF10E08246
:1018300001202072A0728C4890F8340380B98A4845
:10184000B0F8FC12B0F812030844401CA08186488E
:10185000B0F8FE12B0F812030844401CE08150E0DA
:101860009DF8000000EB800101EBC0017E48801C68
:1018700000EB81009DF8011001EB810202EBC10138
:1018800030F811109DF8000000EB800202EBC0025E
:101890007548801C00EB82009DF8012002EB82035A
:1018A00003EBC20200EB4200C08A0844401CA08146
:1018B0009DF8000000EB800101EBC0016A48801C2C
:1018C00000EB81009DF8011001EB810202EBC101E8
:1018D00000EB410041889DF8000000EB800202EB24
:1018E000C0026148801C00EB82009DF8012002EBE1
:1018F000820303EBC20200EB4200C08A0844401C92
:10190000E081082020766076574890F8340398B933
:101910005548B0F80813B0F81203022202FB101069
:10192000801E20825048B0F80A13B0F8120302FB60
:101930001010801E608255E09DF8000000EB8001D1
:1019400001EBC0014848801C00EB81009DF80110AC
:1019500001EB810202EBC10100EB410081899DF89E
:10196000000000EB800202EBC0023F48801C00EB4D
:1019700082009DF8012002EB820303EBC20200EB20
:101980004200C08A022202FB1010801E20829DF8B5
:10199000000000EB800101EBC0013348801C00EB2C
:1019A00081009DF8011001EB810202EBC10100EB07
:1019B0004100C1899DF8000000EB800202EBC002EB
:1019C0002948801C00EB82009DF8012002EB820375
:1019D00003EBC20200EB4200C08A022202FB10109D
:1019E000801E60822148E0611F4890F8340350B99E
:1019F0001D4890F8150384F820001B4890F80C034C
:101A000084F8220029E09DF8000000EB800101EB42
:101A1000C0011548801C00EB81009DF8011001EB0E
:101A2000810202EBC10100EB4100407E84F82000FE
:101A30009DF8000000EB800101EBC0010A48801C0A
:101A400000EB81009DF8011001EB810202EBC10166
:101A500000EB4100007C84F82200002084F8230081
:101A600020461CF01FF938BD74110020941400208A
:101A70002DE9F0412DED028B0024002500269FED7D
:101A8000600AB0EE408A01275E4991F8330343F0C3
:101A900097FD0446022C01DB0B2C00DD0224601EA6
:101AA000C4B2584890F8350328B9574A214608204F
:101AB00041F01EFC02E018F069FD0446002594E0A8
:101AC000002018F04BFD064605EBC5014E48B43822
:101AD00000EB410006EBC60142183946082041F0F0
:101AE00007FC781CC7B2474890F8350300287AD124
:101AF000012018F033FD06466A1CD1B2414A92F823
:101B0000330343F07DFDB0EE408A3E4890F8330346
:101B100020B101280DD0022853D12EE0394890F889
:101B2000300328B99FED390AC8EE000AB0EE608A8A
:101B300048E0344890F8310330B1012805D002283C
:101B40000AD0032816D10EE015E0B2EE040AC8EE62
:101B5000000AB0EE608A0EE09FED2D0AC8EE000A82
:101B6000B0EE608A07E09FED290AC8EE000AB0EEE9
:101B7000608A00E000BF00BF24E0224890F83203F2
:101B800030B1012805D002280AD0032816D10EE072
:101B900015E0B2EE040AC8EE000AB0EE608A0EE06C
:101BA0009FED1B0AC8EE000AB0EE608A07E09FEDC9
:101BB000170AC8EE000AB0EE608A00E000BF00BF5E
:101BC00000E000BF00BF05EBC5010F48B43800EBD3
:101BD000410006EBC6014218BDEEC80A10EE101A0D
:101BE000082041F085FB681CC5B2A542FFF668AF2E
:101BF0000020044981F83503BDEC028BBDE8F0817B
:101C000000000000741100206614002000007A44D7
:101C10000000C84210B5044654B1012C12D1002175
:101C20000A48A0F800134FF6E021A0F8021309E0DB
:101C30000648B0F80413A0F80013B0F80613A0F893
:101C4000021300BF00BF28F0B1FE10BD74110020C8
:101C500010B519F087FC04460D4890F82C030128B4
:101C600015D100200A4981F82C030C2020704FF672
:101C7000FF70608040F2CF10A0800648D0F850116D
:101C80002161D0F80C116161204628F0C5FC10BD1F
:101C90007411002010D2060810B518F077FC044625
:101CA0000648017890F82F03401E10FB04F0814293
:101CB00002DB00200149087010BD000074110020F3
:101CC00010B5FFF7B7FB0120014981F82C0310BDC7
:101CD000741100202DE9F04100260024002718F09F
:101CE00055FC0646012018F039FC0746002558E04F
:101CF00005EBC5022F4901EB420107EBC70288182B
:101D00000A22002146F0E9FD04462B4890F83303EF
:101D100020B101280AD002283CD121E0264890F8C1
:101D2000300310B94FF47A70444334E0224890F8FD
:101D3000310330B1012805D0022807D003280CD187
:101D400007E00BE004EB8400440007E06420444318
:101D500004E04FF47A70444300E000BF00BF1AE093
:101D6000154890F8320330B1012805D0022807D079
:101D700003280CD107E00BE004EB8400440007E0EB
:101D80006420444304E04FF47A70444300E000BF11
:101D900000BF00E000BF00BF084840F82540681CB5
:101DA000C5B2B542A4DB18F0F1FB0449091F087065
:101DB000BDE8F081B213002074110020B01400209F
:101DC00038B504460D462846FFF7B8F900904CB3E5
:101DD000012C70D100219DF8000000EB800202EB85
:101DE000C002394800EB82009DF8012002EB82031B
:101DF00003EBC20200EB420081804FF6E0219DF828
:101E0000000000EB800202EBC0022F4800EB8200D2
:101E10009DF8012002EB820303EBC20200EB4200BB
:101E2000C18048E09DF8000000EB800101EBC0019B
:101E3000254800EB81009DF8011001EB810202EBC7
:101E4000C10100EB410001899DF8000000EB800218
:101E500002EBC0021C4800EB82009DF8012002EB5F
:101E6000820303EBC20200EB420081809DF8000078
:101E700000EB800101EBC001134800EB81009DF8ED
:101E8000011001EB810202EBC10100EB410041892D
:101E90009DF8000000EB800202EBC0020A4800EB54
:101EA00082009DF8012002EB820303EBC20200EBEB
:101EB0004200C18000BF00BF9DF801109DF80000E6
:101EC00028F050FC38BD00007611002038B50446DB
:101ED0000020009018F086FB054694FBF5F005FB0A
:101EE0001040C0B28DF8000094FBF5F0401CC0B269
:101EF0008DF80100BDF80010084638BD2DE9F04707
:101F0000054618F06FFB814600260027B0460020EA
:101F100028706870B9F1010F07DA5F4A012108469D
:101F200028F0AAF90020BDE8F087012018F042FB54
:101F3000064600244FE004EBC40101EB410257497F
:101F4000114406EBC60288180A22002146F0C5FC9F
:101F50000746611C01EBC10101EB41024F491144ED
:101F600006EBC60288180A22002146F0B6FC80461D
:101F70004046391E01DB0A4600E04A42002801DBE8
:101F8000034600E043429A4223DB2C706E704448C3
:101F900090F8AF0420B1012809D0022815D10DE036
:101FA0003D4A121D0121084628F066F90EE03A4A22
:101FB0000C320221012028F05FF907E0364A18327E
:101FC0000221012028F058F900E000BF00BF0020E6
:101FD000A9E7601CC4B2A9F10100A042ABDC022059
:101FE00018F0E8FA064600244FE004EBC40101EBC8
:101FF00041022A49114406EBC60288180A22002130
:1020000046F06BFC0746611C01EBC10101EB41028C
:102010002249114406EBC60288180A22002146F024
:102020005CFC80464046391E01DB0A4600E04A421D
:10203000002801DB034600E043429A4223DB2C7078
:102040006E70174890F8AF0420B1012809D002281B
:1020500015D10DE0104A08320121084628F00CF98C
:102060000EE00D4A14320121084628F005F907E078
:10207000094A20320121084628F0FEF800E000BF9E
:1020800000BF00204FE7601CC4B2A9F10100A042CC
:10209000ABDC012047E70000E89706087C0300104E
:1020A0002000001010B50446012C01DB0A2C06DDCF
:1020B000044A0121084628F0DFF8002010BD012065
:1020C000FCE70000E49706082DE9F041804618F08F
:1020D00089FA0546012D01DB0A2D02DD0020BDE84D
:1020E000F081022018F066FA06460027FF2E01D183
:1020F0000020F4E700241DE004EBC40101EB4102E1
:102100000E49114406EBC60288180A22002146F047
:10211000E4FB07467F4204EBC40000EB40010748A4
:10212000084406EBC60142183946082041F0E0F8A1
:10213000601CC4B2AC42DFDB0120D0E77C0300109E
:10214000784991F8AF1421B1012907D002290FD1A4
:1021500009E075A1734AC2F8A4140AE076A1714A95
:10216000C2F8A41405E078A16E4AC2F8A41400E0F5
:1021700000BF00BF03216B4A82F8AB14002182F834
:10218000A0140122674981F8A124022281F8A22427
:1021900071490968634AC2F89014114691F8AF1466
:1021A00021B1012917D0022970D14EE05D4991F883
:1021B000AC1429B968494A685A49C1F8942404E022
:1021C00065498A685749C1F894246349CA685549E2
:1021D000C1F8982475E0534991F8AD1431B1012943
:1021E0000FD0022918D003292CD120E05A490A69BE
:1021F0004C49C1F8942458490A6A4A49C1F89824BC
:1022000021E055494A694749C1F8942452490A6A6C
:102210004449C1F8982416E04F498A694149C1F8F8
:1022200094244D490A6A3F49C1F898240BE04A4971
:10223000CA693C49C1F8942447490A6A3949C1F836
:10224000982400E000BF00BF3BE0364991F8AE148F
:1022500031B101290FD0022919D003292DD121E054
:102260003D490A692F49C1F894243B494A6A2D49DE
:10227000C1F8982422E038494A692A49C1F89424CF
:1022800035494A6A2749C1F8982417E018E03249CD
:102290008A692449C1F894242F494A6A2149C1F81E
:1022A00098240BE02C49CA691E49C1F894242A4994
:1022B0004A6A1C49C1F8982400E000BF00BF00E052
:1022C00000BF00BF0121174A82F89D140022154962
:1022D00081F89E2481F89F2400201FE00022C0EB9B
:1022E000C00101EB40130F49891C01EB43014A7601
:1022F000C0EBC00101EB40130A49891C01EB43010B
:1023000081F83320C0EBC00101EB40130549891C63
:1023100001EB430181F84D20411CC8B20A28DDDBE6
:102320007047000020000010B8BABAC9CDA8B5C0E7
:10233000B1EAB6A8B1ED0000CEBBD2C6CDA8B5C0FB
:10234000B1EAB6A8B1ED0000B1E4D0CECDA8B5C0D9
:10235000B1EAB6A8B1ED0000BC97060870B518F058
:1023600041F904461748007890FBF4F0401CC5B2D0
:1023700014480678012018F01DF9A84205D111482B
:10238000007820440F49087008E00E480078001BD0
:102390000C49087008460078401C0870094801780C
:1023A00090F8AB04401E604391FBF0F200FB12106A
:1023B0000449087008460078B04201D1FF204870F7
:1023C00070BD00002000001010B5FF2011494870BA
:1023D000002081F8A304012081F8A804002081F8DE
:1023E000A90400210B4880F8AA1418F009FC094937
:1023F00081F8AC0419F022FC064981F8AD0418F00C
:1024000091F8044981F8AE0418F0F6F8014981F812
:10241000AF0410BD20000010F8B5734805782846B9
:10242000FFF754FD00901AF049FB012873D118F012
:10243000ADFDB0F1805F6FD009DCB0F1004F6CD022
:10244000B0F5802F0AD0B0F5801F67D16FE0B0F1F2
:10245000005F73D0B0F1804FF7D19CE018F074FFAB
:10246000044614B1022C5FD100E0F8BD5E4890F83C
:10247000B00428BB18F064FF06783046FFF712FE60
:10248000A8B1594890F88D0478B918F059FF564909
:10249000066891F89C0401F26A42314640F028FF38
:1024A0000120514981F8B10400E000BF00BF0120C4
:1024B0004D4981F8A90400214B4880F8AA14D4E7BB
:1024C0009DF80000C0EBC00101EB40114648801CA4
:1024D00000EB41009DF8011001EB810202EBC1010C
:1024E00000EB4100407ED0B918F02AFF9DF80010A3
:1024F00001EBC10101EB41033C4919449DF8013056
:1025000003EBC303CA183849066891F89C043146A6
:1025100040F0EEFE04E065E04CE030E061E000BF3A
:1025200000BF00F061FC00E000BF00BF59E018F000
:102530000BFF04461CB1032C1ED10CE02EE008203A
:1025400027F074FE0120284981F8A90400212648BB
:1025500080F8AA1411E0244890F8B00420B90120B2
:10256000214981F8A30402E0FF201F49487001209F
:102570001D4981F8A80400E000BF00BF31E0092038
:1025800027F054FE0120184981F8A90401211648BA
:1025900080F8AA1425E000F0DDF822E0082027F0FA
:1025A00045FE0120104981F8A90401210E4880F858
:1025B000AA1416E02846FFF787FD28B90C4A012126
:1025C000084627F059FE03E00120074981F8B104CD
:1025D0000120054981F8A9040021034880F8AA14C4
:1025E00000BF00BF00BF40E7200000107C030010C8
:1025F0000C98060808B50D4890F8A904012812D1D6
:102600000A4890F8AA0401280DD16846FFF776FC25
:1026100028B90A2027F00AFE21F066F808BD00F06C
:10262000EDFB27F0F5FD00BFF8E7000020000010EB
:1026300010B5124890F8A30401281DD100200F49BD
:1026400081F8A304084690F8B00418B9012000F0FE
:10265000E9FA0DE009484078FF2804D0074841789E
:10266000002000F03BFB05480178012000F036FB1C
:10267000024800780149487010BD00002000001099
:10268000FEB5002417F0AEFF054600261AF016FA34
:10269000012833D118F07AFC04462D4890F8B00494
:1026A00088B9B4F5003F29D10126002000F0BAFA1C
:1026B0000120274981F8A30481F8B00400200870A4
:1026C000FF2048701AE022490878FFF7FFFB0090CE
:1026D000B4F5002F12D19DF8000078B901261C48EE
:1026E0000178002000F0FAFA0120194981F8A304CA
:1026F000002081F8B0040870FF204870012E00D13E
:10270000FEBD01208DF804008DF80550104890F8AA
:10271000AB04401EC0B28DF806009DF805009DF880
:10272000061010FB01F0C0B28DF8070008480290B7
:1027300001A81BF07DF906480078054949788842D0
:1027400003D00120024981F8A30400BFD8E70000AC
:102750002000001010B527F09DFF0A4991F8AF0442
:1027600021F016F940B90120064981F8A904002199
:10277000044880F8AA1403E00120024981F8A80463
:1027800010BD00002000001038B518F0CDFD044643
:10279000A74805782846FFF799FB009022F0CAFD6C
:1027A00040F2CB2020804FF4CD70608041F6FC4099
:1027B000A0809F4890F8B00420B99D48B0F87E04EE
:1027C000E08013E09DF80000C0EBC00101EB401178
:1027D0009748801C00EB41009DF8011001EB81023D
:1027E00002EBC10100EB41004089E0804FF6FF7031
:1027F000A08240F2CF10E08201202072A0728C48AB
:1028000090F8B00480B98A48B0F87414B0F88A041B
:102810000844401CA0818648B0F87614B0F88A04B9
:102820000844401CE08150E09DF80000C0EBC0016E
:1028300001EB40117E48801C00EB41009DF8011027
:1028400001EB810202EBC10130F811109DF800008C
:10285000C0EBC00202EB40127548801C00EB420046
:102860009DF8012002EB820303EBC20200EB420061
:10287000C08A0844401CA0819DF80000C0EBC00144
:1028800001EB40116A48801C00EB41009DF80110EB
:1028900001EB810202EBC10100EB410041889DF890
:1028A0000000C0EBC00202EB40126148801C00EB4C
:1028B00042009DF8012002EB820303EBC20200EB11
:1028C0004200C08A0844401CE081082020766076DF
:1028D000574890F8B00498B95548B0F88014B0F84B
:1028E0008A04022202FB1010801E20825048B0F899
:1028F0008214B0F88A0402FB1010801E608255E03A
:102900009DF80000C0EBC00101EB40114848801C5D
:1029100000EB41009DF8011001EB810202EBC101C7
:1029200000EB410081899DF80000C0EBC00202EB82
:1029300040123F48801C00EB42009DF8012002EB52
:10294000820303EBC20200EB4200C08A022202FBB8
:102950001010801E20829DF80000C0EBC00101EB2A
:1029600040113348801C00EB41009DF8011001EB41
:10297000810202EBC10100EB4100C1899DF800001A
:10298000C0EBC00202EB40122948801C00EB420061
:102990009DF8012002EB820303EBC20200EB420030
:1029A000C08A022202FB1010801E60822148E06172
:1029B0001F4890F8B00450B91D4890F88D0484F871
:1029C00020001B4890F8840484F8220029E09DF838
:1029D0000000C0EBC00101EB40111548801C00EB6A
:1029E00041009DF8011001EB810202EBC10100EBF7
:1029F0004100407E84F820009DF80000C0EBC0013B
:102A000001EB40110A48801C00EB41009DF80110C9
:102A100001EB810202EBC10100EB4100007C84F874
:102A20002200002084F8230020461BF03BF938BD2B
:102A300020000010BC0400102DE9F0472DED028BA2
:102A40000025A946002400269FED700AB0EE408ABA
:102A50000127A0466E4991F8AF0442F0B1FD05464A
:102A6000022D01DB0B2D00DD0225681EC5B2A94633
:102A7000674890F8B10428B9664A2946082040F012
:102A800037FC02E017F0AEFD05460024B3E000205D
:102A900017F090FD064604EBC40000EB40015E48D1
:102AA000084406EBC60142183946082040F020FCD5
:102AB000781CC7B2564890F8B104012800D198E0BC
:102AC0004C457CDA012017F075FD0646621CD1B238
:102AD0004F4A92F8AF0442F093FDB0EE408A4C4862
:102AE00090F8AF0420B101280DD0022853D12EE078
:102AF000474890F8AC0428B99FED480AC8EE000A90
:102B0000B0EE608A48E0424890F8AD0430B1012848
:102B100005D002280AD0032816D10EE015E0B2EE47
:102B2000040AC8EE000AB0EE608A0EE09FED3C0A8F
:102B3000C8EE000AB0EE608A07E09FED380AC8EEE2
:102B4000000AB0EE608A00E000BF00BF24E0304819
:102B500090F8AE0430B1012805D002280AD003282D
:102B600016D10EE015E0B2EE040AC8EE000AB0EE8F
:102B7000608A0EE09FED2A0AC8EE000AB0EE608A75
:102B800007E09FED260AC8EE000AB0EE608A00E07A
:102B900000BF00BF00E000BF00BF04EBC40000EBBB
:102BA00040011D48084406EBC6014218BDEEC80AA4
:102BB00010EE101A082040F09BFB022000E017E006
:102BC00017F0F8FC0646621CD1B2114A92F8AF0425
:102BD00042F0D2FC804604EBC40000EB40010E48FA
:102BE000084406EBC60142184146082040F080FB2D
:102BF00000BF601CC4B2AC42FFF649AF00200449DC
:102C000081F8B104BDEC028BBDE8F0870000000044
:102C1000200000108A0400107C03001000007A4499
:102C20000000C84210B5044654B1012C12D1002155
:102C30000A48A0F878144FF6E021A0F87A1409E0C9
:102C40000648B0F87C14A0F87814B0F87E14A0F808
:102C50007A1400BF00BF28F02BF810BD2000001030
:102C600010B518F07FFC0446104890F8A80401281D
:102C70001AD100200D4981F8A8040F2020704FF6CA
:102C8000FF70608040F2CF10A08009480069A0600A
:102C90000748C16CE160D0F894102161D0F8601150
:102CA0006161204627F0B8FC10BD00002000001034
:102CB00010D2060810B517F095FC044606480178B6
:102CC00090F8AB04401E10FB04F0814202DB0020B0
:102CD0000149087010BD00002000001038B50446FE
:102CE0000D462846FFF7F2F800904CB3012C70D146
:102CF00000219DF80000C0EBC00202EB40123948F1
:102D000000EB42009DF8012002EB820303EBC202BC
:102D100000EB420081804FF6E0219DF80000C0EBFF
:102D2000C00202EB40122F4800EB42009DF8012048
:102D300002EB820303EBC20200EB4200C18048E0D9
:102D40009DF80000C0EBC00101EB4011254800EBED
:102D500041009DF8011001EB810202EBC10100EB83
:102D6000410001899DF80000C0EBC00202EB401257
:102D70001C4800EB42009DF8012002EB820303EBAC
:102D8000C20200EB420081809DF80000C0EBC00150
:102D900001EB4011134800EB41009DF8011001EBDD
:102DA000810202EBC10100EB410041899DF8000066
:102DB000C0EBC00202EB40120A4800EB42009DF853
:102DC000012002EB820303EBC20200EB4200C18050
:102DD00000BF00BF9DF801109DF8000027F040FEE5
:102DE00038BD00002200001010B5FFF7B7FA01202F
:102DF000014981F8A80410BD200000102DE9F04120
:102E00000026002500270024A04617F0EBFB06460D
:102E1000012E01DB0A2E01DDBDE8F081701CC6B277
:102E20004E4991F8AF04314642F0DAFB4B4991F834
:102E3000AF049FED4B0A002142F0F6FB474991F8A1
:102E4000AF040022114642F0A9FB00257FE00120DB
:102E500017F0B0FB074605EBC50101EB4102414904
:102E6000114407EBC70288180A22002145F035FDFE
:102E700004463A4890F8AF0420B101280AD002284D
:102E80003CD121E0354890F8AC0410B94FF47A7089
:102E9000444334E0314890F8AD0430B1012805D006
:102EA000022807D003280CD107E00BE004EB8400D4
:102EB000440007E06420444304E04FF47A70444344
:102EC00000E000BF00BF1AE0244890F8AE0430B123
:102ED000012805D0022807D003280CD107E00BE019
:102EE00004EB8400440007E06420444304E04FF412
:102EF0007A70444300E000BF00BF00E000BF00BFA5
:102F00006A1CD1B2154A92F8AF0400EE104AB8EE2E
:102F1000C00A42F089FB022017F04CFB074605EB84
:102F2000C50101EB41020F49114407EBC7028818A4
:102F30000A22002145F0D1FC80466A1CD1B2074A22
:102F400092F8AF04424642F029FB681CC5B2B54274
:102F5000FFF67DAF41F01EF900BF5DE720000010D5
:102F6000000000007C03001003680B600A71838876
:102F7000A1F80530CA71C3880B8100238B7270479A
:102F80000CA00F494866032081F854000020887087
:102F900001210B48C170022101710A4800680849EB
:102FA0008865084841680648C16506488168044844
:102FB00001667047CDA8B5C0D1A1D4F100000000D2
:102FC000A4200020E89B0608FF2006494870002046
:102FD00081F8680081F869000021024880F86A10D1
:102FE00070470000A420002010B519F067FD0128EB
:102FF0001BD117F0CBFFB0F5802F03D0B0F5801FA9
:1030000012D108E001200A4981F86900012108482D
:1030100080F86A1008E00120054981F86900002164
:10302000034880F86A1000BF00BF00F0F7F810BD39
:10303000A420002010B51B4890F8690001282FD16A
:10304000184890F86A00012825D116480178801C9C
:10305000405C20B101280BD002281BD111E00020D8
:10306000104981F86E0091F86C0027F0DFF811E04C
:1030700001200C4981F86E0091F86C0027F0D6F819
:1030800008E00220074981F86E0091F86C0027F0F3
:10309000CDF800BF04E0034991F86B0027F0C6F8B3
:1030A00010BD0000A420002010B53D4890F8680035
:1030B000012874D13A484078FF284ED038484078EB
:1030C00000EB800101EBC0013548801D00EB4100A1
:1030D00001893348407800EB800202EBC00230489F
:1030E000801D00EB420081802D48407800EB80017C
:1030F00001EBC0012A48801D00EB410041892848AE
:10310000407800EB800202EBC0022548801D00EBF6
:103110004200C1802249487812F05EFA4FF6FF71F2
:103120001F48007800EB800202EBC0021C48801DA3
:1031300000EB420081804FF6E0211948007800EB57
:10314000800202EBC0021648801D00EB4200C180E5
:103150001349087812F040FA1DE04FF6FF7110484D
:10316000007800EB800202EBC0020D48801D00EBEE
:10317000420081804FF6E0210948007800EB800290
:1031800002EBC0020648801D00EB4200C1800449EA
:10319000087812F021FA024800780149487010BD01
:1031A000A42000201CB50020134981F868000120EC
:1031B0008DF80000084690F854008DF801000120B9
:1031C0008DF802009DF801009DF8021010FB01F03F
:1031D000C0B28DF803000848019068461AF028FC38
:1031E0000548007804494978884203D00120024903
:1031F00081F868001CBD0000A420002010B5002448
:10320000054991F86E0017F0FDF90446FF2C01D036
:103210000148047010BD0000A420002010B5002457
:1032200018F02EF80446002C0FDD084890F85400E2
:10323000A0420ADB0120054981F869000121034809
:1032400080F86A10601E0149087010BDA42000209B
:10325000FEB504460D4600262068009000208DF83B
:1032600004000A220021684645F037FB86B22E8012
:10327000A088ADF8000000208DF802000A2200218D
:10328000684645F02AFB86B2AE70E088ADF80000D3
:1032900000208DF802000A220021684645F01DFB3F
:1032A00086B2EE70FEBD2DE9F04104460D4616468D
:1032B00000273046FCF7CEFF00F0FF0831462846D5
:1032C000FCF7EAFFA04501DBBDE8F081474603E0DB
:1032D0002020E855781CC7B2A742F9DB002028550A
:1032E00000BFF1E730B591B0044600250A22002165
:1032F000204645F0F2FA05462A4607A109A845F0FE
:10330000C3FA09A968463BF0C3FF10B9012011B008
:1033100030BD0020FBE700007379732F253038643F
:103320000000000010B517F02DFF0446032C01D05B
:10333000002010BD0120FCE770B50025002433F00B
:10334000DFFA01281BD1002033F004FB17F028FC22
:103350000546284633F058FA18B900BF00BF0020D0
:1033600070BD284633F067FA0446012C01D0022CC8
:1033700005D100BF00BF26F0D5FA0120F0E70020FC
:10338000EEE770B5FA2517F0CDFD0446FA2C07D903
:103390004AF2145023F0AAFA002026F003FF03E0BB
:1033A000641C204626F0FEFE70BD0000F0B52DED39
:1033B0000A8BAFB00546002400269FEDF80AF0EE18
:1033C000409A9FEDF60AB0EE40BA9FEDF40AF0EE97
:1033D00040BA9FEDF20AB0EE40AA9FEDF00AF0EE7F
:1033E00040AA9FEDEE0AF0EE408A9FEDEC0AB0EEA7
:1033F000409A9FEDEA0AB0EE408A9FEDE80AB0EEEF
:1034000040CA9FEDE60AF0EE40CA00271822E449C0
:1034100029A8FCF7D5FE2022E149183121A8FCF7A4
:10342000CFFE2022DE49383119A8FCF7C9FE202240
:10343000DB49583111A8FCF7C3FE2022D849783166
:1034400009A8FCF7BDFE2022D549983101A8FCF758
:10345000B7FE012D01DB0A2D03DD2FB0BDEC0A8B79
:10346000F0BD012017F07AF80646CE4890F83303F5
:1034700020B1012873D0022872D16DE1C94991F8B9
:10348000330341F0E1FFB0EE40AAF0EE4AAAC5488E
:1034900090F8300328B99FEDC40ACAEE800AF0EE16
:1034A00060AA9FEDC20ACAEE800AF0EE609A062D6D
:1034B00002D0082D6FD124E000241FE029A850F885
:1034C000240000EE100AB8EE400A20EE290ABDEEF4
:1034D000C00AB8EEC00AB0EE408A04EBC401B4489A
:1034E00000EB410006EBC6014218BDEEC80A10EE23
:1034F000101A08203FF0FCFE601CC4B2AC42DDDBB9
:10350000C3E000249CE0BDEECA0A10EE100AA0F54C
:103510001C50103850B1A749084410B3A6490844BC
:10352000C0B3A6490844002868D14EE09D4890F8F1
:10353000300348B921A850F8240000EE100AB8EE74
:10354000400AB0EE408A09E021A850F824004FF468
:103550007A71484300EE100AB8EE408A5EE096E0C9
:1035600072E1904890F8300348B919A850F8240047
:1035700000EE100AB8EE400AB0EE408A09E019A841
:1035800050F824004FF47A71484300EE100AB8EE68
:10359000408A43E000E057E0824890F8300348B9A1
:1035A00011A850F8240000EE100AB8EE400AB0EE60
:1035B000408A09E011A850F824004FF47A7148437A
:1035C00000EE100AB8EE408A28E0764890F8300302
:1035D00048B909A850F8240000EE100AB8EE400AD5
:1035E000B0EE408A09E009A850F824004FF47A713F
:1035F000484300EE100AB8EE408A0FE001A850F8E8
:10360000240000EE100AB8EE400A20EE290ABDEEB2
:10361000C00AB8EEC00AB0EE408A00BF00BF04EB9B
:10362000C401634800EB410006EBC6014218BDEE41
:10363000C80A10EE101A08203FF05AFE601CC4B2EF
:10364000AC42FFF660AF20E000241BE007F10A0067
:10365000C7B200EE107AB8EE400A29EE800AB0EE4A
:10366000408A04EBC401524800EB410006EBC6015E
:103670004218BDEEC80A10EE101A08203FF038FEBE
:10368000601CC4B2AC42E1DB00BF00BFDDE04549D5
:1036900091F8330341F0D8FEF0EE408A414890F8AB
:1036A000310330B1012805D002280AD0032816D1F1
:1036B0000EE015E0B2EE040AC8EE800AF0EE608A71
:1036C0000EE09FED3A0AC8EE800AF0EE608A07E04D
:1036D0009FED350AC8EE800AF0EE608A00E000BF78
:1036E00000BF00EE105AB8EE400AC8EE800ABDEEE8
:1036F000E00AB8EEC00AB0EE40BA002419E0601C3F
:1037000000EE100AB8EEC00A2BEE000AB0EE40CA76
:1037100004EBC401264800EB410006EBC601421849
:10372000BDEECC0A10EE101A08203FF0E1FD601C3F
:10373000C4B2AC42E3DB681E00EBC0011C4800EBE6
:10374000410006EBC6014218BDEEE80A10EE101A61
:1037500008203FF0CDFD78E0124991F8330341F0A5
:1037600073FEB0EE409A0F4890F8320330B1012852
:1037700005D002280AD0032829D121E028E0B2EEA2
:10378000040AC9EE000AB0EE609A21E09FED070A34
:10379000C9EE000AB0EE609A1AE0000000000000D6
:1037A000089906087411002000007A440000C842FD
:1037B000B21300203093FBFF600FE6FFC0BDF0FFA7
:1037C0001FED070AC9EE000AB0EE609A00E000BFE4
:1037D00000BF00EE105AB8EE400AC9EE000ABDEE76
:1037E000E00AB8EEC00AF0EE40BA002419E0601C0E
:1037F00000EE100AB8EEC00A2BEE800AF0EE40CAC6
:1038000004EBC401124800EB410006EBC60142186C
:10381000BDEEEC0A10EE101A08203FF069FD601CA6
:10382000C4B2AC42E3DB681E00EBC001084800EB09
:10383000410006EBC6014218BDEEC90A10EE101A8F
:1038400008203FF055FD00E000BF00BF00BF04E6C8
:10385000B213002010B517F05BFD012804D103203E
:1038600002490870012010BD0020FCE768AF00206D
:1038700038B53CF06FFF044641F65832FF2100F0A6
:1038800047FE8DF800003CF069FF044640F26C7280
:10389000FF2100F03DFE8DF801003CF063FF04467F
:1038A0006422FF2100F034FE8DF802009DF8000034
:1038B000012808D19DF80100012804D19DF80200DB
:1038C000012800D138BD0020FCE700207E20B0F5A3
:1038D000967F01D900BFFEE74FF49670B0F5967F52
:1038E00001D000BFFEE77E2000BF00BF41F2707034
:1038F00000BF00BF40F26C7000BF00BF642000BF7B
:1039000000BF40F2CE4000BF00BF45F6DE5000BF12
:1039100000BF704710B500BF1AF0FBFA00F080013D
:103920008029F9D010BD00000020014908707047BF
:1039300068AF002038B504464FF4A8734FF4B37253
:103940005A21022000943EF0D6FB38BD38B504461B
:103950001E234FF448724FF4E171002000943EF0B2
:10396000CAFB38BD38B5044640F21D134FF4D77278
:103970008C214FF4B67000943EF0BDFB38BD38B5D5
:1039800004464FF4877340F212226421962000947B
:103990003EF0B1FB38BD38B50446B4F8660000907F
:1039A000B4F85E30B4F85C20618820883EF0A3FB58
:1039B00038BD10B58E2037F0C7FF22F075F9C4B2BC
:1039C00044F04004204637F0C5FF21F0CBFC10BD89
:1039D000F8B5044604EB840000EBC401184830F845
:1039E000111004EB840000EBC402154800EB420008
:1039F000808908440C3086B204EB840000EBC401DB
:103A00000F4800EB4100418804EB840000EBC40246
:103A10000B4800EB4200C08A0844401C87B204EB0C
:103A2000840000EBC401064800EB4100C58805A0F6
:103A30002B462A4639460090304612F0FDFAF8BD72
:103A40009C0A00203E000000F8B5044604EB840008
:103A500000EBC401184830F8111004EB840000EBAF
:103A6000C402154800EB4200808908440C3086B23D
:103A700004EB840000EBC4010F4800EB41004188D7
:103A800004EB840000EBC4020B4800EB4200C08A48
:103A90000844401C87B204EB840000EBC4010648D4
:103AA00000EB4100C58805A02B462A463946009008
:103AB000304612F0C1FAF8BD3C0D00203E00000077
:103AC000F8B5044604EB840000EBC401184830F854
:103AD000111004EB840000EBC402154800EB420017
:103AE000808908440C3086B204EB840000EBC401EA
:103AF0000F4800EB4100418804EB840000EBC40256
:103B00000B4800EB4200C08A0844401C87B204EB1B
:103B1000840000EBC401064800EB4100C58805A005
:103B20002B462A4639460090304612F085FAF8BDF9
:103B3000700600203E000000F8B5044604EB840047
:103B400000EBC401184830F8111004EB840000EBBE
:103B5000C402154800EB4200808908440C3086B24C
:103B600004EB840000EBC4010F4800EB41004188E6
:103B700004EB840000EBC4020B4800EB4200C08A57
:103B80000844401C87B204EB840000EBC4010648E3
:103B900000EB4100C58805A02B462A463946009017
:103BA000304612F049FAF8BD561800203E000000D9
:103BB000F8B5044604EB840000EBC401184830F863
:103BC000111004EB840000EBC402154800EB420026
:103BD000808908440C3086B204EB840000EBC401F9
:103BE0000F4800EB4100418804EB840000EBC40265
:103BF0000B4800EB4200C08A0844401C87B204EB2B
:103C0000840000EBC401064800EB4100C58805A014
:103C10002B462A4639460090304612F00DFAF8BD80
:103C2000BEB900103E000000F8B5044604EB840065
:103C300000EBC401184830F8111004EB840000EBCD
:103C4000C402154800EB4200808908440C3086B25B
:103C500004EB840000EBC4010F4800EB41004188F5
:103C600004EB840000EBC4020B4800EB4200C08A66
:103C70000844401C87B204EB840000EBC4010648F2
:103C800000EB4100C58805A02B462A463946009026
:103C9000304612F0D1F9F8BD041700203E000000B4
:103CA000024909688143014A1160704734000020CD
:103CB000024909688143014A1160704738000020B9
:103CC00070B500254FF4803400E0641E24B18020DC
:103CD00023F0C6FE0028F8D014B90325284670BD8D
:103CE00040F2FF5023F09AFD2846F8E710B5032470
:103CF00028484078052849D2DFE800F0030616047A
:103D0000050043E042E041E002202249487000F013
:103D100089FA3221012039F01FF8012100203CF0FE
:103D2000DFFF1C49887031E0012038F00DFD90B1B3
:103D3000012018494870084690F85700401C81F847
:103D40005700084690F85700032801DB042048700C
:103D500000BF00BF1AE00F48007800B916E044F039
:103D6000ADFA0C4981F836000846817890F83600A3
:103D7000814205D001200749487000BF00BF05E01F
:103D800000200449487000F007F800BF00BF014858
:103D9000407810BD7C26001070B5002444F082FAF3
:103DA0000446102C73D00CDCA4F102000E281FD2A4
:103DB000DFE800F0161F28313A4346494C4F52C8FD
:103DC000C8B6A4F1FE001128F1D2DFE800F0484B9C
:103DD000BB4E57BBBB6173BB7C858EBBBB97A00042
:103DE00044F05AFA0546584939F0DCF800BF00BFE4
:103DF000A8E044F051FA0546534940F0C5FB00BF26
:103E000000BF9FE044F048FA05464F4940F0BCFB34
:103E100000BF00BF96E044F03FFA05464A4939F03A
:103E200013F900BF00BF8DE044F036FA054646495D
:103E300040F0AAFB00BF00BF84E000BF00BF81E0EC
:103E400000BF00BF7EE000BF00BF7BE000BF00BF3F
:103E500078E000BF00BF75E000BF00BF72E000BFA8
:103E600000BF6FE000BF00BF6CE044F015FA0546EC
:103E7000354940F089FB00BF00BF63E044F00CFA15
:103E80000546314940F080FB00BF00BF5AE050E0DA
:103E900044F002FA05462C4939F0D4F92A4A353A59
:103EA000D2F84F10D07B41F0D3FB40F073F900BF44
:103EB00000BF47E044F0F0F90546234940F064FBB9
:103EC00000BF00BF3EE044F0E7F905461E4940F060
:103ED0005BFB00BF00BF35E044F0DEF905461A4940
:103EE00040F052FB00BF00BF2CE044F0D5F905467E
:103EF000154940F049FB00BF00BF23E044F0CCF976
:103F00000546114940F040FB00BF00BF1AE044F0F5
:103F1000C3F905460C4940F037FB00BF00BF11E074
:103F200044F0BAF90546084940F02EFB00BF00BF37
:103F300008E044F0B1F90546034939F04FF800BFF5
:103F400000BF00BF00BF70BDB12600102DE9F041D9
:103F5000064600274848056801E04748056805F01F
:103F600045000028F9D005F0040030B103270420F3
:103F700023F054FC3846BDE8F08105F0010028B17B
:103F80000127012023F04AFC3846F4E723F062FDC4
:103F9000B04202D010273846EDE740F2FF5023F040
:103FA0003DFC002023F02CFE04463448204008B994
:103FB0003846E0E704F0004008B11C20DBE704F0DD
:103FC000804008B10920D6E704F0005008B10A206B
:103FD000D1E704F0805008B10B20CCE704F000607A
:103FE00008B10C20C7E704F0806008B10D20C2E7DB
:103FF00004F0807008B10E20BDE704F4000008B1A1
:104000000F20B8E704F4800008B11020B3E704F4EF
:10401000001008B11120AEE704F4801008B112209E
:10402000A9E704F4002008B11320A4E704F48020D9
:1040300008B114209FE704F4003008B115209AE776
:1040400004F4803008B1162095E704F4004008B16C
:10405000172090E704F4804008B118208BE704F49F
:10406000005008B1192086E704F0080008B11A20B2
:1040700081E738467FE70000342C014008E0FFFD6F
:1040800070B500251048046801E00F48046804F08A
:1040900045000028F9D004F0040028B103250420CD
:1040A00023F0BCFB284670BD04F0010028B10125B7
:1040B000012023F0B3FB2846F5E740F2FF5023F040
:1040C000ADFB2846EFE70000342C014070B5002519
:1040D0000B48046801E00A48046804F04500002821
:1040E000F9D004F0040028B10325042023F096FB46
:1040F000284670BD40F2FF5023F090FB2846F8E7B9
:10410000342C01402DE9F04106460F464FF00008DF
:104110002248056801E02148056805F045000028AF
:10412000F9D005F0040038B14FF00308042023F063
:1041300075FB4046BDE8F08105F0010030B14FF05D
:104140000108012023F06AFB4046F3E723F082FCDC
:10415000B04203D04FF010084046EBE740F2FF506A
:1041600023F05CFB002023F04BFD044604F4604088
:1041700018B9200C38804046DCE704F4005008B140
:104180001320D7E704F4804008B11020D2E704F4EC
:10419000004008B10F20CDE74046CBE7342C01406A
:1041A00070B500264FF480350F48046802E06D1E9C
:1041B0000D48046804F0450008B9002DF7D115B189
:1041C00004F0040028B10326042023F027FB304626
:1041D00070BD04F0400028B10026402023F01EFBF3
:1041E0003046F5E73046F3E7342C014010B51EF0B9
:1041F000EFFD044624B1032C03D0042C0CD105E0C0
:104200000BE00749012026F02FF806E00449091DBC
:10421000012026F029F800E000BF00BF204610BDB5
:1042200014D5060800B58BB07048B0F8030010280C
:1042300070D00CDCA0F102000E286CD2DFE800F098
:10424000151A1F262B303A46505C5FCFCFC3FE387D
:104250001128F2D2DFE800F0565BC36067C3C36C7D
:1042600075C37C888DC3C3A3AB0038F096FE00BF36
:1042700000BFB7E038F068FF00BF00BFB2E05B49A5
:10428000887938F0FDFE00BF00BFABE038F0C2FE19
:1042900000BF00BFA6E038F04DFE00BF00BFA1E0A8
:1042A000524AB2F80910B2F8070038F021FF00BFF7
:1042B00000BF97E04D4BD3F80B20B3F80910B3F8CB
:1042C000070039F037F800BF00BF8BE0474AB2F86B
:1042D0000910B2F8070038F021FF00BF00BF81E0ED
:1042E000424BD3F80B20B3F80910B3F8070039F0AC
:1042F00045F800BF00BF75E000BF00BF72E000BF1F
:1043000000BF6FE038F0A6FF00BF00BF6AE000BF4B
:1043100000BF67E05DE062E03449487938F019FF9A
:1043200000BF00BF5EE038F041FF00BF00BF59E0B2
:104330002E49C87B0022114638F051FF00BF00BF54
:1043400050E02A49087C38F014FE00BF00BF49E065
:10435000264BB3F81520B3F81310B3F8110038F05A
:10436000ABFE00BF00BF3DE038F0A3FF00BF00BFC1
:1043700038E01E4817300169009141690191008BB6
:10438000ADF808001A221949173104A8FBF718FFE5
:1043900004A80FC838F071FF00BF00BF22E0134926
:1043A000D1F8310038F058FE00BF00BF1AE00F4BC3
:1043B000B3F81520B3F81310B3F8110038F07FFFED
:1043C00000BF00BF0EE00A4838F0F6FE00BF00BF95
:1043D00008E0102038F0F5FD00BF00BF02E000BF8C
:1043E00000BF00BF00BF0BB000BD00007C26001066
:1043F00031FFD8052DE9F04104460D46204600F076
:1044000029F807462946384636F066FB0646304608
:10441000BDE8F0812DE9F04781460E461746484633
:1044200000F018F88046B8F1000F02D1FF20BDE877
:10443000F087002409E0315D404636F095FC0546E2
:104440000DB10120F3E7601C84B2BC42F3DB002015
:10445000EDE70000014609B90B487047012901D179
:104460000020FAE7022901D10020F6E7032901D153
:104470000020F2E7042901D10020EEE7052901D14F
:104480000248EAE70020E8E71023002090250020FA
:1044900010B51E48007820B1012813D0022830D171
:1044A00022E01A48007901280BD100201749087131
:1044B0000A2048804FF00070FFF7F2FB01201349FB
:1044C00008701EE011484088052805DD0F48408827
:1044D000401E0E49488006E04FF0007025F068FE4F
:1044E00002200A4908700CE00848408828B10748B3
:1044F0004088401E0549488002E0002003490870BA
:1045000000BF00BF19F00CFD10BD0000100000102E
:1045100010B503460C46002105E0585CA04201D0CE
:10452000002010BD491C9142F7D30120F9E700009B
:1045300030B52DED108B85B00546F0EE408A9FED2D
:104540008C0A8DED040A16F099FADFED8A0A68EEFE
:10455000A00A20EE200AF0EE409A16F085FADFED70
:10456000850A68EEA00A20EE200AB0EE40AA9FED70
:10457000800AB0EE408A19EE900AFBF7BEFF41ECCC
:104580001C0BB0EE4C0AF0EE6C0A37F04DFAB0EEB0
:1045900040BAF0EE60BA9FED780B53EC102B51EC63
:1045A0001B0BFBF7BDFF18D31AEE100AFBF7A5FF94
:1045B00041EC1C0BB0EE4C0AF0EE6C0A37F034FA0A
:1045C000B0EE40BAF0EE60BA9FED6B0B53EC102BDF
:1045D00051EC1B0BFBF7A4FF05D29FED650A05B05C
:1045E000BDEC108B30BD284617F058FBB0EE408A6A
:1045F00018EE100AFBF781FF41EC1C0BB0EE4C0AE1
:10460000F0EE6C0A37F010FAB0EE40BAF0EE60BA95
:104610009FED590B53EC102B51EC1B0BFBF780FF5C
:1046200002D29FED530ADAE716F002FA044629EEA9
:10463000880AF0EE40EA2AEE080A8DED030A00200F
:10464000029001904E4802AAB0EE6E0A816B04F10E
:10465000380016F0E1FA10B99FED450ABFE7484867
:1046600001AA816B9DED030A04F1380016F0D4FA1B
:1046700010B99FED3F0AB2E704F13800029900EB50
:10468000810090ED000AC0EE080AF0EE60AA04F185
:104690003800019900EB810090ED000AC0EE080A95
:1046A000B0EE60DA42F618702044029900EB810007
:1046B00090ED000AF0EE40DA42F6187020440199BD
:1046C00000EB810090ED000AB0EE40EA16F08EFAA1
:1046D000B0EE409A19EE100AFBF70FFF41EC1C0BED
:1046E000B0EE4C0AF0EE6C0A37F09EF9B0EE40BA2C
:1046F000F0EE60BA9FED200B53EC102B51EC1B0B2E
:10470000FBF70EFF02D29FED1A0A68E78DEE890AC9
:10471000B0EE40FA8EEE090AF0EE40FA3FEECF0A14
:1047200010EE101A0846FBF7E8FE41EC1C0BB0EE49
:104730004C0AF0EE6C0A37F077F9B0EE40BAF0EEC2
:1047400060BA9FED0D0B53EC102B51EC1B0BFBF7DC
:10475000E7FE02D29FED060A41E73DEE6A0A7FEED0
:10476000CF0A80EE201A8DED041A9DED040A36E77B
:10477000000000000AD7233C000000E0E2361A3FA8
:1047800070A80010F0B52DED108B83B00746B0EE89
:10479000408AF0EE608A9FED950AB0EE40AA16F0CE
:1047A00025FAB0EE409A9FED910AF0EE409A18EE8D
:1047B000100AFBF7A2FE41EC1C0BB0EE4C0AF0EE27
:1047C0006C0A37F031F9B0EE40BAF0EE60BA9FED06
:1047D000880B53EC102B51EC1B0BFBF7A1FE05D201
:1047E0009FED820A03B0BDEC108BF0BD384617F088
:1047F00055FAF0EE409A19EE900AFBF77EFE41EC76
:104800001C0BB0EE4C0AF0EE6C0A37F00DF9B0EE6E
:1048100040BAF0EE60BA9FED760B53EC102B51ECE2
:104820001B0BFBF77DFE02D29FED700ADAE719EE53
:10483000100AFBF762FE41EC1C0BB0EE4C0AF0EEE6
:104840006C0A37F0F1F8B0EE40BAF0EE60BA9FEDC6
:10485000680B53EC102B51EC1B0BFBF761FE02D2E3
:104860009FED620ABEE716F0E3F8054616F006F97A
:10487000DFED610A68EEA00A20EE200AF0EE40AA01
:1048800016F0F2F8DFED5C0A68EEA00A20EE200ACE
:10489000B0EE40BA002002900190584802AAB0EE53
:1048A0006A0A816B05F1380016F0B6F910B99FED70
:1048B0004F0A97E7514801AAB0EE4B0A816B05F108
:1048C000380016F0A9F910B99FED480A8AE705F1FA
:1048D0003800029900EB810090ED000AC0EE290A31
:1048E000F0EE60BA42F618702844029900EB81009D
:1048F00090ED000AC0EE090AB0EE60CA9FED3B0AD7
:10490000F0EE40CA9FED390AB0EE40DA9FED370A6B
:10491000F0EE40DA9FED350AB0EE40EAB0EE6B0AF9
:1049200008EE4C0AF0EE40CABFEE000A2CEE800AF8
:10493000C0EE080AF0EE60DA31480068D0F8B7003F
:1049400000EE100A9FED2F1AC0EE010A30EEAD0AFC
:10495000B0EE40EABFEE000A28EE000A20EE0E0A92
:10496000B0EE40DA16F064F806469FED200AF0EE4D
:1049700040EA9FED1E0AB0EE40FA9FED1C0AF0EEF1
:1049800040FA019C29E006F1380000EB840090ED2C
:10499000000AC0EE290AB0EE60FA42F61870304400
:1049A00000EB840090ED000AC0EE090AF0EE60FA18
:1049B000B0EE4F0A08EE6F0AF0EE40EAF4EECDEAF0
:1049C000F1EE10FA08D806F1380000EB840090ED03
:1049D000000AB0EE40AA04E0641C0848806BA042C4
:1049E000D1D800BFB0EE4A0AFCE60000000000008B
:1049F000000000E0E2361A3F0AD7233C70A80010FE
:104A0000800100200000C84210B52DED068B044641
:104A1000B0EE408A204617F041F9F0EE408A18EED9
:104A2000900AFBF76AFD41EC1A0BB0EE4A0AF0EE71
:104A30006A0A36F0F9FFB0EE409AF0EE609A9FED08
:104A4000080B53EC102B51EC190BFBF769FD04D24A
:104A50009FED050ABDEC068B10BD88EE280AF9E72C
:104A6000000000E0E2361A3F00000000F0B53C23F1
:104A700051243C22512100208BE000EB800505EB06
:104A8000C006484D25F8162000EB800505EBC00652
:104A9000444D05EB46056980002600EB800505EBDB
:104AA000C007404D05EB4705AE804FF6FF7600EBA3
:104AB000800505EBC0073B4D05EB4705EE80002662
:104AC00000EB800505EBC007364D05EB47052E8151
:104AD0004FF6FF7600EB800505EBC007314D05EB87
:104AE00047056E814FF4A07600EB800505EBC0070B
:104AF0002C4D05EB4705AE81242600EB800505EB28
:104B0000C007284D05EB4705EE81202600EB800508
:104B100005EBC007234D05EB47052E74252600EB5A
:104B2000800505EBC0071F4D05EB47056E8200268B
:104B300000EB800505EBC0071A4D05EB4705AE827B
:104B4000184D0A3D95F8C1506D1E85420CD100EB01
:104B5000800505EBC006134D05EB4605AD892835EC
:104B60001544AAB2512112E000EB800505EBC00606
:104B70000C4D05EB46056E8A00EB800505EBC00782
:104B8000084D05EB4705ED8935440D44A9B2451C98
:104B9000E8B2044D0A3D95F8C05085423FF76DAF2D
:104BA000F0BD000042150020F0B5654D6C5C00EBD7
:104BB000800505EBC006634D05EB860501EB81061C
:104BC00006EBC10625F8162000EB800505EBC006B4
:104BD0005C4D05EB860501EB810606EBC10605EB96
:104BE00046056B804FF6FF7600EB800505EBC007AE
:104BF000544D05EB870501EB810707EBC10705EB7A
:104C00004705AE80002600EB800505EBC0074D4D43
:104C100005EB870501EB810707EBC10705EB4705AE
:104C2000EE804FF6FF7600EB800505EBC007454DA3
:104C300005EB870501EB810707EBC10705EB47058E
:104C40002E81002600EB800505EBC0073D4D05EBEE
:104C5000870501EB810707EBC10705EB47056E816F
:104C60001E2600EB800505EBC007364D05EB8705DA
:104C700001EB810707EBC10705EB4705EE8118261D
:104C800000EB800505EBC0072E4D05EB870501EB1A
:104C9000810707EBC10705EB47052E74002600EBE3
:104CA000800505EBC007274D05EB870501EB810764
:104CB00007EBC10705EB47056E8200EB800505EBAE
:104CC000C007204D05EB870501EB810707EBC10706
:104CD00005EB4705AE82022600EB800505EBC00719
:104CE000184D05EB870501EB810707EBC10705EBC5
:104CF0004705EE8214B1012C20D10FE04C2600EBC9
:104D0000800505EBC0070F4D05EB870501EB81071B
:104D100007EBC10705EB4705AE810FE07E2600EBF0
:104D2000800505EBC007074D05EB870501EB810703
:104D300007EBC10705EB4705AE8100BF00BFF0BD23
:104D400097140020761100202DE9F04705460E4605
:104D500017460024B046B94600BF27E04B464246FE
:104D600021462846FFF720FF05EB850000EBC50133
:104D7000124800EB810004EB840101EBC40100EB5D
:104D80004100818905EB850000EBC5020B4800EB73
:104D9000820004EB840202EBC40200EB4200C08AF2
:104DA000081A40441FFA80F8601CC4B20348801EF1
:104DB00090F82F03A042D1DCBDE8F08776110020E7
:104DC00030B503460A46194C248B1C44A3B2174C39
:104DD000248B1444A2B203F16004A3B2A2F1300404
:104DE000A2B2124CA4F8FC32A4F8FE224FF6FF75D2
:104DF000A4F800530025A4F802534FF6FF75A4F859
:104E000004530025A4F806536625A4F808531E256C
:104E1000A4F80A53182584F80C530025A4F80E535F
:104E2000A4F810530225A4F8125330BD74110020C9
:104E30002DE9F0474FF493784FF064094646642516
:104E400015F0A4FB07462A4631460020FFF77CFFF9
:104E50003422194901F50270FBF7B2F91648801E99
:104E6000B0F81812B0F82002081A284485B20024BD
:104E700019E02A4631462046FFF766FF04EB84001E
:104E800000EBC4010C4800EB8100C18904EB8400F5
:104E900000EBC402084800EB8200C08A081A2844CC
:104EA00085B2601CC4B2BC42E3DB64214FF4937052
:104EB000FFF786FFBDE8F08776110020F0B56E4D54
:104EC0006C5CC0EBC00505EB40166C4D05EB460570
:104ED00001EB810606EBC10625F81620C0EBC005E4
:104EE00005EB4016654D05EB460501EB810606EB2B
:104EF000C10605EB46056B804FF6FF76C0EBC0059B
:104F000005EB40175D4D05EB470501EB810707EB0E
:104F1000C10705EB4705AE800026C0EBC00505EBD9
:104F20004017564D05EB470501EB810707EBC1071D
:104F300005EB4705EE804FF6FF76C0EBC00505EBAD
:104F400040174E4D05EB470501EB810707EBC10705
:104F500005EB47052E810026C0EBC00505EB401789
:104F6000464D05EB470501EB810707EBC10705EB54
:104F700047056E811E26C0EBC00505EB40173F4D6F
:104F800005EB470501EB810707EBC10705EB47057B
:104F9000EE811826C0EBC00505EB4017374D05EB39
:104FA000470501EB810707EBC10705EB47052E74A9
:104FB0000026C0EBC00505EB4017304D05EB47055B
:104FC00001EB810707EBC10705EB47056E82C0EBDC
:104FD000C00505EB4017294D05EB470501EB81079F
:104FE00007EBC10705EB4705AE820226C0EBC00503
:104FF00005EB4017214D05EB470501EB810707EB5A
:10500000C10705EB4705EE8224B1012C12D0022C1A
:1050100030D11FE03626C0EBC00505EB4017174D19
:1050200005EB470501EB810707EBC10705EB4705DA
:10503000AE811FE07E26C0EBC00505EB40170F4D8B
:1050400005EB470501EB810707EBC10705EB4705BA
:10505000AE810FE06626C0EBC00505EB4017074D9B
:1050600005EB470501EB810707EBC10705EB47059A
:10507000AE8100BF00BFF0BDC004001022000010D0
:105080002DE9F04705460E4617460024B046B946BE
:1050900000BF27E04B46424621462846FFF70EFF59
:1050A000C5EBC50000EB4511124800EB410004EBD5
:1050B000840101EBC40100EB41008189C5EBC5000F
:1050C00000EB45120B4800EB420004EB840202EBBC
:1050D000C40200EB4200C08A081A40441FFA80F85C
:1050E000601CC4B20348801E90F8AB04A042D1DC1F
:1050F000BDE8F0872200001030B503460A46194C7F
:10510000248B1C44A3B2174C248B1444A2B203F189
:105110006004A3B2A2F13004A2B2124CA4F8743419
:10512000A4F876244FF6FF75A4F878540025A4F867
:105130007A544FF6FF75A4F87C540025A4F87E54E9
:105140006625A4F880541E25A4F88254182584F8F6
:1051500084540025A4F88654A4F888540225A4F8A1
:105160008A5430BD200000102DE9F0474FF0E608CA
:105170004FF06409E626642515F034FA07462A46FE
:1051800031460020FFF77CFF4E22194901F543709C
:10519000FBF716F81648801EB0F81C13B0F824036D
:1051A000081A284485B2002419E02A4631462046D0
:1051B000FFF766FFC4EBC40000EB44110C4800EBA2
:1051C0004100C189C4EBC40000EB4412084800EB65
:1051D0004200C08A081A284485B2601CC4B2BC428E
:1051E000E3DB6421E620FFF787FFBDE8F0870000DE
:1051F00022000010F0B5F0236924F022692100207C
:1052000077E000EB800505EBC0063D4D25F8162044
:1052100000EB800505EBC006394D05EB46056980BE
:10522000002600EB800505EBC007354D05EB470573
:10523000AE804FF6FF7600EB800505EBC007304DE2
:1052400005EB4705EE80002600EB800505EBC00767
:105250002B4D05EB47052E814FF6FF7600EB8005C1
:1052600005EBC007264D05EB47056E814FF4A07690
:1052700000EB800505EBC007214D05EB4705AE812E
:10528000402600EB800505EBC0071D4D05EB4705EB
:10529000EE81202600EB800505EBC007184D05EBDD
:1052A00047052E74282600EB800505EBC007144D3A
:1052B00005EB47056E82002600EB800505EBC00775
:1052C0000F4D05EB4705AE8200EB800505EBC006F0
:1052D0000B4D05EB46056E8A00EB800505EBC0071C
:1052E000074D05EB4705ED8935440D44A9B2451C32
:1052F000E8B2034DAD1F95F85450854281DCF0BDF6
:10530000AA20002030B54FF482724A2100200DE11E
:1053100000EB800303EBC004884B23F8142000EB60
:10532000800303EBC004854B03EB440359804FF625
:10533000FF7400EB800303EBC005804B03EB4503D8
:105340009C80002400EB800303EBC0057B4B03EB48
:105350004503DC804FF6FF7400EB800303EBC005D0
:10536000764B03EB45031C81002400EB800303EB29
:10537000C005724B03EB45035C81A22400EB800364
:1053800003EBC0056D4B03EB45039C811E2400EB32
:10539000800303EBC005694B03EB4503DC81182454
:1053A00000EB800303EBC005644B03EB45031C7467
:1053B0000A2400EB800303EBC005604B03EB4503BD
:1053C0005C82002400EB800303EBC0055B4B03EB26
:1053D00045039C82022400EB800303EBC005574B7E
:1053E00003EB4503DC8200EB800303EBC004534B6B
:1053F00033F8144000EB800303EBC0054F4B03EB85
:1054000045039B89234424339CB24C4BEC3303EB80
:1054100040135C8000EB800303EBC004474B03EBBD
:1054200044035C88454BEC3303EB40139C8000EB5A
:10543000800303EBC004414B03EB44039C883F4BC8
:10544000EC3303EB4013DC8000EB800303EBC00480
:105450003A4B03EB4403DC88384BEC3303EB40134B
:105460001C816624354BEC3303EB40135C8118241C
:10547000324BEC3303EB40139C7402242F4BEC3380
:1054800003EB40139C8200242C4BEC3303EB4013C2
:10549000DC820224294BEC3303EB40131C83274BA3
:1054A000EC3303EB40139C7C244BEC3303EB4013B5
:1054B0009B8A1C44214BEC3303EB40139D8A1F4B0A
:1054C000EC3303EB40139B7E03FB04541B4BEC3388
:1054D00003EB40131B8B022505FB03439CB2174BC8
:1054E000EC3303EB40139C812D24144BEC3303EB82
:1054F0004013DC814FF4DC74104BEC3303EB4013AE
:105500001C8200EB800303EBC0040C4B03EB440351
:10551000DC8900EB800303EBC005084B03EB45037C
:105520005B8A23440B4499B2431CD8B2034B543BCF
:1055300093F8B23283423FF7EBAE30BD9C0A0020B5
:10554000F0B5F74D6C5C00EB801505EB4505F54EAD
:1055500006EB450501EB810606EBC10625F8162092
:1055600000EB801505EB4505EE4E06EB450501EB1E
:10557000810606EBC10605EB46056B804FF6FF750D
:1055800000EB801606EB4606E64F07EB460601EBFE
:10559000810707EBC10706EB4706B580002500EB46
:1055A000801606EB4606DF4F07EB460601EB810748
:1055B00007EBC10706EB4706F5804FF6FF7500EBDA
:1055C000801606EB4606D74F07EB460601EB810730
:1055D00007EBC10706EB47063581002500EB801677
:1055E00006EB4606CF4F07EB460601EB810707EBBC
:1055F000C10706EB470675811C2500EB801606EBFC
:105600004606C84F07EB460601EB810707EBC107CB
:1056100006EB4706F581182500EB801606EB4606DB
:10562000C04F07EB460601EB810707EBC10706EB0E
:1056300047063574002500EB801606EB4606B94F89
:1056400007EB460601EB810707EBC10706EB4706B0
:10565000758200EB801606EB4606B24F07EB460656
:1056600001EB810707EBC10706EB4706B582022570
:1056700000EB801606EB4606AA4F07EB460601EB49
:10568000810707EBC10706EB4706F582A51E1A2D19
:1056900071D2DFE805F0F4F3F21DF1F0EFEEED70FA
:1056A000700DECEB2DEAC2D2F5E8E7E6E5E4E3E2C3
:1056B000342500EB801606EB46069A4F07EB4606AC
:1056C00001EB810707EBC10706EB4706B581B1E2A5
:1056D000C42500EB801606EB4606924F07EB460604
:1056E00001EB810707EBC10706EB4706B581A1E295
:1056F0008D4D95F88351072D02D00B2D77D13BE0CE
:105700008A4D95F8335125B1012D12D0022D30D19B
:105710001FE0582500EB801606EB4606814F07EB8D
:10572000460601EB810707EBC10706EB4706B5818B
:105730001FE04C2500EB801606EB4606794F07EB81
:10574000460601EB810707EBC10706EB4706B5816B
:105750000FE0C02500EB801606EB4606714F07EB05
:10576000460601EB810707EBC10706EB4706B5814B
:1057700000BF00BF4FE04DE26C4D95F8335135B19D
:10578000012D14D0022D22D0032D41D130E0582517
:1057900000EB801606EB4606624F07EB460601EB70
:1057A000810707EBC10706EB4706B58130E05825B6
:1057B00000EB801606EB46065A4F07EB460601EB58
:1057C000810707EBC10706EB4706B58120E05825A6
:1057D00000EB801606EB4606524F07EB460601EB40
:1057E000810707EBC10706EB4706B58110E011E022
:1057F000582500EB801606EB46064A4F07EB460697
:1058000001EB810707EBC10706EB4706B58100BF37
:1058100000BF00E000BF00BF0CE2852500EB801652
:1058200006EB46063F4F07EB460601EB810707EB09
:10583000C10706EB4706B581FCE1652500EB801644
:1058400006EB4606374F07EB460601EB810707EBF1
:10585000C10706EB4706B581ECE1CBE1BAE1A9E16E
:105860004EE03DE02CE01BE00AE061E07DE157E125
:1058700046E144E142E140E113E13DE13BE1EBE09F
:10588000652500EB801606EB4606264F07EB46061D
:1058900001EB810707EBC10706EB4706B581C9E1BC
:1058A000652500EB801606EB46061E4F07EB460605
:1058B00001EB810707EBC10706EB4706B581B9E1AC
:1058C000722500EB801606EB4606164F07EB4606E0
:1058D00001EB810707EBC10706EB4706B581A9E19C
:1058E0004C2500EB801606EB46060E4F07EB4606EE
:1058F00001EB810707EBC10706EB4706B58199E18C
:105900004C2500EB801606EB4606064F07EB4606D5
:1059100001EB810707EBC10706EB4706B58189E17B
:105920005B3800100427001004370010A4A90020E1
:10593000C14D95F88351072D02D00B2D76D13AE059
:10594000BE4D95F8335125B1012D12D0022D30D125
:105950001FE0792500EB801606EB4606B84F07EBF3
:10596000460601EB810707EBC10706EB4706B58149
:105970001FE0852500EB801606EB4606B04F07EBCF
:10598000460601EB810707EBC10706EB4706B58129
:105990000FE0962500EB801606EB4606A84F07EBB6
:1059A000460601EB810707EBC10706EB4706B58109
:1059B00000BF00BF4EE0A14D95F8335135B1012D28
:1059C00014D0022D22D0032D41D130E0962500EBDA
:1059D000801606EB46069A4F07EB460601EB810759
:1059E00007EBC10706EB4706B58130E0962500EBD3
:1059F000801606EB4606924F07EB460601EB810741
:105A000007EBC10706EB4706B58120E0962500EBC2
:105A1000801606EB46068A4F07EB460601EB810728
:105A200007EBC10706EB4706B58110E011E09625AC
:105A300000EB801606EB4606814F07EB460601EBAE
:105A4000810707EBC10706EB4706B58100BF00BF22
:105A500000E000BF00BFEDE0774D95F88351052DC4
:105A60000FD1C42500EB801606EB4606744F07EBFA
:105A7000460601EB810707EBC10706EB4706B58138
:105A80000EE04C2500EB801606EB46066C4F07EB4C
:105A9000460601EB810707EBC10706EB4706B58118
:105AA000C8E0654D95F88351082D04D0624D95F8F6
:105AB0008351092D0FD1C42500EB801606EB460655
:105AC0005F4F07EB460601EB810707EBC10706EBCB
:105AD0004706B5810EE04C2500EB801606EB460626
