:020000040802F0
:10000000A85901209D0102080391030851450308E6
:10001000B18C0308550C020895E8040800000000A4
:1000200000000000000000000000000025F30308AD
:10003000F98E020800000000E5A10308BF3404089F
:10004000B7010208B7010208B7010208B7010208A8
:10005000B7010208B7010208B7010208B701020898
:10006000B7010208B7010208B7010208B701020888
:10007000B7010208B7010208B7010208B701020878
:10008000B7010208B7010208B7010208B701020868
:10009000B7010208B7010208B7010208B701020858
:1000A000B7010208B7010208B7010208B701020848
:1000B0009155040899550408B7010208B7010208D0
:1000C000B7010208B7010208B7010208B701020828
:1000D000B7010208199F0408B7010208B701020816
:1000E000B7010208B7010208B7010208B701020808
:1000F000B7010208B7010208B7010208B7010208F8
:10010000B70102085DDD0308B7010208B701020864
:10011000B7010208B7010208B7010208B7010208D7
:10012000B7010208B7010208B70102088185020879
:10013000B7010208B5B00208B7010208B70102080A
:10014000B7010208B7010208B7010208B7010208A7
:10015000B7010208B7010208B7010208299F040885
:10016000B7010208B7010208B7010208B701020887
:10017000B701020831930308B7010208B70102086A
:10018000B7010208B7010208DFF80CD000F03EFA10
:1001900000480047B7520508A85901200648804783
:1001A00006480047FEE7FEE7FEE7FEE7FEE7FEE75C
:1001B000FEE7FEE7FEE7FEE70D3F040889010208BF
:1001C00010B5431A934209D28318881803E010F837
:1001D000011D03F8011D521EF9D210BD40EA0103B2
:1001E0009B0703D009E008C9121F08C0042AFAD2ED
:1001F00003E011F8013B00F8013B521EF9D210BD9B
:10020000D2B201E000F8012B491EFBD27047002258
:10021000F6E710B513460A4604461946FFF7F0FF05
:10022000204610BD10B5044604E00B7800F8013BF1
:1002300003B1491C521EF8D2204610BD421C10F8D2
:10024000011B0029FBD1801A704710B5002200E085
:10025000521C835C8C5CA34201D1002BF8D1D8B234
:10026000E1B2401A10BD30B504460020034600E05C
:100270005B1C934203D2E05CCD5C401BF8D030BDE8
:10028000034611F8012B00F8012B002AF9D118467A
:10029000704730B505460020034600E05B1C9342E2
:1002A00005D2EC5CC85C201A01D1002CF6D130BD1F
:1002B0002DE9FE4F81EA030404F0004421F00041DF
:1002C00000944FF0000B23F0004350EA01045ED08D
:1002D00052EA03045BD0C3F30A54C1F30A552C4419
:1002E000A4F2F3340194A0FB0254C1F3130141F4CE
:1002F0008011C3F3130343F4801301FB024400FB9A
:10030000034E840A970A44EA815447EA8357A4FBC0
:10031000076802958D0A05FB07854FEA932C04FBBD
:100320000C542705029D4FEA065847EA1637B5EBED
:1003300008056EEB070C870E920E47EA811742EA1A
:100340008312A7FB0201B6EB0B0164EB00042B0D3B
:1003500043EA0C335E1844EB1C50DA465146E7FB87
:100360000201C5F313044FEA0B3343EA14534FEA77
:100370000432019C43EA0603A4F10C040294009C9D
:10038000CDE900B400F0F4F803B0BDE8F08F002030
:100390000146F9E770B5C1F30A5201F000450024A7
:1003A000C1F3130140F2FF3341F480119A4201DAA4
:1003B000002070BD40F233439A42A2F2334203DC84
:1003C000524200F07FF800E090402C43F1D04042D0
:1003D00070BDC1F30A5210B5C1F3130140F2FF33EF
:1003E00041F480119A4201DA002010BD40F23343FB
:1003F0009A42A2F2334203DC524200F063F810BD8D
:10040000904010BD00F0004230F000400AD0C10D15
:1004100001F56071C0F3160042EA0151C2084007BD
:1004200011437047002001467047000030B5041E9C
:1004300071F1000404DB4FF00044404264EB010121
:10044000141E73F1000405DB1C464FF000435242BA
:1004500063EB04038B4208BF824230BD30B5041EFB
:1004600071F1000404DB4FF00044404264EB0101F1
:10047000141E73F1000405DB1C464FF0004352428A
:1004800063EB0403994208BF904230BD01F0004382
:1004900030B421F0004150EA010206D00A0DA2F565
:1004A0006072C1F31301002A02DC30BC00207047E7
:1004B000440F44EAC104C100E01830BC00EBC25054
:1004C00000F010B8202A04DB203A21FA02F00021C3
:1004D000704721FA02F3D040C2F120029140084354
:1004E000194670470029A8BF7047401C490008BF43
:1004F00020F00100704710B4B0FA80FC00FA0CF054
:1005000050EA010404BF10BC704749B1CCF120048B
:1005100021FA04F411FA0CF118BF01212143084318
:10052000A3EB0C01CB1D4FEA00614FEA102042BF44
:10053000002010BC704700EBC35010440029A4BF3A
:1005400010BC7047401C490008BF20F0010010BCDF
:10055000704710B5141E73F1000408DA401C41F115
:10056000000192185B411A4301D120F0010010BD37
:100570002DE9F04D92469B4611B1B1FA81F202E0AD
:10058000B0FA80F22032904600F052F804460F464E
:1005900040EA0A0041EA0B0153465A46084313D089
:1005A000114653EA010019D0C8F140025046FFF746
:1005B00089FF05460E4650465946424600F038F837
:1005C000084305D0012004E020463946BDE8F08DFF
:1005D0000020054346EAE0762C4337430A9863053A
:1005E000E40AA0EB08000022FD0A44EA47540A305E
:1005F00002D500200146E9E7010510196941DDE94E
:10060000084500196941BDE8F04DA2E7064C074DC9
:1006100006E0E06840F0010394E8070098471034D2
:10062000AC42F6D3FFF7B4FD302006087020060870
:10063000202A04DB203A00FA02F1002070479140A2
:10064000C2F1200320FA03F319439040704770B5BC
:100650008C1810F8015B15F0070301D110F8013B6D
:100660002A1106D110F8012B03E010F8016B01F8F4
:10067000016B5B1EF9D12B0705D40023521E0DD44C
:1006800001F8013BFAE710F8013BCB1A921C03E09A
:1006900013F8015B01F8015B521EF9D5A142D8D3D2
:1006A000002070BD01460148405C70477E05002077
:1006B0000246FF20002107E0074B5B5C934201D11B
:1006C000084607E04B1CD9B2034B9B1E93F8FE3043
:1006D0008B42F1DC00BF70477E05002010B5044658
:1006E000062C26D2DFE804F0251009171E03124A53
:1006F000012108461FF0F0FA1CE00F4A121D0121EB
:1007000008461FF0E9FA15E00B4A083201210846B5
:100710001FF0E2FA0EE0084A0C32012108461FF0F1
:10072000DBFA07E0044A1032012108461FF0D4FA30
:1007300000E000BF00BF10BD94BC05082DE9F041EA
:1007400007460C4615461E4630202EF0A5F83846C2
:100750002EF0ACF831202EF09FF838122EF0A6F8CB
:1007600034202EF099F820462EF0A0F835202EF0F7
:1007700093F820122EF09AF832202EF08DF82846A9
:100780002EF094F833202EF087F828122EF08EF8F1
:1007900036202EF081F830462EF088F837202EF0E3
:1007A0007BF830122EF082F81AF0ECFFBDE8F081F1
:1007B00006201B4981F8A400052081F8A50000202F
:1007C000887001211648C170022101710321417115
:1007D000042181710521C171124800681049C1F8D6
:1007E000A800104841680E48C0F8AC100D48816858
:1007F0000B48C0F8B0100B48C1680948C0F8B410E5
:10080000084801690648C0F8B8100648416904481C
:10081000C0F8BC1004A00249C1F8C0007047000035
:10082000281500200CBE0508B8DFBCB6B2CECAFD44
:1008300000000000FF2006494870002081F8C40035
:1008400081F8C5000021024880F8C61070470000FA
:100850002815002010B514F007FB01281BD113F058
:1008600043F8B0F5802F03D0B0F5801F12D108E017
:1008700001200A4981F8C5000121084880F8C61006
:1008800008E00120054981F8C5000021034880F8EF
:10089000C61000BF00BF00F0EFF810BD2815002003
:1008A00010B5214890F8C50001283CD11E4890F8A9
:1008B000C600012834D11C480178801C405C062801
:1008C0002DD2DFE800F003101D21252901201FF0A3
:1008D000F5F91F201FF0E6F914201FF0E9F91520A3
:1008E0001FF0D4F91BE001201FF0E8F91F201FF0D2
:1008F000D9F913201FF0DCF915201FF0C7F90EE01D
:1009000011201FF0C3F90AE012201FF0BFF906E022
:1009100010201FF0BBF902E015F0EAFD00BF02E075
:1009200008201FF0B3F910BD2815002010B53D4870
:1009300090F8C400012874D13A484078FF284ED07E
:100940003848407800EB800101EBC00135480830A1
:1009500000EB410001893348407800EB800202EB54
:10096000C0023048083000EB420081802D484078BA
:1009700000EB800101EBC0012A48083000EB410088
:1009800041892848407800EB800202EBC0022548EC
:10099000083000EB4200C180224948780DF0A0FEEB
:1009A0004FF6FF711F48007800EB800202EBC00297
:1009B0001C48083000EB420081804FF6E0211948C6
:1009C000007800EB800202EBC0021648083000EB12
:1009D0004200C180134908780DF082FE1DE04FF6F9
:1009E000FF711048007800EB800202EBC0020D4856
:1009F000083000EB420081804FF6E0210948007882
:100A000000EB800202EBC0020648083000EB420017
:100A1000C180044908780DF063FE0248007801495E
:100A2000487010BD281500201CB50020114981F820
:100A3000C40001208DF80000084690F8A5008DF84C
:100A4000010002208DF80200084690F8A4008DF8FD
:100A5000030008460190684614F0A7FF0548007897
:100A600004494978884203D00120024981F8C40032
:100A70001CBD00002815002010B5002413F038F824
:100A80000446002C0FDD084890F8A400A0420ADBC1
:100A90000120054981F8C5000121034880F8C610EE
:100AA000601E0149087010BD281500200421024A6B
:100AB0001172114608607047B048002000B587B039
:100AC00039F0B2FE684632F05DF9DDE90001CDE9AA
:100AD00002019DF80B0000909DF80A30BDF8082037
:100AE00012A104A83AF0F4F904A801F083FED0B9E9
:100AF00012A000234FF6FF7200901448018814489A
:100B000000880EF0DDFB19F0AFFA1AF011FC1AF0B4
:100B1000E9FC10A000231A4600900C4801880C48FC
:100B200000880EF0CDFB07B000BD00002530346416
:100B3000253032642530326400000000D5FDD4DA5F
:100B4000D7D4B6AFB1B8B7DD2E2E2E0006000020E8
:100B500004000020202020202020202020202020F1
:100B6000202020200000000010B52EF081FB2EF088
:100B70008BF92EF006FB2EF04FFA2EF0E7FA2EF04E
:100B800015FB2EF089F92EF0B9FB2EF051FA2EF05C
:100B900015FA10BD10B522480078002836D001287B
:100BA00002D0022833D110E01E480088401C1D49A5
:100BB0000880084600881C490988884204DB00F048
:100BC00039F802201649087027E016480088401CB2
:100BD000144908800846008814490988884214DBB3
:100BE0000020104908801248008801280ADD1048BA
:100BF0000088401E0E49088001200949087000F055
:100C000021F802E000200649087006E005E000F047
:100C100011F800200249087000BF00BF10BD00009D
:100C20003C00002040000020440000204200002042
:100C30003E00002010B54FF0004002F023F918F0FC
:100C400005FF10BD10B54FF000401FF017F818F069
:100C5000FDFE10BD00BFFEE738B504460020009041
:100C600012F044FA054694FBF5F005FB1040C0B2C3
:100C70008DF8000094FBF5F0401CC0B28DF8010027
:100C8000BDF80010084638BD2DE9F047054612F0C2
:100C90002DFA07460026B046B1460020287068703D
:100CA000012F07DA234A012108461FF015F800201A
:100CB000BDE8F087012012F001FA0646002434E076
:100CC00004EBC4021C4901EB420106EBC602881882
:100CD0000A2200213AF025F98046611C01EBC1028D
:100CE000154901EB420106EBC60288180A220021D1
:100CF0003AF017F981464846B8F1000101DB0A468F
:100D000000E04A42002801DB034600E043429A42E9
:100D100009DB2C706E70074A121D012108461EF077
:100D2000DBFF0020C4E7601CC4B2781EA042C7DC11
:100D30000120BDE7E4BC0508A613002010B5044659
:100D4000012C01DB0A2C06DD044A012108461EF0B5
:100D5000C3FF002010BD0120FCE70000E0BC050837
:100D600022A1264AC2F82813022182F82F1300215B
:100D700082F823130122214981F82423204909689C
:100D80001E4AC2F81813114691F8301329B91C49AC
:100D90004A681A49C1F81C2304E019498A681749AE
:100DA000C1F81C230121154A82F82113002213499E
:100DB00081F82223002015E0002200EB800101EBE6
:100DC000C0030E49891C01EB83014A7600EB8001C8
:100DD00001EBC0030949891C01EB830181F8332031
:100DE000411CC8B20A28E7DB70470000B1EAB6A888
:100DF000B2CECAFDC9E8D6C30000000068110020C9
:100E0000D4BC050870B512F071F904460C48057899
:100E10000078401C0A4908700846017890F82F03B2
:100E2000401E10FB04F091FBF0F200FB121004498D
:100E3000087008460078A84201D1FF20487070BDB4
:100E40006811002010B5FF2011494870002081F87A
:100E50002503012081F82C03002081F82D030021B7
:100E60000B4880F82E1312F0DFFB38B912F074F93A
:100E700020B90020064981F8300303E0012004492D
:100E800081F8300312F068F9014981F8310310BD8F
:100E900068110020F8B5654805782846FFF7DCFEA4
:100EA000009013F0E1FF012870D112F01DFDB0F5A4
:100EB000802F09D0B0F5801F73D0B0F1805F67D06C
:100EC000B0F1005F6CD194E012F076FE0446201E73
:100ED00002D0022862D100E0F8BD544890F83203F5
:100EE00050BB12F065FE06783046FFF727FFD0B101
:100EF0004E4890F81503A0B912F05AFE4B49066807
:100F000091F8200301F2F222314634F025FD12F06F
:100F1000EDF8064601F0C4FC0120444981F8330392
:100F200000E000BF00BF0120404981F82D030021EF
:100F30003E4880F82E13CFE79DF8000000EB8001BB
:100F400001EBC0013948801C00EB81009DF80110C5
:100F500001EB810202EBC10100EB4100407EC0B910
:100F600012F026FE9DF8001001EBC103304901EBA1
:100F700043019DF8013003EBC303CA182B490668EF
:100F800091F82003314634F0E7FC03E04CE008E040
:100F90003DE000BF00BF00F023FB00E000BF00BF4A
:100FA00041E012F009FE0446201E02D003281DD1A4
:100FB0000BE008201EF06AFE01201C4981F82D0379
:100FC00000211A4880F82E1311E0184890F83203D7
:100FD00020B90120154981F8250302E0FF201349BB
:100FE00048700120114981F82C0300E000BF00BFC8
:100FF00019E012F0CDF806461EF048FE01200B491C
:1010000081F82D030121094880F82E130BE00820F8
:101010001EF03CFE0120054981F82D030021034804
:1010200080F82E1300BF00BF00BF55E768110020F5
:10103000A613002008B50C4890F82D03012810D104
:10104000094890F82E0301280BD16846FFF71CFED3
:1010500028B907201EF01AFE19F070F908BD00F03B
:10106000C9FA00BFFAE700006811002010B5124865
:1010700090F8250301281DD100200F4981F8250390
:10108000084690F8320318B9012000F053FA0DE039
:1010900009484078FF2804D007484178002000F034
:1010A000DFFA05480178012000F0DAFA02480078FA
:1010B0000149487010BD000068110020FEB50024F1
:1010C00012F014F80546002613F0CEFE012833D1A5
:1010D00012F00AFC04462D4890F8320388B9B4F5A2
:1010E000003F29D10126002000F024FA01202749E1
:1010F00081F8250381F8320300200870FF20487032
:101100001AE022490878FFF7A7FD0090B4F5002FF8
:1011100012D19DF8000078B901261C480178002002
:1011200000F09EFA0120194981F82503002081F87A
:1011300032030870FF204870012E00D1FEBD01204F
:101140008DF804008DF80550104890F82F03401ECC
:10115000C0B28DF806009DF805009DF8061010FB42
:1011600001F0C0B28DF807000848029001A814F001
:101170001CFC0648007805494978884203D00120C4
:10118000024981F8250300BFD8E70000681100205C
:1011900038B512F001FD0446A74805782846FFF748
:1011A0005BFD00901AF0D8FA40F2CB2020804FF47B
:1011B000CD70608041F6FC40A0809F4890F83203DB
:1011C00020B99D48B0F80603E08013E09DF80000C8
:1011D00000EB800101EBC0019748801C00EB81000F
:1011E0009DF8011001EB810202EBC10100EB41000F
:1011F0004089E0804FF6FF70A08240F2CF10E0827D
:1012000001202072A0728C4890F8320380B98A487D
:10121000B0F8FC12B0F812030844401CA0818648C4
:10122000B0F8FE12B0F812030844401CE08150E010
:101230009DF8000000EB800101EBC0017E48801C9E
:1012400000EB81009DF8011001EB810202EBC1016E
:1012500030F811109DF8000000EB800202EBC00294
:101260007548801C00EB82009DF8012002EB820390
:1012700003EBC20200EB4200C08A0844401CA0817C
:101280009DF8000000EB800101EBC0016A48801C62
:1012900000EB81009DF8011001EB810202EBC1011E
:1012A00000EB410041889DF8000000EB800202EB5A
:1012B000C0026148801C00EB82009DF8012002EB17
:1012C000820303EBC20200EB4200C08A0844401CC8
:1012D000E081082020766076574890F8320398B96C
:1012E0005548B0F80813B0F81203022202FB1010A0
:1012F000801E20825048B0F80A13B0F8120302FB97
:101300001010801E608255E09DF8000000EB800107
:1013100001EBC0014848801C00EB81009DF80110E2
:1013200001EB810202EBC10100EB410081899DF8D4
:10133000000000EB800202EBC0023F48801C00EB83
:1013400082009DF8012002EB820303EBC20200EB56
:101350004200C08A022202FB1010801E20829DF8EB
:10136000000000EB800101EBC0013348801C00EB62
:1013700081009DF8011001EB810202EBC10100EB3D
:101380004100C1899DF8000000EB800202EBC00221
:101390002948801C00EB82009DF8012002EB8203AB
:1013A00003EBC20200EB4200C08A022202FB1010D3
:1013B000801E60822148E0611F4890F8320350B9D6
:1013C0001D4890F8150384F820001B4890F80C0382
:1013D00084F8220029E09DF8000000EB800101EB79
:1013E000C0011548801C00EB81009DF8011001EB45
:1013F000810202EBC10100EB4100407E84F8200035
:101400009DF8000000EB800101EBC0010A48801C40
:1014100000EB81009DF8011001EB810202EBC1019C
:1014200000EB4100007C84F82200002084F82300B7
:10143000204614F0F1FB38BD68110020881400200C
:101440002DE9F0412DED028B0024002500269FEDB3
:10145000350AB0EE408A0127334991F8310336F05E
:10146000EFFB0446022C01DB0B2C00DD0224601E86
:10147000C4B22D4890F8330328B92C4A21460820DD
:1014800034F06AFA02E011F031FE044600253FE034
:10149000002011F013FE064605EBC5012348B438C1
:1014A00000EB410006EBC60142183946082034F033
:1014B00053FA781CC7B21C4890F8330330BB0120A4
:1014C00011F0FCFD06466A1CD1B2174A92F83103AE
:1014D00036F0D6FBB0EE408A134890F8300328B9B6
:1014E0009FED130AC8EE000AB0EE608A05EBC50155
:1014F0000E48B43800EB410006EBC6014218BDEEC1
:10150000C80A10EE101A082034F026FA681CC5B27A
:10151000A542BDDB0020044981F83303BDEC028BFA
:10152000BDE8F08100000000681100205A1400207E
:1015300000007A4410B5044654B1012C12D10021A8
:101540000A48A0F800134FF6E021A0F8021309E0C2
:101550000648B0F80413A0F80013B0F80613A0F87A
:10156000021300BF00BF1EF0F5FE10BD6811002081
:1015700010B512F01FFC04460D4890F82C0301280A
:1015800015D100200A4981F82C030C2020704FF659
:10159000FF70608040F2CF10A0800648D0F8501154
:1015A0002161D0F80C11616120461EF0F3FC10BDE2
:1015B00068110020F0F4050810B511F097FD0446FD
:1015C0000648017890F82F03401E10FB04F081427A
:1015D00002DB00200149087010BD000068110020E6
:1015E00010B5FFF70FFC0120014981F82C0310BD55
:1015F000681100202DE9F04100260025002711F098
:1016000075FD0646012011F059FD0746002418E03B
:1016100004EBC4020F4901EB420107EBC702881833
:101620000A22002139F07DFC05460B4890F8300372
:1016300010B94FF47A704543084840F82450601CB4
:10164000C4B2B442E4DB11F051FD0449091F087033
:10165000BDE8F081A613002068110020A01400202E
:1016600038B504460D462846FFF7F6FA00904CB30D
:10167000012C70D100219DF8000000EB800202EBEC
:10168000C002394800EB82009DF8012002EB820382
:1016900003EBC20200EB420081804FF6E0219DF88F
:1016A000000000EB800202EBC0022F4800EB82003A
:1016B0009DF8012002EB820303EBC20200EB420023
:1016C000C18048E09DF8000000EB800101EBC00103
:1016D000254800EB81009DF8011001EB810202EB2F
:1016E000C10100EB410001899DF8000000EB800280
:1016F00002EBC0021C4800EB82009DF8012002EBC7
:10170000820303EBC20200EB420081809DF80000DF
:1017100000EB800101EBC001134800EB81009DF854
:10172000011001EB810202EBC10100EB4100418994
:101730009DF8000000EB800202EBC0020A4800EBBB
:1017400082009DF8012002EB820303EBC20200EB52
:101750004200C18000BF00BF9DF801109DF800004D
:101760001EF0D4FC38BD00006A11002038B50446D4
:101770000020009011F0E6FC054694FBF5F005FB17
:101780001040C0B28DF8000094FBF5F0401CC0B2D0
:101790008DF80100BDF80010084638BD2DE9F0476E
:1017A000054611F0CFFC814600260027B0460020F8
:1017B00028706870B9F1010F07DA454A012108461F
:1017C0001EF08AFA0020BDE8F087012011F0A2FC8B
:1017D0000646002435E004EBC40101EB41023D491B
:1017E000114406EBC60288180A22002139F099FB41
:1017F0000746611C01EBC10101EB4102354911446F
:1018000006EBC60288180A22002139F08AFB8046BE
:101810004046391E01DB0A4600E04A42002801DB4F
:10182000034600E043429A4209DB2C706E70284A5E
:10183000121D012108461EF04FFA0020C3E7601C6C
:10184000C4B2A9F10100A042C5DC022011F062FC83
:101850000646002435E004EBC40101EB41021D49BA
:10186000114406EBC60288180A22002139F059FB00
:101870000746611C01EBC10101EB4102154911440E
:1018800006EBC60288180A22002139F04AFB80467E
:101890004046391E01DB0A4600E04A42002801DBCF
:1018A000034600E043429A4209DB2C706E70084AFE
:1018B0000832012108461EF00FFA002083E7601C61
:1018C000C4B2A9F10100A042C5DC01207BE7000001
:1018D0000CBC05087C03001010B50446012C01DB8C
:1018E0000A2C06DD044A012108461EF0F5F9002005
:1018F00010BD0120FCE7000008BC05082CA12E4A01
:10190000C2F8A414032182F8AB14002182F8A014B9
:101910000122294981F8A124022281F8A224274921
:101920000968254AC2F89014114691F8AC1429B9F7
:1019300022494A682049C1F8942404E01F498A6872
:101940001D49C1F894241D49CA681B49C1F898244F
:101950000121194A82F89D140022174981F89E241A
:1019600081F89F2400201FE00022C0EBC00101EBA2
:1019700040131149891C01EB43014A76C0EBC001B9
:1019800001EB40130C49891C01EB430181F8332022
:10199000C0EBC00101EB40130749891C01EB430177
:1019A00081F84D20411CC8B20A28DDDB70470000D9
:1019B000B1EAB6A8B1ED000020000010F8BB0508A0
:1019C00070B511F0BFFB04461748007890FBF4F0A7
:1019D000401CC5B214480678012011F09BFBA842B8
:1019E00005D11148007820440F49087008E00E48DE
:1019F0000078001B0C49087008460078401C0870ED
:101A00000948017890F8AB04401E604391FBF0F266
:101A100000FB12100449087008460078B04201D15A
:101A2000FF20487070BD00002000001010B5FF209E
:101A30000C494870002081F8A304012081F8A80413
:101A4000002081F8A9040021064880F8AA1411F0AA
:101A50008BFC044981F8AC0411F08CFC014981F83D
:101A6000AD0410BD20000010F8B571480578284677
:101A7000FFF77CFE009013F0F7F9012876D111F002
:101A800033FFB0F5801F7FD009DCB0F1004F6FD07D
:101A9000B0F5803F6DD0B0F5802F6BD109E0B0F18B
:101AA000805F68D0B0F1005F75D0B0F1804FF4D1A5
:101AB0009EE012F081F8044614B1022C61D100E0DE
:101AC000F8BD5B4890F8AE0428BB12F071F80678B8
:101AD0003046FFF701FFA8B1554890F88D0478B95A
:101AE00012F066F85249066891F89C0401F26A42C5
:101AF000314633F031FF01204D4981F8AF0400E059
:101B000000BF00BF01204A4981F8A90400214848CC
:101B100080F8AA14D4E79DF80000C0EBC00101EBE7
:101B200040114348801C00EB41009DF8011001EB7F
:101B3000810202EBC10100EB4100407EE0B912F0EE
:101B400037F89DF8001001EBC10101EB4103394961
:101B500019449DF8013003EBC303CA1834490668E1
:101B600091F89C04314633F0F7FE06E05DE00BE0AF
:101B700032E03EE058E04BE000BF00BF00F0F8FB71
:101B800000E000BF00BF4FE012F016F804461CB1A1
:101B9000032C1ED10CE02FE008201EF077F8012066
:101BA000234981F8A9040021214880F8AA1411E0F2
:101BB0001F4890F8AE0420B901201D4981F8A30404
:101BC00002E0FF201A4948700120194981F8A80451
:101BD00000E000BF00BF27E009201EF057F80120F9
:101BE000134981F8A9040121114880F8AA141BE0C7
:101BF00000BF00F0D1F817E008201EF047F80120E0
:101C00000B4981F8A9040121094880F8AA140BE0C6
:101C100008201EF03BF80120054981F8A9040021A5
:101C2000034880F8AA1400BF00BF00BF48E70000C7
:101C3000200000107C03001008B50D4890F8A9049E
:101C4000012812D10A4890F8AA0401280DD168464B
:101C5000FFF7A4FD28B90A201EF018F818F06EFB53
:101C600008BD00F08FFB1DF0FDFF00BFF8E700008E
:101C70002000001010B5124890F8A30401281DD1CF
:101C800000200F4981F8A304084690F8AE0418B963
:101C9000012000F08BFA0DE009484078FF2804D0BD
:101CA00007484178002000F0DDFA0548017801205E
:101CB00000F0D8FA024800780149487010BD0000D1
:101CC00020000010FEB5002411F03CFA0546002665
:101CD00013F0CAF8012833D111F006FE04462D484E
:101CE00090F8AE0488B9B4F5003F29D10126002050
:101CF00000F05CFA0120274981F8A30481F8AE04C2
:101D000000200870FF2048701AE022490878FFF789
:101D10002DFD0090B4F5002F12D19DF8000078B988
:101D200001261C480178002000F09CFA0120194986
:101D300081F8A304002081F8AE040870FF204870E9
:101D4000012E00D1FEBD01208DF804008DF8055054
:101D5000104890F8AB04401EC0B28DF806009DF804
:101D600005009DF8061010FB01F0C0B28DF80700C9
:101D70000848029001A813F018FE064800780549AB
:101D80004978884203D00120024981F8A30400BFAA
:101D9000D8E700002000001010B51EF04FF90B4AE4
:101DA00092F8AC1492F8AD0418F02AFC40B9012066
:101DB000064981F8A9040021044880F8AA1403E028
:101DC0000120024981F8A80410BD00002000001085
:101DD00038B511F0E1FE0446A74805782846FFF71C
:101DE000C5FC009019F0B8FC40F2CB2020804FF4E5
:101DF000CD70608041F6FC40A0809F4890F8AE0412
:101E000020B99D48B0F87E04E08013E09DF8000002
:101E1000C0EBC00101EB40119748801C00EB410072
:101E20009DF8011001EB810202EBC10100EB4100C2
:101E30004089E0804FF6FF70A08240F2CF10E08230
:101E400001202072A0728C4890F8AE0480B98A48B4
:101E5000B0F87414B0F88A040844401CA081864885
:101E6000B0F87614B0F88A040844401CE08150E0D1
:101E70009DF80000C0EBC00101EB40117E48801CC2
:101E800000EB41009DF8011001EB810202EBC10162
:101E900030F811109DF80000C0EBC00202EB4012B8
:101EA0007548801C00EB42009DF8012002EB820384
:101EB00003EBC20200EB4200C08A0844401CA08130
:101EC0009DF80000C0EBC00101EB40116A48801C86
:101ED00000EB41009DF8011001EB810202EBC10112
:101EE00000EB410041889DF80000C0EBC00202EB0E
:101EF00040126148801C00EB42009DF8012002EB7B
:101F0000820303EBC20200EB4200C08A0844401C7B
:101F1000E081082020766076574890F8AE0498B9A2
:101F20005548B0F88014B0F88A04022202FB101061
:101F3000801E20825048B0F88214B0F88A0402FB58
:101F40001010801E608255E09DF80000C0EBC001BB
:101F500001EB40114848801C00EB41009DF8011046
:101F600001EB810202EBC10100EB410081899DF888
:101F70000000C0EBC00202EB40123F48801C00EBA7
:101F800042009DF8012002EB820303EBC20200EB4A
:101F90004200C08A022202FB1010801E20829DF89F
:101FA0000000C0EBC00101EB40113348801C00EB86
:101FB00041009DF8011001EB810202EBC10100EB31
:101FC0004100C1899DF80000C0EBC00202EB401245
:101FD0002948801C00EB42009DF8012002EB82039F
:101FE00003EBC20200EB4200C08A022202FB101087
:101FF000801E60822148E0611F4890F8AE0450B90D
:102000001D4890F88D0484F820001B4890F8840443
:1020100084F8220029E09DF80000C0EBC00101EB2C
:1020200040111548801C00EB41009DF8011001EBA8
:10203000810202EBC10100EB4100407E84F82000E8
:102040009DF80000C0EBC00101EB40110A48801C64
:1020500000EB41009DF8011001EB810202EBC10190
:1020600000EB4100007C84F82200002084F823006B
:10207000204613F0D1FD38BD20000010BC04001034
:102080002DE9F0472DED028B0025A94600240026FE
:102090009FED410AB0EE408A0127A0463F4991F8E2
:1020A000AD0435F0CDFD0546022D01DB0B2D00DD25
:1020B0000225681EC5B2A946384890F8AF0428B971
:1020C000374A2946082033F047FC06E011F03AF879
:1020D00005460020314981F8AF04002456E0002075
:1020E00011F018F8064604EBC40000EB40012D483F
:1020F000084406EBC60142183946082033F02CFC90
:10210000781CC7B24C453FDA012011F003F80646AF
:10211000621CD1B2214A92F8AD0435F0B1FDB0EEA7
:10212000408A1E4890F8AC0428B99FED1F0AC8EEFB
:10213000000AB0EE608A04EBC40000EB40011948CD
:10214000084406EBC6014218BDEEC80A10EE101A8C
:10215000082033F001FC022010F0DCFF0646621C70
:10216000D1B20E4A92F8AD0435F046FD804604EB3C
:10217000C40000EB40010B48084406EBC6014218BE
:102180004146082033F0E8FB601CC4B2AC42A6DB39
:10219000BDEC028BBDE8F0870000000020000010BD
:1021A0008A0400107C03001000007A4410B5044635
:1021B00054B1012C12D100210A48A0F878144FF62E
:1021C000E021A0F87A1409E00648B0F87C14A0F8E1
:1021D0007814B0F87E14A0F87A1400BF00BF1EF087
:1021E0003BFA10BD2000001010B511F0E3FD0446CD
:1021F000104890F8A80401281AD100200D4981F850
:10220000A8040F2020704FF6FF70608040F2CF10BE
:10221000A08009480069A0600748C16CE160D0F85F
:1022200094102161D0F8E810616120461DF0B2FEE3
:1022300010BD000020000010F0F4050810B510F0EB
:1022400081FF04460648017890F8AB04401E10FB5D
:1022500004F0814202DB00200149087010BD00003B
:102260002000001038B504460D462846FFF77EFAD8
:1022700000904CB3012C70D100219DF80000C0EB00
:10228000C00202EB4012394800EB42009DF80120E9
:1022900002EB820303EBC20200EB420081804FF6A7
:1022A000E0219DF80000C0EBC00202EB40122F4875
:1022B00000EB42009DF8012002EB820303EBC20217
:1022C00000EB4200C18048E09DF80000C0EBC00177
:1022D00001EB4011254800EB41009DF8011001EB96
:1022E000810202EBC10100EB410001899DF8000071
:1022F000C0EBC00202EB40121C4800EB42009DF80C
:10230000012002EB820303EBC20200EB420081805A
:102310009DF80000C0EBC00101EB4011134800EB39
:1023200041009DF8011001EB810202EBC10100EBBD
:10233000410041899DF80000C0EBC00202EB401251
:102340000A4800EB42009DF8012002EB820303EBF8
:10235000C20200EB4200C18000BF00BF9DF8011027
:102360009DF800001EF050F838BD0000220000105B
:1023700010B5FFF725FB0120014981F8A80410BD25
:10238000200000102DE9F041002500240026002740
:10239000A04610F0D7FE0546012D01DB0A2D01DD18
:1023A000BDE8F081681CC5B22E4991F8AD042946FC
:1023B00035F056FC2B4991F8AD049FED2B0A002116
:1023C00035F072FC274991F8AD040022114635F032
:1023D00025FC00243FE0012010F09CFE064604EBA3
:1023E000C40101EB41022149114406EBC6028818E1
:1023F0000A22002138F095FD07461A4890F8AC04EF
:1024000010B94FF47A704743621CD1B2154A92F862
:10241000AD0400EE107AB8EEC00A35F045FC02209B
:1024200010F078FE064604EBC40101EB41020F49AF
:10243000114406EBC60288180A22002138F071FD0B
:102440008046621CD1B2074A92F8AD04424635F08C
:10245000E5FB601CC4B2AC42BDDB34F0C9F900BF7F
:102460009EE7000020000010000000007C03001028
:1024700003680B600A718388A1F80530CA71C388AC
:102480000B8100238B7270470CA00F494866032014
:1024900081F854000020887001210B48C17002218E
:1024A00001710A480068084988650848416806487B
:1024B000C16506488168044801667047CDA8B5C06B
:1024C000D1A1D4F100000000601F00201CBF05084E
:1024D000FF2006494870002081F8680081F86900F3
:1024E0000021024880F86A1070470000601F002039
:1024F00010B512F0B9FC01281BD111F0F5F9B0F5B7
:10250000802F03D0B0F5801F12D108E001200A49C6
:1025100081F869000121084880F86A1008E001206C
:10252000054981F869000021034880F86A1000BF5E
:1025300000BF00F0FBF810BD601F002010B51B4865
:1025400090F8690001282FD1184890F86A000128F6
:1025500025D116480178801C405C20B101280BD0A1
:1025600002281BD111E00020104981F86E0091F87B
:102570006C001DF08BFB11E001200C4981F86E000E
:1025800091F86C001DF082FB08E00220074981F8F9
:102590006E0091F86C001DF079FB00BF04E0034968
:1025A00091F86B001DF072FB10BD0000601F002051
:1025B00010B53D4890F86800012874D13A48407839
:1025C000FF284ED03848407800EB800101EBC00175
:1025D0003548801D00EB410001893348407800EB0D
:1025E000800202EBC0023048801D00EB4200818077
:1025F0002D48407800EB800101EBC0012A48801D86
:1026000000EB410041892848407800EB800202EB52
:10261000C0022548801D00EB4200C1802249487855
:102620000CF040FB4FF6FF711F48007800EB800272
:1026300002EBC0021C48801D00EB420081804FF677
:10264000E0211948007800EB800202EBC002164836
:10265000801D00EB4200C180134908780CF022FB7A
:102660001DE04FF6FF711048007800EB800202EB8E
:10267000C0020D48801D00EB420081804FF6E02132
:102680000948007800EB800202EBC0020648801D7A
:1026900000EB4200C180044908780CF003FB0248BB
:1026A00000780149487010BD601F00201CB5002053
:1026B000134981F8680001208DF80000084690F861
:1026C00054008DF8010001208DF802009DF80100F2
:1026D0009DF8021010FB01F0C0B28DF8030008480D
:1026E0000190684613F061F905480078044949787B
:1026F000884203D00120024981F868001CBD000017
:10270000601F002010B5002410F044FE064981F837
:102710006E0091F86E0010F025FD0446FF2C01D0EC
:102720000148047010BD0000601F002010B5002497
:1027300011F0DEF90446002C0FDD084890F8540033
:10274000A0420ADB0120054981F869000121034804
:1027500080F86A10601E0149087010BD601F0020DB
:10276000FEB504460D4600262068009000208DF836
:1027700004000A220021684638F0D3FB86B22E807E
:10278000A088ADF8000000208DF802000A22002188
:10279000684638F0C6FB86B2AE70E088ADF800003F
:1027A00000208DF802000A220021684638F0B9FBAB
:1027B00086B2EE70FEBD2DE9F04104460D46164688
:1027C00000273046FDF73AFD00F0FF083146284665
:1027D000FDF756FDA04501DBBDE8F081474603E06B
:1027E0002020E855781CC7B2A742F9DB0020285505
:1027F00000BFF1E730B591B0044600250A22002160
:10280000204638F08EFB05462A4607A109A838F075
:102810005FFB09A968462FF02FF810B9012011B00D
:1028200030BD0020FBE700007379732F253038643A
:102830000000000070B50025002427F03DFB0128B2
:1028400017D1002027F062FB10F0E0FE0546284675
:1028500027F0D4FA08B9002070BD284627F0E5FA21
:102860000446012C01D0022C03D11CF05FFF012093
:10287000F2E70020F0E770B5FA2511F007F80446FA
:10288000FA2C07D94AF214501AF0F6F800201DF07D
:10289000B3F903E0641C20461DF0AEF970BD0000E2
:1028A000F0B52DED048BAFB00546002400269FED5A
:1028B000A40AF0EE408A9FEDA20AB0EE409A9FED86
:1028C000A00AF0EE409A9FED9E0AB0EE408A0027E3
:1028D00018229C4929A8FDF773FC20229949183138
:1028E00021A8FDF76DFC20229649383119A8FDF783
:1028F00067FC20229349583111A8FDF761FC202282
:102900009049783109A8FDF75BFC20228D49983168
:1029100001A8FDF755FC012D01DB0A2D03DD2FB0C9
:10292000BDEC048BF0BD012010F0C8FB06468649C3
:1029300091F8310335F0C8F8B0EE409AF0EE499ABC
:10294000814890F8300328B99FED800AC9EE800ACB
:10295000F0EE609A9FED7E0AC9EE800AF0EE608A82
:10296000062D02D0082D6DD124E000241FE029A8F7
:1029700050F8240000EE100AB8EE400A20EE280AB3
:10298000BDEEC00AB8EEC00AB0EE408A04EBC40146
:10299000704800EB410006EBC6014218BDEEC80AC4
:1029A00010EE101A082032F0D7FF601CC4B2AC42FF
:1029B000DDDBC1E000249AE0BDEEC90A10EE100A8A
:1029C000A0F51C50103850B16349084400B3634966
:1029D0000844B0B362490844002866D14CE05A4824
:1029E00090F8300348B921A850F8240000EE100AEE
:1029F000B8EE400AB0EE408A09E021A850F8240061
:102A00004FF47A71484300EE100AB8EE408A5CE059
:102A10004D4890F8300348B919A850F8240000EE4A
:102A2000100AB8EE400AB0EE408A09E019A850F842
:102A300024004FF47A71484300EE100AB8EE408A41
:102A400043E000E057E0404890F8300348B911A84F
:102A500050F8240000EE100AB8EE400AB0EE408AAA
:102A600009E011A850F824004FF47A71484300EEB1
:102A7000100AB8EE408A28E0334890F8300348B98D
:102A800009A850F8240000EE100AB8EE400AB0EE93
:102A9000408A09E009A850F824004FF47A714843AD
:102AA00000EE100AB8EE408A0FE001A850F82400AA
:102AB00000EE100AB8EE400A20EE280ABDEEC00A69
:102AC000B8EEC00AB0EE408A00BF00BF04EBC401FC
:102AD000204800EB410006EBC6014218BDEEC80AD3
:102AE00010EE101A082032F037FF601CC4B2AC425E
:102AF000FFF662AF20E000241BE007F10A00C7B236
:102B000000EE107AB8EE400A28EE800AB0EE408A55
:102B100004EBC4010F4800EB410006EBC60142186C
:102B2000BDEEC80A10EE101A082032F015FF601C26
:102B3000C4B2AC42E1DB00BF00BF00BFEFE6000063
:102B400000000000ECBC05086811002000007A4479
:102B50000000C842A61300203093FBFF600FE6FF81
:102B6000C0BDF0FF10B511F00BF8012804D103200F
:102B700002490870012010BD0020FCE7A449002094
:102B800038B530F0D1F8044640F6D862FF2100F0A5
:102B900043FD8DF8000030F0CBF8044640F26C7233
:102BA000FF2100F039FD8DF8010030F0C5F8044632
:102BB0006422FF2100F030FD8DF802009DF8000036
:102BC000012808D19DF80100012804D19DF80200D8
:102BD000012800D138BD0020FCE710B500BF13F07C
:102BE00052F900F080018029F9D010BD0020014980
:102BF00008707047A449002038B504464FF491731B
:102C00004FF4AF726E210420009431F05EFD38BDA8
:102C100038B504461E234FF448724FF4E17100208A
:102C2000009431F052FD38BD38B50446F0234FF41E
:102C3000CD728C214FF4BE70009431F046FD38BD4A
:102C400038B504464FF487734FF4FA726421962026
:102C5000009431F03AFD38BD38B50446B4F866004A
:102C60000090B4F85E30B4F85C206188208831F0C0
:102C70002CFD38BD10B58E202BF00EFE19F0B0F9EA
:102C8000C4B244F0400420462BF010FE18F07AFD48
:102C900010BD0000F8B5044604EB840000EBC4014D
:102CA000184830F8111004EB840000EBC4021548FA
:102CB00000EB4200808908440C3086B204EB8400AB
:102CC00000EBC4010F4800EB4100418804EB840095
:102CD00000EBC4020B4800EB4200C08A0844401CD1
:102CE00087B204EB840000EBC401064800EB41000E
:102CF000C58805A02B462A463946009030460CF080
:102D000013FBF8BD660C00203E000000F8B5044639
:102D100004EB840000EBC401184830F8111004EBF8
:102D2000840000EBC402154800EB4200808908448F
:102D30000C3086B204EB840000EBC4010F4800EBBA
:102D40004100418804EB840000EBC4020B4800EB17
:102D50004200C08A0844401C87B204EB840000EBA8
:102D6000C401064800EB4100C58805A02B462A4651
:102D70003946009030460CF0D7FAF8BD0407002021
:102D80003E000000F8B5044604EB840000EBC401EB
:102D9000184830F8111004EB840000EBC402154809
:102DA00000EB4200808908440C3086B204EB8400BA
:102DB00000EBC4010F4800EB4100418804EB8400A4
:102DC00000EBC4020B4800EB4200C08A0844401CE0
:102DD00087B204EB840000EBC401064800EB41001D
:102DE000C58805A02B462A463946009030460CF08F
:102DF0009BFAF8BD8A1700203E000000F8B5044693
:102E000004EB840000EBC401184830F8111004EB07
:102E1000840000EBC402154800EB4200808908449E
:102E20000C3086B204EB840000EBC4010F4800EBC9
:102E30004100418804EB840000EBC4020B4800EB26
:102E40004200C08A0844401C87B204EB840000EBB7
:102E5000C401064800EB4100C58805A02B462A4660
:102E60003946009030460CF05FFAF8BD4A880010F1
:102E70003E000000024909688143014A1160704721
:102E800030000020024909688143014A11607047FF
:102E90003400002070B500254FF4803400E0641E3B
:102EA00024B180201AF060FE0028F8D014B9032560
:102EB000284670BD40F2FF501AF034FD2846F8E76E
:102EC00010B5032426484078052845D2DFE800F0F5
:102ED0000306160405003FE03EE03DE002202049E5
:102EE000487000F055FA322101202CF065FA0121DA
:102EF000002030F0DFF91A4988702DE001202BF016
:102F000057FF80B1012016494870084690F85700D5
:102F1000401C81F85700084690F85700032801DB51
:102F20000420487018E00E48007800B914E037F02B
:102F3000E9FC0B4981F836000846817890F83600A4
:102F4000814203D001200649487005E00020044971
:102F5000487000F007F800BF00BF0148407810BD7E
:102F60007826001070B5002437F0C0FC0446102C01
:102F700073D00CDCA4F102000E281DD2DFE800F0B3
:102F8000161D242B32393A3B3C3D3E98988AA4F1D9
:102F9000FE001128F1D2DFE800F032338B343B8B96
:102FA0008B42528B5961688B8B6F760037F098FC9F
:102FB000054640492CF024FB7AE037F091FC0546A9
:102FC0003C4933F0E1FD73E037F08AFC05463949AE
:102FD00033F0DAFD6CE037F083FC054635492CF020
:102FE00061FB65E037F07CFC0546324933F0CCFDEF
:102FF0005EE05DE05CE05BE05AE059E058E057E0FD
:1030000056E037F06DFC05462A4933F0BDFD4FE030
:1030100037F066FC0546274933F0B6FD48E037F047
:103020005FFC054623492CF03BFC224A353AD2F896
:103030004F10D07B34F04CFE33F0DAFB38E037F041
:103040004FFC05461B4933F09FFD31E037F048FC4B
:103050000546184933F098FD2AE022E037F040FC9D
:103060000546144933F090FD22E037F039FC05465F
:10307000104933F089FD1BE037F032FC05460D495D
:1030800033F082FD14E037F02BFC0546094933F09C
:103090007BFD0DE037F024FC0546064933F074FD56
:1030A00006E037F01DFC054602492CF0C5FA00BFCA
:1030B00000BF70BDAD2600102DE9F0410646002787
:1030C0004848056801E04748056805F045000028C4
:1030D000F9D005F0040030B1032704201AF022FCD7
:1030E0003846BDE8F08105F0010028B10127012034
:1030F0001AF018FC3846F4E71AF030FDB04202D05E
:1031000010273846EDE740F2FF501AF00BFC002084
:103110001AF0FAFD04463448204008B93846E0E782
:1031200004F0004008B11C20DBE704F0804008B147
:103130000920D6E704F0005008B10A20D1E704F0D6
:10314000805008B10B20CCE704F0006008B10C20DF
:10315000C7E704F0806008B10D20C2E704F080707A
:1031600008B10E20BDE704F4000008B10F20B8E755
:1031700004F4800008B11020B3E704F4001008B193
:103180001120AEE704F4801008B11220A9E704F47E
:10319000002008B11320A4E704F4802008B1142013
:1031A0009FE704F4003008B115209AE704F480305A
:1031B00008B1162095E704F4004008B1172090E705
:1031C00004F4804008B118208BE704F4005008B1E3
:1031D000192086E704F0080008B11A2081E7384674
:1031E0007FE70000342C014008E0FFFD70B50025AA
:1031F0001048046801E00F48046804F04500002806
:10320000F9D004F0040028B1032504201AF08AFB49
:10321000284670BD04F0010028B1012501201AF0F4
:1032200081FB2846F5E740F2FF501AF07BFB284669
:10323000EFE70000342C014070B500250B4804680E
:1032400001E00A48046804F045000028F9D004F0C1
:10325000040028B1032504201AF064FB284670BD41
:1032600040F2FF501AF05EFB2846F8E7342C01408C
:103270002DE9F04106460F464FF000082248056848
:1032800001E02148056805F045000028F9D005F067
:10329000040038B14FF0030804201AF043FB404605
:1032A000BDE8F08105F0010030B14FF001080120C8
:1032B0001AF038FB4046F3E71AF050FCB04203D056
:1032C0004FF010084046EBE740F2FF501AF02AFB9F
:1032D00000201AF019FD044604F4604018B9200CCF
:1032E00038804046DCE704F4005008B11320D7E7EB
:1032F00004F4804008B11020D2E704F4004008B183
:103300000F20CDE74046CBE7342C014070B50026B6
:103310004FF480350F48046802E06D1E0D480468C4
:1033200004F0450008B9002DF7D115B104F00400F0
:1033300028B1032604201AF0F5FA304670BD04F0D7
:10334000400028B1002640201AF0ECFA3046F5E79C
:103350003046F3E7342C014010B516F08DFB0446DF
:1033600024B1032C03D0042C0CD105E00BE0074959
:1033700001201CF0A9FC06E00449091D01201CF0F5
:10338000A3FC00E000BF00BF204610BDACF705085D
:1033900000B58BB05748B0F80300102874D00CDC8F
:1033A000A0F102000E2870D2DFE800F015181B20F3
:1033B00023262E38404A4B9F9F97FE381128F2D281
:1033C000DFE800F0404393444993934C539358648F
:1033D0006793937B81002CF00EF987E02CF0E2F9E3
:1033E00084E0444988792CF079F97FE02CF040F9A9
:1033F0007CE02CF0CDF879E03E4AB2F80910B2F842
:1034000007002CF0A3F971E03A4BD3F80B20B3F886
:103410000910B3F807002CF0BBFA67E0354AB2F8A0
:103420000910B2F807002CF0A7F95FE0314BD3F890
:103430000B20B3F80910B3F807002CF0CDFA55E0D3
:1034400054E053E02CF034FA50E04FE02949487939
:103450002CF0ADF94AE02CF0D7F947E02549C87BBC
:10346000002211462CF0E9F940E02249087C2CF0BA
:10347000AEF83BE01F4BB3F81520B3F81310B3F8C8
:1034800011002CF047F931E02BE02EE02CF03FFA50
:103490002CE0184817300169009141690191008BB7
:1034A000ADF808001A221349173104A8FCF788FE6A
:1034B00004A80FC82CF00FFA18E00E49D1F831001B
:1034C0002CF0F8F812E00B4BB3F81520B3F81310FA
:1034D000B3F811002CF021FA08E007482CF09AF913
:1034E00004E010202CF09BF800E000BF00BF0BB000
:1034F00000BD00007826001031FFD8052DE9F0410D
:1035000004460D46204600F029F80746294638466D
:103510002AF0A2FD06463046BDE8F0812DE9F047CD
:1035200081460E461746484600F018F88046B8F126
:10353000000F02D1FF20BDE8F087002409E0315DD3
:1035400040462AF0D1FE05460DB10120F3E7601C8C
:1035500084B2BC42F3DB0020EDE70000014609B96C
:103560000B487047012901D10020FAE7022901D157
:103570000020F6E7032901D10020F2E7042901D158
:103580000020EEE7052901D10248EAE70020E8E73C
:10359000D82000205823002010B51E48007820B104
:1035A000012813D0022830D122E01A4800790128DE
:1035B0000BD10020174908710A2048804FF0007095
:1035C000FFF758FC0120134908701EE0114840889D
:1035D000052805DD0F484088401E0E49488006E05A
:1035E0004FF000701CF00EFB02200A4908700CE03E
:1035F0000848408828B107484088401E054948804F
:1036000002E000200349087000BF00BF12F042FC36
:1036100010BD00001000001010B503460C4600213C
:1036200005E0585CA04201D0002010BD491C914229
:10363000F7D30120F9E70000F0B53C2351243C22E8
:10364000512100208BE000EB800505EBC006484DC2
:1036500025F8162000EB800505EBC006444D05EB70
:1036600046056980002600EB800505EBC007404D4C
:1036700005EB4705AE804FF6FF7600EB800505EBC6
:10368000C0073B4D05EB4705EE80002600EB8005AB
:1036900005EBC007364D05EB47052E814FF6FF764B
:1036A00000EB800505EBC007314D05EB47056E814A
:1036B0004FF4A07600EB800505EBC0072C4D05EB21
:1036C0004705AE81242600EB800505EBC007284D99
:1036D00005EB4705EE81202600EB800505EBC007D2
:1036E000234D05EB47052E74252600EB800505EBE1
:1036F000C0071F4D05EB47056E82002600EB8005D5
:1037000005EBC0071A4D05EB4705AE82184D083D85
:1037100095F8A5506D1E85420CD100EB800505EB98
:10372000C006134D05EB4605AD8928351544AAB2F0
:10373000512112E000EB800505EBC0060C4D05EBB6
:1037400046056E8A00EB800505EBC007084D05EBCA
:103750004705ED8935440D44A9B2451CE8B2044D36
:10376000083D95F8A45085423FF76DAFF0BD0000CD
:1037700030150020F0B5654D6C5C00EB800505EB65
:10378000C006634D05EB860501EB810606EBC1061D
:1037900025F8162000EB800505EBC0065C4D05EB17
:1037A000860501EB810606EBC10605EB46056B803D
:1037B0004FF6FF7600EB800505EBC007544D05EB97
:1037C000870501EB810707EBC10705EB4705AE80D5
:1037D000002600EB800505EBC0074D4D05EB870586
:1037E00001EB810707EBC10705EB4705EE804FF6BC
:1037F000FF7600EB800505EBC007454D05EB87051F
:1038000001EB810707EBC10705EB47052E81002679
:1038100000EB800505EBC0073D4D05EB870501EB8F
:10382000810707EBC10705EB47056E811E2600EBFC
:10383000800505EBC007364D05EB870501EB8107D9
:1038400007EBC10705EB4705EE81182600EB800565
:1038500005EBC0072E4D05EB870501EB810707EB54
:10386000C10705EB47052E74002600EB800505EB2C
:10387000C007274D05EB870501EB810707EBC10763
:1038800005EB47056E8200EB800505EBC007204D78
:1038900005EB870501EB810707EBC10705EB470542
:1038A000AE82022600EB800505EBC007184D05EB44
:1038B000870501EB810707EBC10705EB4705EE82A2
:1038C00014B1012C20D10FE04C2600EB800505EB54
:1038D000C0070F4D05EB870501EB810707EBC1071B
:1038E00005EB4705AE810FE07E2600EB800505EB7A
:1038F000C007074D05EB870501EB810707EBC10703
:1039000005EB4705AE8100BF00BFF0BD8B14002062
:103910006A1100202DE9F04705460E46174600249F
:10392000B046B94600BF27E04B46424621462846EE
:10393000FFF720FF05EB850000EBC501124800EB07
:10394000810004EB840101EBC40100EB410081899B
:1039500005EB850000EBC5020B4800EB820004EB91
:10396000840202EBC40200EB4200C08A081A404401
:103970001FFA80F8601CC4B20348801E90F82F0321
:10398000A042D1DCBDE8F0876A11002030B50346C3
:103990000A46194C248B1C44A3B2174C248B1444A4
:1039A000A2B203F16004A3B2A2F13004A2B2124C9D
:1039B000A4F8FC32A4F8FE224FF6FF75A4F80053D9
:1039C0000025A4F802534FF6FF75A4F80453002510
:1039D000A4F806536625A4F808531E25A4F80A5334
:1039E000182584F80C530025A4F80E53A4F810539E
:1039F0000225A4F8125330BD681100202DE9F047CC
:103A00004FF493784FF06409464664250FF06EFB3F
:103A100007462A4631460020FFF77CFF3422194929
:103A200001F50270FCF7CCFB1648801EB0F81812A6
:103A3000B0F82002081A284485B2002419E02A466A
:103A400031462046FFF766FF04EB840000EBC4011B
:103A50000C4800EB8100C18904EB840000EBC40238
:103A6000084800EB8200C08A081A284485B2601C0E
:103A7000C4B2BC42E3DB64214FF49370FFF786FFCE
:103A8000BDE8F0876A110020F0B56E4D6C5CC0EBAC
:103A9000C00505EB40166C4D05EB460501EB8106B4
:103AA00006EBC10625F81620C0EBC00505EB401655
:103AB000654D05EB460501EB810606EBC10605EBFE
:103AC00046056B804FF6FF76C0EBC00505EB40174F
:103AD0005D4D05EB470501EB810707EBC10705EBE2
:103AE0004705AE800026C0EBC00505EB4017564DDC
:103AF00005EB470501EB810707EBC10705EB470520
:103B0000EE804FF6FF76C0EBC00505EB40174E4D3B
:103B100005EB470501EB810707EBC10705EB4705FF
:103B20002E810026C0EBC00505EB4017464D05EB86
:103B3000470501EB810707EBC10705EB47056E81E0
:103B40001E26C0EBC00505EB40173F4D05EB4705B2
:103B500001EB810707EBC10705EB4705EE8118264E
:103B6000C0EBC00505EB4017374D05EB470501EBF2
:103B7000810707EBC10705EB47052E740026C0EB54
:103B8000C00505EB4017304D05EB470501EB8107FC
:103B900007EBC10705EB47056E82C0EBC00505EBDF
:103BA0004017294D05EB470501EB810707EBC107DE
:103BB00005EB4705AE820226C0EBC00505EB4017BA
:103BC000214D05EB470501EB810707EBC10705EB2D
:103BD0004705EE8224B1012C12D0022C30D11FE017
:103BE0003626C0EBC00505EB4017174D05EB470522
:103BF00001EB810707EBC10705EB4705AE811FE02D
:103C00007E26C0EBC00505EB40170F4D05EB4705C1
:103C100001EB810707EBC10705EB4705AE810FE01C
:103C20006626C0EBC00505EB4017074D05EB4705C1
:103C300001EB810707EBC10705EB4705AE8100BF2C
:103C400000BFF0BDC0040010220000102DE9F047B5
:103C500005460E4617460024B046B94600BF27E089
:103C60004B46424621462846FFF70EFFC5EBC500EE
:103C700000EB4511124800EB410004EB840101EB1D
:103C8000C40100EB41008189C5EBC50000EB451282
:103C90000B4800EB420004EB840202EBC40200EB91
:103CA0004200C08A081A40441FFA80F8601CC4B25F
:103CB0000348801E90F8AB04A042D1DCBDE8F08739
:103CC0002200001030B503460A46194C248B1C44D0
:103CD000A3B2174C248B1444A2B203F16004A3B224
:103CE000A2F13004A2B2124CA4F87434A4F87624E1
:103CF0004FF6FF75A4F878540025A4F87A544FF6CF
:103D0000FF75A4F87C540025A4F87E546625A4F819
:103D100080541E25A4F88254182584F88454002564
:103D2000A4F88654A4F888540225A4F88A5430BD17
:103D3000200000102DE9F0474FF0E6084FF064092D
:103D4000E62664250FF0FEF907462A463146002094
:103D5000FFF77CFF4E22194901F54370FCF730FA5A
:103D60001648801EB0F81C13B0F82403081A284423
:103D700085B2002419E02A4631462046FFF766FF47
:103D8000C4EBC40000EB44110C4800EB4100C189B6
:103D9000C4EBC40000EB4412084800EB4200C08AA8
:103DA000081A284485B2601CC4B2BC42E3DB64211B
:103DB000E620FFF787FFBDE8F08700002200001033
:103DC000F0B5F0236924F0226921002077E000EBB0
:103DD000800505EBC0063D4D25F8162000EB80055B
:103DE00005EBC006394D05EB46056980002600EB62
:103DF000800505EBC007354D05EB4705AE804FF656
:103E0000FF7600EB800505EBC007304D05EB47055D
:103E1000EE80002600EB800505EBC0072B4D05EB7F
:103E200047052E814FF6FF7600EB800505EBC007B6
:103E3000264D05EB47056E814FF4A07600EB80051B
:103E400005EBC007214D05EB4705AE81402600EB91
:103E5000800505EBC0071D4D05EB4705EE812026CB
:103E600000EB800505EBC007184D05EB47052E74E8
:103E7000282600EB800505EBC007144D05EB470530
:103E80006E82002600EB800505EBC0070F4D05EBA9
:103E90004705AE8200EB800505EBC0060B4D05EB38
:103EA00046056E8A00EB800505EBC007074D05EB64
:103EB0004705ED8935440D44A9B2451CE8B2034DD0
:103EC000AD1F95F85450854281DCF0BD661F00207F
:103ED00030B54FF482724A2100200DE100EB8003DF
:103EE00003EBC004884B23F8142000EB800303EBA2
:103EF000C004854B03EB440359804FF6FF7400EB7D
:103F0000800303EBC005804B03EB45039C8000243A
:103F100000EB800303EBC0057B4B03EB4503DC8028
:103F20004FF6FF7400EB800303EBC005764B03EB09
:103F300045031C81002400EB800303EBC005724B9A
:103F400003EB45035C81962400EB800303EBC00583
:103F50006D4B03EB45039C811E2400EB800303EBB8
:103F6000C005694B03EB4503DC81182400EB80039B
:103F700003EBC005644B03EB45031C740A2400EB00
:103F8000800303EBC005604B03EB45035C82002418
:103F900000EB800303EBC0055B4B03EB45039C8206
:103FA000022400EB800303EBC005574B03EB4503F2
:103FB000DC8200EB800303EBC004534B33F8144066
:103FC00000EB800303EBC0054F4B03EB45039B89DC
:103FD000234424339CB24C4BD23303EB40135C801C
:103FE00000EB800303EBC004474B03EB44035C8806
:103FF000454BD23303EB40139C8000EB800303EB73
:10400000C004414B03EB44039C883F4BD23303EB8A
:104010004013DC8000EB800303EBC0043A4B03EB5E
:104020004403DC88384BD23303EB40131C816624F5
:10403000354BD23303EB40135C811824324BD2331F
:1040400003EB40139C7402242F4BD23303EB401339
:104050009C8200242C4BD23303EB4013DC820224DD
:10406000294BD23303EB40131C83274BD23303EB92
:1040700040139C7C244BD23303EB40139B8A1C449B
:10408000214BD23303EB40139D8A1F4BD23303EBFA
:1040900040139B7E03FB04541B4BD23303EB4013B2
:1040A0001B8B022505FB03439CB2174BD23303EB5A
:1040B00040139C812D24144BD23303EB4013DC813D
:1040C0004FF4DC74104BD23303EB40131C8200EB33
:1040D000800303EBC0040C4B03EB4403DC8900EBCF
:1040E000800303EBC005084B03EB45035B8A2344C5
:1040F0000B4499B2431CD8B2034B423B93F85D3258
:1041000083423FF7EBAE30BD660C0020F0B5BC4DEE
:104110006C5C00EB801505EB4505BA4E06EB4505DA
:1041200001EB810606EBC10625F8162000EB801591
:1041300005EB4505B34E06EB450501EB810606EBA5
:10414000C10605EB46056B804FF6FF7500EB801648
:1041500006EB4606AB4F07EB460601EB810707EB84
:10416000C10706EB4706B580002500EB801606EB7D
:104170004606A44F07EB460601EB810707EBC10794
:1041800006EB4706F5804FF6FF7500EB801606EB51
:1041900046069C4F07EB460601EB810707EBC1077C
:1041A00006EB47063581002500EB801606EB460638
:1041B000944F07EB460601EB810707EBC10706EBBF
:1041C000470675811C2500EB801606EB46068D4FD1
:1041D00007EB460601EB810707EBC10706EB470635
:1041E000F581182500EB801606EB4606854F07EB98
:1041F000460601EB810707EBC10706EB470635745E
:10420000002500EB801606EB46067E4F07EB4606C0
:1042100001EB810707EBC10706EB4706758200EB50
:10422000801606EB4606774F07EB460601EB810743
:1042300007EBC10706EB4706B582022500EB8016A7
:1042400006EB46066F4F07EB460601EB810707EBCF
:10425000C10706EB4706F582A51E102D18D2DFE830
:1042600005F0489798186D999A9B9CCCCC08ACBCEB
:104270002838342500EB801606EB4606614F07EB25
:10428000460601EB810707EBC10706EB4706B58140
:10429000B3E0C42500EB801606EB4606594F07EB4A
:1042A000460601EB810707EBC10706EB4706B58120
:1042B000A3E07C2500EB801606EB4606514F07EB8A
:1042C000460601EB810707EBC10706EB4706B58100
:1042D00093E0942500EB801606EB4606494F07EB6A
:1042E000460601EB810707EBC10706EB4706B581E0
:1042F00083E0454D95F88351052D0FD1C42500EB82
:10430000801606EB46063F4F07EB460601EB81079A
:1043100007EBC10706EB4706B5810EE04C2500EB25
:10432000801606EB4606374F07EB460601EB810782
:1043300007EBC10706EB4706B5815EE0324D95F805
:104340008351082D04D0304D95F88351092D0FD19C
:10435000C42500EB801606EB46062A4F07EB4606FF
:1043600001EB810707EBC10706EB4706B5810EE0BD
:104370004C2500EB801606EB4606224F07EB46065F
:1043800001EB810707EBC10706EB4706B58134E077
:1043900000BF00BF00BF00BF00BF4C2500EB801670
:1043A00006EB4606174F07EB460601EB810707EBC6
:1043B000C10706EB4706B5811FE0642500EB8016B8
:1043C00006EB46060F4F07EB460601EB810707EBAE
:1043D000C10706EB4706B5810FE07C2500EB801690
:1043E00006EB4606074F07EB460601EB810707EB96
:1043F000C10706EB4706B58100BF00BFF0BD000056
:104400005738001000270010003700102DE9F04742
:1044100005460E4617460024B046B94600BF27E0C1
:104420004B46424621462846FFF770FE05EB8510B5
:1044300000EB4000124901EB400004EB840101EB6A
:10444000C40100EB4100808905EB851101EB4101BE
:104450000B4A02EB410104EB840202EBC40201EBC4
:104460004201C98A401A40441FFA80F8601CC4B255
:10447000044890F87301A042D2DCBDE8F087000048
:104480000027001000370010F0B503460C46184610
:1044900021460022324DED8A0544A8B2304DED8A06
:1044A0000D44A9B22F4DA5F8F800F8356980A1F1A7
:1044B0003005A9B22B4DF835A880E98000F5A87524
:1044C000A8B2284DF8352881698118462146F83D63
:1044D00095F86F5145B3234D95F86F516D1EEAB2B3
:1044E00002EB821505EB45051D4E06EB4505ED8AF1
:1044F0000544A8B202EB821505EB450506EB450520
:104500006D8802EB821606EB4606154F07EB460652
:10451000F689354402EB821606EB460607EB4606A3
:10452000F68A3544A9B20FE00D4DB5F83A59054465
:10453000A8B20B4DB5F82669B5F832592E44084D8E
:10454000B5F83A593544A9B2064DF835A881E98144
:1045500000F5C075A8B2034DF83528826982F0BD18
:10456000002700100037001070B5382672251E3560
:104570002A4631460020FFF749FF4FF4C37219491C
:1045800001F62410FBF71CFE1648B0F83219B0F8FB
:104590003A09081A284485B2002419E02A4631460F
:1045A0002046FFF733FF04EB841000EB40000D4979
:1045B00001EB4000C08904EB841101EB4101094A81
:1045C00002EB4101C98A401A284485B2601CC4B27A
:1045D000054890F86F01A042E0DC72213820FFF717
:1045E00053FF70BD0027001000370010F0B5A14D3B
:1045F0006C5C00EB800505EBC0069E4DAD1C05EB29
:10460000860501EB810606EBC10625F8162000EBB6
:10461000800505EBC006974DAD1C05EB860501EB4B
:10462000810606EBC10605EB46056B80002864D1C8
:104630004FF6FF7600EB800505EBC0078D4DAD1CF6
:1046400005EB870501EB810707EBC10705EB470584
:10465000AE8040F2CF1600EB800505EBC007854D1C
:10466000AD1C05EB870501EB810707EBC10705EBE7
:104670004705EE804FF6FF7600EB800505EBC0079F
:104680007C4DAD1C05EB870501EB810707EBC107EE
:1046900005EB47052E8140F2CF1600EB800505EBB8
:1046A000C007744DAD1C05EB870501EB810707EBD7
:1046B000C10705EB47056E811E2600EB800505EB63
:1046C000C0076C4DAD1C05EB870501EB810707EBBF
:1046D000C10705EB4705EE81182600EB800505EBC9
:1046E000C007644DAD1C05EB870501EB810707EBA7
:1046F000C10705EB47052E7463E04FF6FF7600EB2C
:10470000800505EBC0075B4DAD1C05EB870501EB94
:10471000810707EBC10705EB4705AE804CF2186631
:1047200000EB800505EBC007524DAD1C05EB87057E
:1047300001EB810707EBC10705EB4705EE804FF65C
:10474000FF7600EB800505EBC0074A4DAD1C05EB7D
:10475000870501EB810707EBC10705EB47052E81B4
:104760004CF2186600EB800505EBC007414DAD1C0F
:1047700005EB870501EB810707EBC10705EB470553
:104780006E813C2600EB800505EBC007394DAD1C62
:1047900005EB870501EB810707EBC10705EB470533
:1047A000EE81302600EB800505EBC007314DAD1CD6
:1047B00005EB870501EB810707EBC10705EB470513
:1047C0002E74002600EB800505EBC007294DAD1CBB
:1047D00005EB870501EB810707EBC10705EB4705F3
:1047E0006E8200EB800505EBC007224DAD1C05EB8A
:1047F000870501EB810707EBC10705EB4705AE8293
:10480000022600EB800505EBC0071A4DAD1C05EB39
:10481000870501EB810707EBC10705EB4705EE8232
:1048200014B1012C24D111E04FF4C87600EB8005BF
:1048300005EBC0070F4DAD1C05EB870501EB8107AC
:1048400007EBC10705EB4705AE8111E04FF4C976D0
:1048500000EB800505EBC007064DAD1C05EB870599
:1048600001EB810707EBC10705EB4705AE8100BFF0
:1048700000BFF0BD883800102DE9F04100274FF04F
:10488000020800250226002434E0022633462A4688
:1048900021460020FFF7AAFE04EB840000EBC401D0
:1048A000184800EB4100C18904EB840000EBC4020E
:1048B000144800EB4200C08A081A304486B23346DE
:1048C0002A4621460120FFF791FE04EB840000EB0D
:1048D000C4010C4800EB4100818904EB840000EB2B
:1048E000C402084800EB4200C08A081A284485B276
:1048F000601CC4B20348801E90F87400A042C4DC5F
:10490000BDE8F0818A380010F0B56F4D6C5C00EBAB
:104910008016A5F2F16505EB460501EB810606EB75
:10492000C10625F8162000EB8016684D05EB4605FC
:1049300001EB810606EBC10605EB46056B804FF6E1
:10494000FF7600EB8017614D05EB470501EB810712
:1049500007EBC10705EB4705AE80002600EB80178B
:104960005A4D05EB470501EB810707EBC10705EB46
:104970004705EE804FF6FF7600EB8017534D05EBB1
:10498000470501EB810707EBC10705EB47052E81C2
:10499000002600EB80174D4D05EB470501EB810725
:1049A00007EBC10705EB47056E811C2600EB80175E
:1049B000464D05EB470501EB810707EBC10705EB0A
:1049C0004705EE81182600EB8017404D05EB4705A3
:1049D00001EB810707EBC10705EB47052E740026A5
:1049E00000EB8017394D05EB470501EB810707EB1D
:1049F000C10705EB47056E8200EB8017334D05EBD1
:104A0000470501EB810707EBC10705EB4705AE82C0
:104A1000022600EB80172D4D05EB470501EB8107C2
:104A200007EBC10705EB4705EE82052C4AD2DFE80C
:104A300004F003111F2D3B00362600EB8017234D99
:104A400005EB470501EB810707EBC10705EB4705C0
:104A5000AE8137E07E2600EB80171C4D05EB470545
:104A600001EB810707EBC10705EB4705AE8129E0A4
:104A7000662600EB8017154D05EB470501EB810716
:104A800007EBC10705EB4705AE811BE0662600EB8F
:104A900080170E4D05EB470501EB810707EBC107BA
:104AA00005EB4705AE810DE0662600EB8017074D4C
:104AB00005EB470501EB810707EBC10705EB470550
:104AC000AE8100BF00BFF0BD91400010A0390010C2
:104AD0002DE9F04705460E4617460024B046B94674
:104AE00000BF23E04B46424621462846FFF70CFF15
:104AF00005EB8511114800EB410004EB840101EB4B
:104B0000C40100EB4100818905EB85120B4800EBE5
:104B1000420004EB840202EBC40200EB4200C08AB4
:104B2000081A40441FFA80F8601CC4B2044890F888
:104B3000B808A042D6DCBDE8F0870000A03900101C
:104B40008838001070B59D2664251E352A463146EA
:104B50000020FFF7BDFF82221549A1F18200FBF77B
:104B60002FFB1448B0F8A410B0F8AC00081A284481
:104B700085B2002415E02A4631462046FFF7A8FFFB
:104B800004EB84110A4800EB4100C18904EB841254
:104B9000074800EB4200C08A081A284485B2601C0E
:104BA000C4B2044890F8B408A042E4DC70BD000030
:104BB000A03900108838001070B5584C235C00EB09
:104BC000800404EBC005554CA41D24F8151000EB1F
:104BD000800404EBC005514CA41D04EB4504628025
:104BE0004FF6FF7500EB800404EBC0064B4CA41D90
:104BF00004EB4604A5804AF2145500EB800404EB54
:104C0000C006464CA41D04EB4604E5804FF6FF7534
:104C100000EB800404EBC006404CA41D04EB4604EA
:104C200025814AF2145500EB800404EBC0063B4C8E
:104C3000A41D04EB46046581162500EB800404EBFB
:104C4000C006364CA41D04EB4604E581102500EB9C
:104C5000800404EBC006314CA41D04EB460425740B
:104C6000002500EB800404EBC0062C4CA41D04EBD3
:104C70004604658200EB800404EBC006274CA41DAB
:104C800004EB4604A582022500EB800404EBC00679
:104C9000224CA41D04EB4604E582052B3BD2DFE841
:104CA00003F0030E19242F00962500EB800404EB7B
:104CB000C0061A4CA41D04EB4604A5812BE09625E2
:104CC00000EB800404EBC006144CA41D04EB460466
:104CD000A58120E0962500EB800404EBC0060F4C74
:104CE000A41D04EB4604A58115E0FE2500EB80041D
:104CF00004EBC006094CA41D04EB4604A5810AE0A0
:104D0000682500EB800404EBC006044CA41D04EBF2
:104D10004604A58100BF00BF70BD00009640001092
:104D20002DE9F04100274FF4D578002546460024B0
:104D300019E0324629462046FFF73EFF04EB840087
:104D400000EBC4010B4800EB4100818904EB8400B7
:104D500000EBC402074800EB4200C08A081A28444E
:104D600085B2601CC4B2044890F8AC08A042E0DCF4
:104D7000BDE8F0819C40001088380010F0B5EE23AB
:104D8000AF24EE21AF2200208AE000EB800505EB86
:104D9000C006474D25F8161000EB800505EBC00650
:104DA000434D05EB46056A804FF6FF7600EB800524
:104DB00005EBC0073E4D05EB4705AE80002600EB36
:104DC000800505EBC0073A4D05EB4705EE804FF631
:104DD000FF7600EB800505EBC007354D05EB470579
:104DE0002E81002600EB800505EBC007304D05EB5A
:104DF00047056E81662600EB800505EBC0072C4D4C
:104E000005EB4705AE811E2600EB800505EBC007CC
:104E1000274D05EB4705EE81182600EB800505EBD5
:104E2000C007234D05EB47052E7400EB800505EB0D
:104E3000C0071F4D05EB47056E82002600EB80057D
:104E400005EBC0071A4D05EB4705AE82022600EBC5
:104E5000800505EBC007164D05EB4705EE82144DA6
:104E6000363D95F8F3506D1E854204D101F5B475B9
:104E7000A9B2AF2212E000EB800505EBC0060C4D95
:104E800005EB46056E8A00EB800505EBC007084D73
:104E900005EB4705ED8935441544AAB2451CE8B237
:104EA000034D363D95F8F25085423FF76EAFF0BDA9
:104EB0005A1A0020F0B540F25D13E5241A46E521A8
:104EC00000207EE000EB800505EBC006414D25F893
:104ED000162000EB800505EBC0063E4D05EB4605B0
:104EE00069804FF6FF7600EB800505EBC007394D72
:104EF00005EB4705AE80002600EB800505EBC007FB
:104F0000344D05EB4705EE804FF6FF7600EB80054C
:104F100005EBC0072F4D05EB47052E81002600EB62
:104F2000800505EBC0072B4D05EB47056E812A2652
:104F300000EB800505EBC007264D05EB4705AE816C
:104F40001E2600EB800505EBC007224D05EB47054B
:104F5000EE81182600EB800505EBC0071D4D05EB23
:104F600047052E74302600EB800505EBC007194D70
:104F700005EB47056E8200EB800505EBC007154D7C
:104F800005EB4705AE82022600EB800505EBC00766
:104F9000104D05EB4705EE8200EB800505EBC006E2
:104FA0000C4D05EB4605EE8900EB800505EBC007CF
:104FB000084D05EB47056D8A35440D44A9B2451CE3
:104FC000E8B2044DAD1F95F8245085423FF77AAF03
:104FD000F0BD00009E160020F0B5B34D6C5C00EBF8
:104FE000800505EBC006B04D2D1D05EBC60501EB98
:104FF000810606EBC10625F8162000EB800505EBBF
:10500000C006A94D2D1D05EBC60501EB810606EB7B
:10501000C10605EB46056B80002864D14FF6FF768C
:1050200000EB800505EBC0079F4D2D1D05EBC70567
:1050300001EB810707EBC10705EB4705AE8040F2A6
:10504000CF1600EB800505EBC007974D2D1D05EB36
:10505000C70501EB810707EBC10705EB4705EE80AC
:105060004FF6FF7600EB800505EBC0078E4D2D1D3A
:1050700005EBC70501EB810707EBC10705EB47050A
:105080002E8140F2CF1600EB800505EBC007864D60
:105090002D1D05EBC70501EB810707EBC10705EBEC
:1050A00047056E811E2600EB800505EBC0077E4D8F
:1050B0002D1D05EBC70501EB810707EBC10705EBCC
:1050C0004705EE81182600EB800505EBC007764DFD
:1050D0002D1D05EBC70501EB810707EBC10705EBAC
:1050E00047052E7463E04FF6FF7600EB800505EB75
:1050F000C0076D4D2D1D05EBC70501EB810707EBC3
:10510000C10705EB4705AE804CF2186600EB800541
:1051100005EBC007644D2D1D05EBC70501EB8107AD
:1051200007EBC10705EB4705EE804FF6FF7600EB76
:10513000800505EBC0075C4D2D1D05EBC70501EB98
:10514000810707EBC10705EB47052E814CF2186676
:1051500000EB800505EBC007534D2D1D05EBC70582
:1051600001EB810707EBC10705EB47056E813C2684
:1051700000EB800505EBC0074B4D2D1D05EBC7056A
:1051800001EB810707EBC10705EB4705EE813026F0
:1051900000EB800505EBC007434D2D1D05EBC70552
:1051A00001EB810707EBC10705EB47052E740026CD
:1051B00000EB800505EBC0073B4D2D1D05EBC7053A
:1051C00001EB810707EBC10705EB47056E8200EB9A
:1051D000800505EBC007344D2D1D05EBC70501EB20
:1051E000810707EBC10705EB4705AE82022600EBFE
:1051F000800505EBC0072C4D2D1D05EBC70501EB08
:10520000810707EBC10705EB4705EE8234B1012C9E
:1052100015D0022C24D0032C44D132E0EE2600EB32
:10522000800505EBC007204D2D1D05EBC70501EBE3
:10523000810707EBC10705EB4705AE8132E0B426D5
:1052400000EB800505EBC007174D2D1D05EBC705CD
:1052500001EB810707EBC10705EB4705AE8121E0B4
:105260009E2600EB800505EBC0070F4D2D1D05EBBD
:10527000C70501EB810707EBC10705EB4705AE81C9
:1052800010E0E62600EB800505EBC007064D2D1D5E
:1052900005EBC70501EB810707EBC10705EB4705E8
:1052A000AE8100BF00BFF0BD047200102DE9F041D7
:1052B00000274FF0020800250226002434E00226D1
:1052C00033462A4621460020FFF786FE04EB840081
:1052D00000EBC401184800EB4100C18904EB8400D5
:1052E00000EBC402144800EB4200C08A081A3044A4
:1052F00086B233462A4621460120FFF76DFE04EBB5
:10530000840000EBC4010C4800EB4100818904EBF0
:10531000840000EBC402084800EB4200C08A081A6F
:10532000284485B2601CC4B20348001F90F8E40012
:10533000A042C4DCBDE8F0810872001070B5584C82
:10534000235C00EB800404EBC005554C641D24F87D
:10535000151000EB800404EBC005514C641D04EBF8
:10536000450462804FF6FF7500EB800404EBC00635
:105370004B4C641D04EB4604A5804AF2145500EB27
:10538000800404EBC006464C641D04EB4604E58033
:105390004FF6FF7500EB800404EBC006404C641D23
:1053A00004EB460425814AF2145500EB800404EB1B
:1053B000C0063B4C641D04EB46046581162500EBDA
:1053C000800404EBC006364C641D04EB4604E58102
:1053D000102500EB800404EBC006314C641D04EB87
:1053E00046042574002500EB800404EBC0062C4C19
:1053F000641D04EB4604658200EB800404EBC006E8
:10540000274C641D04EB4604A582022500EB8004B2
:1054100004EBC006224C641D04EB4604E582052B18
:105420003BD2DFE803F0030E19242F00962500EB92
:10543000800404EBC0061A4C641D04EB4604A581ED
:105440002BE0962500EB800404EBC006144C641D91
:1054500004EB4604A58120E0962500EB800404EBD4
:10546000C0060F4C641D04EB4604A58115E0FE2523
:1054700000EB800404EBC006094C641D04EB4604F9
:10548000A5810AE0682500EB800404EBC006044C0B
:10549000641D04EB4604A58100BF00BF70BD000081
:1054A0007D7600102DE9F04100274FF4D5780025D6
:1054B0004646002419E0324629462046FFF73EFFC3
:1054C00004EB840000EBC4010B4800EB4100818930
:1054D00004EB840000EBC402074800EB4200C08AE2
:1054E000081A284485B2601CC4B2044890F8140518
:1054F000A042E0DCBDE8F08182760010047200106A
:10550000F0B56E4D6C5CC0EBC00505EB40166C4D04
:1055100005EB460501EB810606EBC10625F81620D2
:10552000C0EBC00505EB4016654D05EB460501EBEC
:10553000810606EBC10605EB46056B804FF6FF764C
:10554000C0EBC00505EB40175D4D05EB470501EBD2
:10555000810707EBC10705EB4705AE800026C0EBCE
:10556000C00505EB4017564D05EB470501EB8107DC
:1055700007EBC10705EB4705EE804FF6FF76C0EB62
:10558000C00505EB40174E4D05EB470501EB8107C4
:1055900007EBC10705EB47052E810026C0EBC005D0
:1055A00005EB4017464D05EB470501EB810707EB7F
:1055B000C10705EB47056E811E26C0EBC00505EB54
:1055C00040173F4D05EB470501EB810707EBC1078E
:1055D00005EB4705EE811826C0EBC00505EB40172B
:1055E000374D05EB470501EB810707EBC10705EBDD
:1055F00047052E740026C0EBC00505EB4017304D63
:1056000005EB470501EB810707EBC10705EB4705F4
:105610006E82C0EBC00505EB4017294D05EB470531
:1056200001EB810707EBC10705EB4705AE820226B8
:10563000C0EBC00505EB4017214D05EB470501EB1D
:10564000810707EBC10705EB4705EE8224B1012C6A
:1056500012D0022C30D11FE06626C0EBC00505EB4E
:105660004017174D05EB470501EB810707EBC10715
:1056700005EB4705AE811FE07826C0EBC00505EBC2
:1056800040170F4D05EB470501EB810707EBC107FD
:1056900005EB4705AE810FE07826C0EBC00505EBB2
:1056A0004017074D05EB470501EB810707EBC107E5
:1056B00005EB4705AE8100BF00BFF0BDD6750010F9
:1056C000B47300102DE9F04705460E461746002436
:1056D000B046B94600BF27E04B4642462146284621
:1056E000FFF70EFFC5EBC50000EB4511124800EBBC
:1056F000410004EB840101EBC40100EB410081890E
:10570000C5EBC50000EB45120B4800EB420004EB73
:10571000840202EBC40200EB4200C08A081A404433
:105720001FFA80F8601CC4B2044890F87804A042C4
:10573000D2DCBDE8F0870000B473001004720010E2
:105740002DE9F04740F299184FF096094746962602
:1057500000240025324639460020FFF7B3FF4E22D1
:105760003C49A1F14E00FAF72BFD3B4890F820058B
:1057700000286CD03848B0F87011B0F87801081AD9
:10578000304486B200BF19E0324639462046FFF762
:1057900099FFC4EBC40000EB44112E4800EB41001C
:1057A000C189C4EBC40000EB44122A4800EB42005C
:1057B000C08A081A304486B2601CC4B2264890F8E9
:1057C0002005A042E0DC244890F82005401EC0EBF4
:1057D000C00202EB40121F4800EB42014E2200F5CE
:1057E000EA70FAF7EDFC00252CE01B4890F8200544
:1057F000401EC0EBC00101EB4011164800EB410018
:10580000C189154890F82005401EC0EBC00202EB8C
:105810004012104800EB4200C08A091A05EB8500CF
:1058200000EBC5020D4800EB42004088084481B2FD
:1058300005EB850000EBC502084800EB4200418003
:10584000681CC5B2044890F87804A842CDDCBDE8D5
:10585000F0870000B4730010047200108875001007
:10586000F0B53C2351243C225121002077E000EB8D
:10587000800505EBC0063D4D25F8162000EB8005A0
:1058800005EBC006394D05EB46056980002600EBA7
:10589000800505EBC007354D05EB4705AE804FF69B
:1058A000FF7600EB800505EBC007304D05EB4705A3
:1058B000EE80002600EB800505EBC0072B4D05EBC5
:1058C00047052E814FF6FF7600EB800505EBC007FC
:1058D000264D05EB47056E814FF4A07600EB800561
:1058E00005EBC007214D05EB4705AE81242600EBF3
:1058F000800505EBC0071D4D05EB4705EE81202611
:1059000000EB800505EBC007184D05EB47052E742D
:10591000252600EB800505EBC007144D05EB470578
:105920006E82002600EB800505EBC0070F4D05EBEE
:105930004705AE8200EB800505EBC0060B4D05EB7D
:1059400046056E8A00EB800505EBC007074D05EBA9
:105950004705ED8935440D44A9B2451CE8B2034D15
:10596000083D95F88A50854281DCF0BDF81500208D
:10597000F0B5F423E524F421E52200207EE000EBDD
:10598000800505EBC006414D25F8161000EB80059B
:1059900005EBC0063D4D05EB46056A804FF6FF76E8
:1059A00000EB800505EBC007384D05EB4705AE80E1
:1059B000002600EB800505EBC007344D05EB4705DD
:1059C000EE804FF6FF7600EB800505EBC0072F4D0C
:1059D00005EB47052E81002600EB800505EBC0078F
:1059E0002A4D05EB47056E812A2600EB800505EB65
:1059F000C007264D05EB4705AE811E2600EB80054E
:105A000005EBC007214D05EB4705EE81182600EB9D
:105A1000800505EBC0071D4D05EB47052E743026AC
:105A200000EB800505EBC007184D05EB47056E82BE
:105A300000EB800505EBC007144D05EB4705AE8272
:105A4000022600EB800505EBC007104D05EB47056E
:105A5000EE8200EB800505EBC0060C4D05EB46051C
:105A6000AE8900EB800505EBC007084D05EB470547
:105A7000AD8A35440D44A9B2451CE8B2034D123D30
:105A800095F8A05085423FF77AAFF0BD960F002001
:105A9000F0B540F25D13E5241946E52200207EE0D2
:105AA00000EB800505EBC006414D25F8161000EB14
:105AB000800505EBC0063E4D05EB46056A804FF6B6
:105AC000FF7600EB800505EBC007394D05EB470578
:105AD000AE80002600EB800505EBC007344D05EBDA
