:020000040802F0
:10000000D0BC01209D01020883090408BDA5030896
:10001000B1050408911102082198050800000000AC
:10002000000000000000000000000000ED75040862
:1000300079BD020800000000B91A0408B3C504081D
:10004000B7010208B7010208B7010208B7010208A8
:10005000B7010208B7010208B7010208B701020898
:10006000B7010208B7010208B7010208B701020888
:10007000B7010208B7010208B7010208B701020878
:10008000B7010208B7010208B7010208B701020868
:10009000B7010208B7010208B7010208B701020858
:1000A000B7010208B7010208B7010208B701020848
:1000B00015E704081DE70408B7010208B7010208A4
:1000C000B7010208B7010208B7010208B701020828
:1000D000B70102083D480508B7010208B701020848
:1000E000B7010208B7010208B7010208B701020808
:1000F000B7010208B7010208B7010208B7010208F8
:10010000B701020825600408B7010208B701020818
:10011000B7010208B7010208B7010208B7010208D7
:10012000B7010208B7010208B7010208F1B30208DB
:10013000B7010208ADED0208B7010208B7010208D5
:10014000B7010208B7010208B7010208B7010208A7
:10015000B7010208B7010208B70102084D480508B7
:10016000B7010208B7010208B7010208B701020887
:10017000B7010208B10B0408B7010208B701020871
:10018000B7010208B7010208DFF80CD000F0BEFB8F
:10019000004800472B0B0608D0BC012006488047CA
:1001A00006480047FEE7FEE7FEE7FEE7FEE7FEE75C
:1001B000FEE7FEE7FEE7FEE745D0040889010208F6
:1001C00010B5431A934209D28318881803E010F837
:1001D000011D03F8011D521EF9D210BD40EA0103B2
:1001E0009B0703D009E008C9121F08C0042AFAD2ED
:1001F00003E011F8013B00F8013B521EF9D210BD9B
:10020000D2B201E000F8012B491EFBD27047002258
:10021000F6E710B513460A4604461946FFF7F0FF05
:10022000204610BD421E12F8013F002BFBD111F8F1
:10023000013B02F8013B002BF9D1704710B5044691
:1002400004E00B7800F8013B03B1491C521EF8D2C0
:10025000204610BD421C10F8011B0029FBD1801A5A
:10026000704710B5002200E0521C835C8C5CA342F6
:1002700001D1002BF8D1D8B2E1B2401A10BD30B58F
:1002800004460020034600E05B1C934203D2E05C7E
:10029000CD5C401BF8D030BD034611F8012B00F8AF
:1002A000012B002AF9D11846704730B505460020C9
:1002B000034600E05B1C934205D2EC5CC85C201A4C
:1002C00001D1002CF6D130BD2DE9FE4F81EA0304A7
:1002D00004F0004421F0004100944FF0000B23F0A3
:1002E000004350EA01045ED052EA03045BD0C3F33A
:1002F0000A54C1F30A552C44A4F2F3340194A0FB30
:100300000254C1F3130141F48011C3F3130343F406
:10031000801301FB024400FB034E840A970A44EA5F
:10032000815447EA8357A4FB076802958D0A05FBB1
:1003300007854FEA932C04FB0C542705029D4FEAD6
:10034000065847EA1637B5EB08056EEB070C870E23
:10035000920E47EA811742EA8312A7FB0201B6EB2D
:100360000B0164EB00042B0D43EA0C335E1844EBE5
:100370001C50DA465146E7FB0201C5F313044FEA6D
:100380000B3343EA14534FEA0432019C43EA060359
:10039000A4F10C040294009CCDE900B400F0A9F98A
:1003A00003B0BDE8F08F00200146F9E72DE9F04DDC
:1003B00081EA030404F0004B21F0004514464FF09D
:1003C000000A23F0004150EA050220D054EA01025D
:1003D0001DD0C5F30A570246C5F31303C1F313003A
:1003E000C1F30A5640F4801543F48013A7EB0608C6
:1003F000101BD64608F2FD3873EB050002D308F156
:10040000010801E092185B41B8F1000F03DA002007
:100410000146BDE8F08D00204FF480110646844669
:100420000EE0171B73EB050705D3121B63EB0503E7
:1004300006434CEA010C49084FEA300092185B4130
:1004400050EA0107EDD152EA030012D082EA04001B
:1004500083EA0501084305D0101BAB4106D20122F7
:10046000002306E000224FF0004302E06FF001029B
:1004700053101AEB06004CEB085110EB0A0041EB4D
:100480000B01BDE8F04D00F025B970B5C1F30A527B
:1004900001F000450024C1F3130140F2FF3341F4A1
:1004A00080119A4201DA002070BD40F233439A4233
:1004B000A2F2334203DC524200F0C5F800E0904063
:1004C0002C43F1D0404270BDC1F30A5210B5C1F3C4
:1004D000130140F2FF3341F480119A4201DA002007
:1004E00010BD40F233439A42A2F2334203DC52423F
:1004F00000F0A9F810BD904010BD00F0004230F0AF
:1005000000400AD0C10D01F56071C0F3160042EA47
:100510000151C2084007114370470020014670474F
:1005200030B5041E71F1000404DB4FF0004440427A
:1005300064EB0101141E73F1000405DB1C464FF04F
:100540000043524263EB04038B4208BF824230BD3A
:1005500030B5041E71F1000404DB4FF0004440424A
:1005600064EB0101141E73F1000405DB1C464FF01F
:100570000043524263EB0403994208BF904230BDEE
:1005800001F0004330B421F0004150EA010206D0EE
:100590000A0DA2F56072C1F31301002A02DC30BC1F
:1005A00000207047440F44EAC104C100E01830BC89
:1005B00000EBC25000F057B830B50B4601460020A2
:1005C0002022012409E021FA02F59D4205D303FA15
:1005D00002F5491B04FA02F52844151EA2F1010296
:1005E000F1DC30BD2DE9F05F0546002092469B46C8
:1005F00088460646814640241BE028464146474639
:10060000224600F020F853465A46C01A914110D3B2
:1006100011461846224600F08BF92D1A67EB0108A7
:100620004F4622460120002100F082F917EB000915
:100630004E41201EA4F10104DFDC484631462A4623
:100640004346BDE8F09F202A04DB203A21FA02F05D
:100650000021704721FA02F3D040C2F120029140FC
:100660000843194670470029A8BF7047401C49003D
:1006700008BF20F00100704710B4B0FA80FC00FA07
:100680000CF050EA010404BF10BC704749B1CCF132
:10069000200421FA04F411FA0CF118BF01212143BE
:1006A0000843A3EB0C01CB1D4FEA00614FEA102079
:1006B00042BF002010BC704700EBC350104400291B
:1006C000A4BF10BC7047401C490008BF20F00100C7
:1006D00010BC704710B5141E73F1000408DA401CFA
:1006E00041F1000192185B411A4301D120F0010051
:1006F00010BD2DE9F04D92469B4611B1B1FA81F241
:1007000002E0B0FA80F22032904600F011F904467F
:100710000F4640EA0A0041EA0B0153465A46084395
:1007200013D0114653EA010019D0C8F140025046D7
:10073000FFF789FF05460E4650465946424600F0EF
:10074000F7F8084305D0012004E020463946BDE80B
:10075000F08D0020054346EAE0762C4337430A98A3
:100760006305E40AA0EB08000022FD0A44EA4754AE
:100770000A3002D500200146E9E701051019694158
:10078000DDE9084500196941BDE8F04DA2E72DE912
:10079000FE4F804681EA0300C00F0C46009021F016
:1007A000004123F00045B8EB0200A94105D24046C4
:1007B000214690461C460B46024623F0004010435B
:1007C00047D0270DC7F30A00C3F30A510290401A1D
:1007D000019040286BDAC3F3130040F4801B0098AB
:1007E000924620B10023D2EB030A63EB0B0B019876
:1007F0005946C0F14002504600F09AF806460D46B0
:1008000050465946019A00F0A2F810EB08006141E9
:10081000002487EA115284EAE7731A4340D0009A11
:1008200062B3019A012A4FEA075215DC001B61EB03
:1008300002014FF0004202EA0752CDE90042001CDB
:1008400041F5801132462B46FFF753FF03B0BDE858
:10085000F08F40462146F9E7001B61EB0201001CC6
:1008600041F5801300185B412018A2F5001747EBF3
:10087000030140EAD570B6196D4111E06D084FEAE9
:10088000360645EAC0754FEA0752001B61EB0201CC
:10089000001C41F5801149084FEA30000019514110
:1008A00032462B4603B0BDE8F04FFFF713BF009868
:1008B000012240000023D0EB020263EBE0730098BA
:1008C00021464FEAE074B8EB000061EB0401E9E770
:1008D00083F000435BE781F0004158E7C1F30A521F
:1008E000C1F3130140F2FF3341F480119A4202DA5E
:1008F00000200146704740F233439A42A2F233424D
:1009000002DC5242FFF79FBE00F012B8064C074DC2
:1009100006E0E06840F0010394E8070098471034CF
:10092000AC42F6D3FFF734FC24E6060864E606087A
:10093000202A04DB203A00FA02F10020704791409F
:10094000C2F1200320FA03F3194390407047202A94
:1009500006DBCB17203A41FA02F043EAE07306E0E7
:1009600041FA02F3D040C2F12002914008431946F7
:10097000704770B58C1810F8015B15F0070301D1B2
:1009800010F8013B2A1106D110F8012B03E010F8F2
:10099000016B01F8016B5B1EF9D12B0705D4002315
:1009A000521E0DD401F8013BFAE710F8013BCB1AB7
:1009B000921C03E013F8015B01F8015B521EF9D5AC
:1009C000A142D8D3002070BD10B52DED0A8BF0EEFA
:1009D000408AB0EE609A18F0F1FFB0EE408A18F04D
:1009E000D5FCF0EE409A9FED2A0AB0EE40AAB7EE91
:1009F000000AF0EE40AA18EE100AFFF77EFD41EC67
:100A00001C0BB0EE4C0AF0EE6C0A38F07BFFB0EE37
:100A100040BAF0EE60BA9FED1F0B53EC102B51EC77
:100A20001B0BFFF77DFD03D2B7EE000AB0EE408A44
:100A300089EE880AF7EE000A20EE200A79EE680AAD
:100A400020EE200AB0EE40AA00BF18EE100AFFF711
:100A500054FD41EC1C0BB0EE4C0AF0EE6C0A38F081
:100A600051FFB0EE40BAF0EE60BA9FED0A0B53ECC6
:100A7000102B51EC1B0BFFF76BFD02D307A038F0D6
:100A800031FF00BFB0EE4A0ABDEC0A8B10BD00007A
:100A900000000000000000E0E2361A3FD4ADCABCFE
:100AA000B1EABEE0B3FDC1E3B4EDCEF3A3A10D0AFC
:100AB000000000002DE9F04705460E46144618F0E8
:100AC0006FFC074619F0A8FC804618F031F9814602
:100AD00025B1012D10D0022D4ED12DE017B1012FDF
:100AE00008D106E03046A0473046A0473046A04730
:100AF00000E000BF00BF40E0B8F1000F09D0B8F13E
:100B0000010F07D0B8F1020F07D0B8F1030F10D1D1
:100B100008E00FE03046A0470CE03046A0473046E2
:100B2000A04707E03046A0473046A0473046A047E0
:100B300000E000BF00BF20E0B9F1000F09D0B9F11B
:100B4000010F07D0B9F1020F07D0B9F1030F10D18F
:100B500008E00FE03046A0470CE03046A0473046A2
:100B6000A04707E03046A0473046A0473046A047A0
:100B700000E000BF00BF00E000BF00BFBDE8F0879D
:100B800001460148405C7047EA0400200246FF200D
:100B9000002107E0074B5B5C934201D1084607E068
:100BA0004B1CD9B2034B9B1E93F8FE308B42F1DCF9
:100BB00000BF7047EA04002010B50446062C26D278
:100BC000DFE804F0251009171E03124A0121084628
:100BD00027F03AFD1CE00F4A121D0121084627F0BC
:100BE00033FD15E00B4A08320121084627F02CFDA1
:100BF0000EE0084A0C320121084627F025FD07E0E7
:100C0000044A10320121084627F01EFD00E000BF13
:100C100000BF10BD087706082DE9F04107460C46D5
:100C200015461E46302038F0FDFD384638F000FEEF
:100C3000312038F0F7FD381238F0FAFD342038F062
:100C4000F1FD204638F0F4FD352038F0EBFD2012A0
:100C500038F0EEFD322038F0E5FD284638F0E8FDAA
:100C6000332038F0DFFD281238F0E2FD362038F06E
:100C7000D9FD304638F0DCFD372038F0D3FD301296
:100C800038F0D6FD22F056FDBDE8F08107201E4960
:100C900081F8C000052081F8C10000208870012182
:100CA0001948C17002210171032141710421817130
:100CB0000521C17106210172144800681249C1F86A
:100CC000C400124841681048C0F8C8100F48816835
:100CD0000D48C0F8CC100D48C1680B48C0F8D010C2
:100CE0000A4801690848C0F8D41008484169064814
:100CF000C0F8D810054881690348C0F8DC1004A08A
:100D00000149C1F8E00070479C13002018790608DB
:100D1000B8DFBCB6B2CECAFD00000000FF20064915
:100D20004870002081F8E40081F8E50000210248C5
:100D300080F8E610704700009C13002010B51AF0F0
:100D40008BFA01281BD118F0D9FCB0F5802F03D005
:100D5000B0F5801F12D108E001200A4981F8E500B2
:100D60000121084880F8E61008E00120054981F8D3
:100D7000E5000021034880F8E61000BF00BF00F046
:100D8000FDF810BD9C13002010B5284890F8E50030
:100D900001284AD1254890F8E600012842D123488D
:100DA0000178801C405C07283BD2DFE800F004118A
:100DB0001E22262A3700012027F038FC1F2027F0AA
:100DC00029FC142027F02CFC152027F017FC28E024
:100DD000012027F02BFC1F2027F01CFC132027F0FC
:100DE0001FFC152027F00AFC1BE0112027F006FC51
:100DF00017E0122027F002FC13E0102027F0FEFB82
:100E00000FE0012027F012FC1F2027F003FC232015
:100E100027F006FC152027F0F1FB02E01CF0F6F8A5
:100E200000BF02E0082027F0E9FB10BD9C13002062
:100E300010B53D4890F8E400012874D13A48407854
:100E4000FF284ED03848407800EB800101EBC0010C
:100E500035480A3000EB410001893348407800EB07
:100E6000800202EBC00230480A3000EB4200818071
:100E70002D48407800EB800101EBC0012A480A3080
:100E800000EB410041892848407800EB800202EBEA
:100E9000C00225480A3000EB4200C1802249487850
:100EA00012F074FD4FF6FF711F48007800EB8002CE
:100EB00002EBC0021C480A3000EB420081804FF672
:100EC000E0211948007800EB800202EBC0021648CE
:100ED0000A3000EB4200C1801349087812F056FD39
:100EE0001DE04FF6FF711048007800EB800202EB26
:100EF000C0020D480A3000EB420081804FF6E0212D
:100F00000948007800EB800202EBC00206480A3074
:100F100000EB4200C1800449087812F037FD024816
:100F200000780149487010BD9C1300201CB50020BA
:100F3000114981F8E40001208DF80000084690F87E
:100F4000C1008DF8010002208DF80200084690F8DB
:100F5000C0008DF803000846019068461BF0D8F9E0
:100F60000548007804494978884203D001200249A5
:100F700081F8E4001CBD00009C13002010B5002483
:100F800018F06CFD0446002C0FDD084890F8C000F6
:100F9000A0420ADB0120054981F8E5000121034850
:100FA00080F8E610601E0149087010BD9C130020F7
:100FB0000421024A1172114608607047D8AB002024
:100FC00000B589B045F07AF801A83DF05FFBDDE996
:100FD0000101CDE904019DF8130000909DF8123045
:100FE000BDF810201EA106A845F0BCFB06A802F023
:100FF000A5F9002831D11EA000234FF6FF72009002
:101000001F4801881F48008813F09EFC20F094FCC4
:101010008DF80C0022F056F98DF80D0022F034FA0C
:101020008DF80E009DF80C0080B99DF80D0068B990
:101030009DF80E0050B914A000231A4600901048E5
:1010400001881048008813F07FFC06E0134A012154
:10105000084627F0F9FA20F0DBFD09B000BD0000DA
:1010600025303464253032642530326400000000BD
:10107000D5FDD4DAD7D4B6AFB1B8B7DD2E2E2E0059
:101080000600002004000020202020202020202016
:10109000202020202020202000000000C06B060817
:1010A00010B539F021FD39F029FB39F0A6FC39F0F3
:1010B000EFFB39F087FC39F0B5FC39F03BFB39F038
:1010C00059FD39F0F1FB39F0C7FB39F01FFB10BDBA
:1010D00010B522480078002836D0012802D0022816
:1010E00033D110E01E480088401C1D490880084686
:1010F00000881C490988884204DB00F039F8022086
:101100001649087027E016480088401C14490880DA
:101110000846008814490988884214DB00201049D9
:1011200008801248008801280ADD10480088401E07
:101130000E49088001200949087000F021F802E0FA
:1011400000200649087006E005E000F011F80020D4
:101150000249087000BF00BF10BD00004000002021
:1011600044000020480000204600002042000020EB
:1011700010B54FF0004002F07FFD20F0A7F810BD41
:1011800010B54FF0004027F031FA20F09FF810BD65
:1011900000BFFEE738B504460020009017F0FCFDC4
:1011A000054694FBF5F005FB1040C0B28DF8000039
:1011B00094FBF5F0401CC0B28DF80100BDF80010A2
:1011C000084638BD2DE9F047054617F0E5FD07460E
:1011D0000026B046B146002028706870012F07DA5B
:1011E000304A0121084627F02FFA0020BDE8F08799
:1011F000012017F0B9FD064600244EE004EBC402BE
:10120000294901EB420106EBC60288180A22002197
:1012100045F0D1FA8046611C01EBC102224901EB85
:10122000420106EBC60288180A22002145F0C3FAE3
:1012300081464846B8F1000101DB0A4600E04A4217
:10124000002801DB034600E043429A4223DB2C7076
:101250006E70164890F8330320B1012809D0022897
:1012600015D10DE00F4A121D0121084627F0ECF9B7
:101270000EE00C4A08320121084627F0E5F907E0A4
:10128000084A0C320121084627F0DEF900E000BFD1
:1012900000BF0020AAE7601CC4B2781EA042ADDCEB
:1012A0000120A3E77477060816120020D80F00204B
:1012B00010B50446012C01DB0A2C06DD044A01218D
:1012C000084627F0C1F9002010BD0120FCE700000E
:1012D00070770608594991F8331321B1012907D0D5
:1012E00002290FD109E056A1544AC2F828130AE096
:1012F00059A1524AC2F8281305E05DA14F4AC2F82D
:10130000281300E000BF00BF02214C4A82F82F13CF
:10131000002182F823130122484981F824235A49E5
:101320000968464AC2F81813114691F8331321B1DF
:10133000012912D002295CD135E0404991F83013DF
:1013400029B951494A683D49C1F81C2304E04E4976
:101350008A683A49C1F81C234CE0384991F83113A6
:1013600031B101290AD002290ED0032918D111E088
:101370004549CA683149C1F81C2312E042490A694B
:101380002E49C1F81C230CE03F494A692B49C1F89A
:101390001C2306E03C498A692849C1F81C2300E067
:1013A00000BF00BF26E0254991F8321331B1012971
:1013B0000AD002290ED0032918D111E03249CA6897
:1013C0001E49C1F81C2312E02F490A691B49C1F8C4
:1013D0001C230CE02C494A691849C1F81C2306E07B
:1013E00029498A691549C1F81C2300E000BF00BFE4
:1013F00000E000BF00BF0121104A82F82113002243
:101400000E4981F82223002015E0002200EB800124
:1014100001EBC0030949891C01EB83014A7600EB0B
:10142000800101EBC0030549891C01EB830181F8B0
:101430003320411CC8B20A28E7DB7047D80F0020D0
:10144000B8BABAC9CDA8B5C0207C20B1EAB6A8B256
:10145000CECAFDC9E8D6C300CEBBD2C6CDA8B5C0A2
:10146000207C20B1EAB6A8B2CECAFDC9E8D6C30036
:10147000B1E4D0CECDA8B5C0207C20B1EAB6A8B2E8
:10148000CECAFDC9E8D6C3005477060870B517F078
:1014900083FC04460C4805780078401C0A49087013
:1014A0000846017890F82F03401E10FB04F091FBD2
:1014B000F0F200FB12100449087008460078A842B8
:1014C00001D1FF20487070BDD80F002010B5FF205B
:1014D00011494870002081F82503012081F82C0370
:1014E000002081F82D0300210B4880F82E1317F0FF
:1014F00057FF094981F8300318F08EFF064981F83B
:10150000310317F015FC044981F8320317F07AFC17
:10151000014981F8330310BDD80F0020F8B56548A4
:1015200005782846FFF736FE009019F095FE012851
:1015300070D118F0E3F8B0F5802F09D0B0F5801F16
:1015400073D0B0F1805F67D0B0F1005F6CD194E0F0
:1015500018F0E8FA0446201E02D0022862D100E00A
:10156000F8BD544890F8340350BB18F0D7FA067809
:101570003046FFF79DFED0B14E4890F81503A0B954
:1015800018F0CCFA4B49066891F8200301F2F222D8
:1015900031463FF01BFE17F0FFFB064601F032FF1D
:1015A0000120444981F8350300E000BF00BF01205D
:1015B000404981F82D0300213E4880F82E13CFE7E3
:1015C0009DF8000000EB800101EBC0013948801C50
:1015D00000EB81009DF8011001EB810202EBC101DB
:1015E00000EB4100407EC0B918F098FA9DF8001059
:1015F00001EBC103304901EB43019DF8013003EBDE
:10160000C303CA182B49066891F8200331463FF0FE
:10161000DDFD03E04CE008E03DE000BF00BF00F06E
:101620007BFB00E000BF00BF41E018F07BFA0446FE
:10163000201E02D003281DD10BE0082026F0DEFF7B
:1016400001201C4981F82D0300211A4880F82E132F
:1016500011E0184890F8340320B90120154981F8A9
:10166000250302E0FF20134948700120114981F849
:101670002C0300E000BF00BF19E017F0DFFB0646B7
:1016800026F0BCFF01200B4981F82D0301210948F8
:1016900080F82E130BE0082026F0B0FF012005494A
:1016A00081F82D030021034880F82E1300BF00BFEE
:1016B00000BF55E7D80F00201612002008B50C48CF
:1016C00090F82D03012810D1094890F82E03012825
:1016D0000BD16846FFF776FD28B9072026F08EFF6C
:1016E00020F096FA08BD00F021FB00BFFAE70000E9
:1016F000D80F002010B5124890F8250301281DD1FD
:1017000000200F4981F82503084690F8340318B9E2
:10171000012000F0ABFA0DE009484078FF2804D022
:1017200007484178002000F077FB05480178012048
:1017300000F072FB024800780149487010BD0000BB
:10174000D80F0020FEB5002417F026FB0546002622
:1017500019F082FD012833D117F0D0FF04462D483F
:1017600090F8340388B9B4F5003F29D10126002050
:1017700000F07CFA0120274981F8250381F8340321
:1017800000200870FF2048701AE022490878FFF70F
:1017900001FD0090B4F5002F12D19DF8000078B93A
:1017A00001261C480178002000F036FB0120194971
:1017B00081F82503002081F834030870FF20487069
:1017C000012E00D1FEBD01208DF804008DF80550DA
:1017D000104890F82F03401EC0B28DF806009DF807
:1017E00005009DF8061010FB01F0C0B28DF807004F
:1017F0000848029001A81AF08BFD064800780549B8
:101800004978884203D00120024981F8250300BFAE
:10181000D8E70000D80F002038B518F073F9044657
:10182000A74805782846FFF7B5FC009021F06AFF2D
:1018300040F2CB2020804FF4CD70608041F6FC4018
:10184000A0809F4890F8340320B99D48B0F8060363
:10185000E08013E09DF8000000EB800101EBC00187
:101860009748801C00EB81009DF8011001EB81027C
:1018700002EBC10100EB41004089E0804FF6FF70B0
:10188000A08240F2CF10E08201202072A0728C482A
:1018900090F8340380B98A48B0F8FC12B0F812030B
:1018A0000844401CA0818648B0F8FE12B0F812032C
:1018B0000844401CE08150E09DF8000000EB8001EE
:1018C00001EBC0017E48801C00EB81009DF80110F7
:1018D00001EB810202EBC10130F811109DF800000C
:1018E00000EB800202EBC0027548801C00EB820016
:1018F0009DF8012002EB820303EBC20200EB4200E1
:10190000C08A0844401CA0819DF8000000EB8001C3
:1019100001EBC0016A48801C00EB81009DF80110BA
:1019200001EB810202EBC10100EB410041889DF80F
:10193000000000EB800202EBC0026148801C00EB5B
:1019400082009DF8012002EB820303EBC20200EB50
:101950004200C08A0844401CE0810820207660765E
:10196000574890F8340398B95548B0F80813B0F8C0
:101970001203022202FB1010801E20825048B0F891
:101980000A13B0F8120302FB1010801E608255E0AB
:101990009DF8000000EB800101EBC0014848801C6D
:1019A00000EB81009DF8011001EB810202EBC10107
:1019B00000EB410081899DF8000000EB800202EB02
:1019C000C0023F48801C00EB82009DF8012002EB22
:1019D000820303EBC20200EB4200C08A022202FB38
:1019E0001010801E20829DF8000000EB800101EBAA
:1019F000C0013348801C00EB81009DF8011001EB11
:101A0000810202EBC10100EB4100C1899DF8000099
:101A100000EB800202EBC0022948801C00EB820030
:101A20009DF8012002EB820303EBC20200EB4200AF
:101A3000C08A022202FB1010801E60822148E061F1
:101A40001F4890F8340350B91D4890F8150384F8E6
:101A500020001B4890F80C0384F8220029E09DF830
:101A6000000000EB800101EBC0011548801C00EB79
:101A700081009DF8011001EB810202EBC10100EB36
:101A80004100407E84F820009DF8000000EB8001BA
:101A900001EBC0010A48801C00EB81009DF8011099
:101AA00001EB810202EBC10100EB4100007C84F8F4
:101AB0002200002084F8230020461AF063FD38BD80
:101AC000D80F0020F81200202DE9F0412DED028BF7
:101AD0000024002500269FED600AB0EE408A012711
:101AE0005E4991F8330341F0D9FC0446022C01DB36
:101AF0000B2C00DD0224601EC4B2584890F8350358
:101B000028B9574A214608203FF060FB02E017F051
:101B100043F90446002594E0002017F025F9064615
:101B200005EBC5014E48B43800EB410006EBC60199
:101B30004218394608203FF049FB781CC7B2474895
:101B400090F8350300287AD1012017F00DF90646E8
:101B50006A1CD1B2414A92F8330341F0BFFCB0EEA7
:101B6000408A3E4890F8330320B101280DD0022866
:101B700053D12EE0394890F8300328B99FED390A47
:101B8000C8EE000AB0EE608A48E0344890F83103AD
:101B900030B1012805D002280AD0032816D10EE062
:101BA00015E0B2EE040AC8EE000AB0EE608A0EE05C
:101BB0009FED2D0AC8EE000AB0EE608A07E09FEDA7
:101BC000290AC8EE000AB0EE608A00E000BF00BF3C
:101BD00024E0224890F8320330B1012805D00228D1
:101BE0000AD0032816D10EE015E0B2EE040AC8EEC2
:101BF000000AB0EE608A0EE09FED1B0AC8EE000AF4
:101C0000B0EE608A07E09FED170AC8EE000AB0EE5A
:101C1000608A00E000BF00BF00E000BF00BF05EB2E
:101C2000C5010F48B43800EB410006EBC60142186D
:101C3000BDEEC80A10EE101A08203FF0C7FA681C63
:101C4000C5B2A542FFF668AF0020044981F835030C
:101C5000BDEC028BBDE8F08100000000D80F002031
:101C6000CA12002000007A440000C84210B50446A1
:101C700054B1012C12D100210A48A0F800134FF6EC
:101C8000E021A0F8021309E00648B0F80413A0F818
:101C90000013B0F80613A0F8021300BF00BF27F02E
:101CA0006DF810BDD80F002010B518F049F80446A3
:101CB0000D4890F82C03012815D100200A4981F81D
:101CC0002C030C2020704FF6FF70608040F2CF1084
:101CD000A0800648D0F850112161D0F80C11616144
:101CE000204626F081FE10BDD80F00208CB00608DB
:101CF00010B517F051F804460648017890F82F0304
:101D0000401E10FB04F0814202DB002001490870F4
:101D100010BD0000D80F002010B5FFF7B7FB012061
:101D2000014981F82C0310BDD80F00202DE9F041A6
:101D300000260024002717F02FF80646012017F090
:101D400013F80746002558E005EBC5022F4901EBC3
:101D5000420107EBC70288180A22002144F02BFD3C
:101D600004462B4890F8330320B101280AD00228FA
:101D70003CD121E0264890F8300310B94FF47A7036
:101D8000444334E0224890F8310330B1012805D0B3
:101D9000022807D003280CD107E00BE004EB8400F5
:101DA000440007E06420444304E04FF47A70444365
:101DB00000E000BF00BF1AE0154890F8320330B1D0
:101DC000012805D0022807D003280CD107E00BE03A
:101DD00004EB8400440007E06420444304E04FF433
:101DE0007A70444300E000BF00BF00E000BF00BFC6
:101DF000084840F82540681CC5B2B542A4DB16F07F
:101E0000CBFF0449091F0870BDE8F08116120020BD
:101E1000D80F00201413002038B504460D4628467C
:101E2000FFF7B8F900904CB3012C70D100219DF858
:101E3000000000EB800202EBC002394800EB820098
:101E40009DF8012002EB820303EBC20200EB42008B
:101E500081804FF6E0219DF8000000EB800202EB4C
:101E6000C0022F4800EB82009DF8012002EB8203A4
:101E700003EBC20200EB4200C18048E09DF8000085
:101E800000EB800101EBC001254800EB81009DF8CB
:101E9000011001EB810202EBC10100EB410001895D
:101EA0009DF8000000EB800202EBC0021C4800EB32
:101EB00082009DF8012002EB820303EBC20200EBDB
:101EC000420081809DF8000000EB800101EBC00121
:101ED000134800EB81009DF8011001EB810202EB39
:101EE000C10100EB410041899DF8000000EB800238
:101EF00002EBC0020A4800EB82009DF8012002EBD1
:101F0000820303EBC20200EB4200C18000BF00BFAE
:101F10009DF801109DF8000026F00CFE38BD000071
:101F2000DA0F002038B504460020009016F060FF5C
:101F3000054694FBF5F005FB1040C0B28DF800009B
:101F400094FBF5F0401CC0B28DF80100BDF8001004
:101F5000084638BD2DE9F047054616F049FF814691
:101F600000260027B046002028706870B9F1010FE4
:101F700007DA5F4A0121084626F066FB0020BDE82B
:101F8000F087012016F01CFF064600244FE004EB0A
:101F9000C40101EB41025749114406EBC6028818FF
:101FA0000A22002144F007FC0746611C01EBC10135
:101FB00001EB41024F49114406EBC60288180A2280
:101FC000002144F0F8FB80464046391E01DB0A46FA
:101FD00000E04A42002801DB034600E043429A4207
:101FE00023DB2C706E70444890F8AF0420B10128B8
:101FF00009D0022815D10DE03D4A121D01210846E5
:1020000026F022FB0EE03A4A0C320221012026F093
:102010001BFB07E0364A18320221012026F014FB90
:1020200000E000BF00BF0020A9E7601CC4B2A9F116
:102030000100A042ABDC022016F0C2FE06460024DE
:102040004FE004EBC40101EB41022A49114406EBC5
:10205000C60288180A22002144F0ADFB0746611C25
:1020600001EBC10101EB41022249114406EBC6021A
:1020700088180A22002144F09EFB80464046391E03
:1020800001DB0A4600E04A42002801DB034600E08B
:1020900043429A4223DB2C706E70174890F8AF04CD
:1020A00020B1012809D0022815D10DE0104A0832CC
:1020B0000121084626F0C8FA0EE00D4A143201212B
:1020C000084626F0C1FA07E0094A203201210846F5
:1020D00026F0BAFA00E000BF00BF00204FE7601C06
:1020E000C4B2A9F10100A042ABDC012047E7000027
:1020F000647606087C0300102000001010B504462A
:10210000012C01DB0A2C06DD044A0121084626F0D9
:102110009BFA002010BD0120FCE700006076060855
:102120002DE9F041804616F063FE0546012D01DBE6
:102130000A2D02DD0020BDE8F081022016F040FEED
:1021400006460027FF2E01D10020F4E700241DE001
:1021500004EBC40101EB41020E49114406EBC60237
:1021600088180A22002144F026FB07467F4204EB30
:10217000C40000EB40010748084406EBC6014218C2
:10218000394608203FF022F8601CC4B2AC42DFDBC5
:102190000120D0E77C030010784991F8AF1421B1F9
:1021A000012907D002290FD109E075A1734AC2F8AD
:1021B000A4140AE076A1714AC2F8A41405E078A13B
:1021C0006E4AC2F8A41400E000BF00BF03216B4AAE
:1021D00082F8AB14002182F8A0140122674981F82B
:1021E000A124022281F8A22471490968634AC2F835
:1021F0009014114691F8AF1421B1012917D002298A
:1022000070D14EE05D4991F8AC1429B968494A682B
:102210005A49C1F8942404E065498A685749C1F8CD
:1022200094246349CA685549C1F8982475E0534914
:1022300091F8AD1431B101290FD0022918D003292A
:102240002CD120E05A490A694C49C1F894245849D4
:102250000A6A4A49C1F8982421E055494A69474920
:10226000C1F8942452490A6A4449C1F8982416E0F6
:102270004F498A694149C1F894244D490A6A3F4946
:10228000C1F898240BE04A49CA693C49C1F8942432
:1022900047490A6A3949C1F8982400E000BF00BFE5
:1022A0003BE0364991F8AE1431B101290FD0022933
:1022B00019D003292DD121E03D490A692F49C1F8E0
:1022C00094243B494A6A2D49C1F8982422E03849B0
:1022D0004A692A49C1F8942435494A6A2749C1F80C
:1022E000982417E018E032498A692449C1F89424F7
:1022F0002F494A6A2149C1F898240BE02C49CA6940
:102300001E49C1F894242A494A6A1C49C1F89824F4
:1023100000E000BF00BF00E000BF00BF0121174A7E
:1023200082F89D140022154981F89E2481F89F248B
:1023300000201FE00022C0EBC00101EB40130F4959
:10234000891C01EB43014A76C0EBC00101EB40134D
:102350000A49891C01EB430181F83320C0EBC0011D
:1023600001EB40130549891C01EB430181F84D2025
:10237000411CC8B20A28DDDB7047000020000010B5
:10238000B8BABAC9CDA8B5C0B1EAB6A8B1ED0000D7
:10239000CEBBD2C6CDA8B5C0B1EAB6A8B1ED00009B
:1023A000B1E4D0CECDA8B5C0B1EAB6A8B1ED000079
:1023B0003876060870B516F01BFD044617480078FD
:1023C00090FBF4F0401CC5B214480678012016F0CA
:1023D000F7FCA84205D11148007820440F49087045
:1023E00008E00E480078001B0C4908700846007889
:1023F000401C08700948017890F8AB04401E604307
:1024000091FBF0F200FB12100449087008460078B6
:10241000B04201D1FF20487070BD000020000010C4
:1024200010B5FF2011494870002081F8A304012055
:1024300081F8A804002081F8A90400210B4880F845
:10244000AA1416F0ADFF094981F8AC0417F0E4FFB7
:10245000064981F8AD0416F06BFC044981F8AE041E
:1024600016F0D0FC014981F8AF0410BD2000001027
:10247000F8B5734805782846FFF754FD009018F02A
:10248000EBFE012873D117F039F9B0F1805F6FD0FE
:1024900009DCB0F1004F6CD0B0F5802F0AD0B0F558
:1024A000801F67D16FE0B0F1005F73D0B0F1804F53
:1024B000F7D19CE017F036FB044614B1022C5FD133
:1024C00000E0F8BD5E4890F8B00428BB17F026FB8A
:1024D00006783046FFF712FEA8B1594890F88D04EF
:1024E00078B917F01BFB5649066891F89C0401F275
:1024F0006A4231463EF06AFE0120514981F8B1043A
:1025000000E000BF00BF01204D4981F8A90400216F
:102510004B4880F8AA14D4E79DF80000C0EBC00136
:1025200001EB40114648801C00EB41009DF8011072
:1025300001EB810202EBC10100EB4100407ED0B90A
:1025400017F0ECFA9DF8001001EBC10101EB41031B
:102550003C4919449DF8013003EBC303CA183849BC
:10256000066891F89C0431463EF030FE04E065E0D8
:102570004CE030E061E000BF00BF00F061FC00E033
:1025800000BF00BF59E017F0CDFA04461CB1032C80
:102590001ED10CE02EE0082026F030F8012028495A
:1025A00081F8A9040021264880F8AA1411E02448E3
:1025B00090F8B00420B90120214981F8A30402E079
:1025C000FF201F49487001201D4981F8A80400E040
:1025D00000BF00BF31E0092026F010F801201849A3
:1025E00081F8A9040121164880F8AA1425E000F01A
:1025F000DDF822E0082026F001F80120104981F8DA
:10260000A90401210E4880F8AA1416E02846FFF715
:1026100087FD28B90C4A0121084626F015F803E089
:102620000120074981F8B1040120054981F8A90476
:102630000021034880F8AA1400BF00BF00BF40E794
:10264000200000107C0300108876060808B50D48AD
:1026500090F8A904012812D10A4890F8AA04012888
:102660000DD16846FFF776FC28B90A2025F0C6FF91
:102670001FF0CEFA08BD00F0EDFB25F0B1FF00BF62
:10268000F8E700002000001010B5124890F8A304ED
:1026900001281DD100200F4981F8A304084690F8B5
:1026A000B00418B9012000F0E9FA0DE009484078BB
:1026B000FF2804D007484178002000F03BFB054884
:1026C0000178012000F036FB02480078014948708B
:1026D00010BD000020000010FEB5002416F088FB9D
:1026E0000546002618F0B8FD012833D117F006F88A
:1026F00004462D4890F8B00488B9B4F5003F29D1BC
:102700000126002000F0BAFA0120274981F8A3042D
:1027100081F8B00400200870FF2048701AE02249B8
:102720000878FFF7FFFB0090B4F5002F12D19DF859
:10273000000078B901261C480178002000F0FAFA60
:102740000120194981F8A304002081F8B004087021
:10275000FF204870012E00D1FEBD01208DF804003D
:102760008DF80550104890F8AB04401EC0B28DF8AB
:1027700006009DF805009DF8061010FB01F0C0B2A0
:102780008DF807000848029001A819F0C1FD06481D
:10279000007805494978884203D00120024981F830
:1027A000A30400BFD8E700002000001010B526F0F9
:1027B00059F90A4991F8AF041FF07EFB40B9012096
:1027C000064981F8A9040021044880F8AA1403E00E
:1027D0000120024981F8A80410BD0000200000106B
:1027E00038B517F08FF90446A74805782846FFF753
:1027F00099FB009020F086FF40F2CB2020804FF420
:10280000CD70608041F6FC40A0809F4890F8B004F5
:1028100020B99D48B0F87E04E08013E09DF80000E8
:10282000C0EBC00101EB40119748801C00EB410058
:102830009DF8011001EB810202EBC10100EB4100A8
:102840004089E0804FF6FF70A08240F2CF10E08216
:1028500001202072A0728C4890F8B00480B98A4898
:10286000B0F87414B0F88A040844401CA08186486B
:10287000B0F87614B0F88A040844401CE08150E0B7
:102880009DF80000C0EBC00101EB40117E48801CA8
:1028900000EB41009DF8011001EB810202EBC10148
:1028A00030F811109DF80000C0EBC00202EB40129E
:1028B0007548801C00EB42009DF8012002EB82036A
:1028C00003EBC20200EB4200C08A0844401CA08116
:1028D0009DF80000C0EBC00101EB40116A48801C6C
:1028E00000EB41009DF8011001EB810202EBC101F8
:1028F00000EB410041889DF80000C0EBC00202EBF4
:1029000040126148801C00EB42009DF8012002EB60
:10291000820303EBC20200EB4200C08A0844401C61
:10292000E081082020766076574890F8B00498B986
:102930005548B0F88014B0F88A04022202FB101047
:10294000801E20825048B0F88214B0F88A0402FB3E
:102950001010801E608255E09DF80000C0EBC001A1
:1029600001EB40114848801C00EB41009DF801102C
:1029700001EB810202EBC10100EB410081899DF86E
:102980000000C0EBC00202EB40123F48801C00EB8D
:1029900042009DF8012002EB820303EBC20200EB30
:1029A0004200C08A022202FB1010801E20829DF885
:1029B0000000C0EBC00101EB40113348801C00EB6C
:1029C00041009DF8011001EB810202EBC10100EB17
:1029D0004100C1899DF80000C0EBC00202EB40122B
:1029E0002948801C00EB42009DF8012002EB820385
:1029F00003EBC20200EB4200C08A022202FB10106D
:102A0000801E60822148E0611F4890F8B00450B9F0
:102A10001D4890F88D0484F820001B4890F8840429
:102A200084F8220029E09DF80000C0EBC00101EB12
:102A300040111548801C00EB41009DF8011001EB8E
:102A4000810202EBC10100EB4100407E84F82000CE
:102A50009DF80000C0EBC00101EB40110A48801C4A
:102A600000EB41009DF8011001EB810202EBC10176
:102A700000EB4100007C84F82200002084F8230051
:102A8000204619F07FFD38BD20000010BC04001066
:102A90002DE9F0472DED028B0025A94600240026E4
:102AA0009FED700AB0EE408A0127A0466E4991F86A
:102AB000AF0440F0F3FC0546022D01DB0B2D00DDD9
:102AC0000225681EC5B2A946674890F8B10428B926
:102AD000664A294608203EF079FB02E016F088F9A4
:102AE00005460024B3E0002016F06AF9064604EB20
:102AF000C40000EB40015E48084406EBC6014218E2
:102B0000394608203EF062FB781CC7B2564890F860
:102B1000B104012800D198E04C457CDA012016F080
:102B20004FF90646621CD1B24F4A92F8AF0440F00A
:102B3000D5FCB0EE408A4C4890F8AF0420B1012893
:102B40000DD0022853D12EE0474890F8AC0428B9A4
:102B50009FED480AC8EE000AB0EE608A48E042489D
:102B600090F8AD0430B1012805D002280AD003281E
:102B700016D10EE015E0B2EE040AC8EE000AB0EE7F
:102B8000608A0EE09FED3C0AC8EE000AB0EE608A53
:102B900007E09FED380AC8EE000AB0EE608A00E058
:102BA00000BF00BF24E0304890F8AE0430B10128E7
:102BB00005D002280AD0032816D10EE015E0B2EEA7
:102BC000040AC8EE000AB0EE608A0EE09FED2A0A01
:102BD000C8EE000AB0EE608A07E09FED260AC8EE54
:102BE000000AB0EE608A00E000BF00BF00E000BF56
:102BF00000BF04EBC40000EB40011D48084406EB95
:102C0000C6014218BDEEC80A10EE101A08203EF0A8
:102C1000DDFA022000E017E016F0D2F80646621C4A
:102C2000D1B2114A92F8AF0440F014FC804604EB94
:102C3000C40000EB40010E48084406EBC6014218F0
:102C4000414608203EF0C2FA00BF601CC4B2AC424C
:102C5000FFF649AF0020044981F8B104BDEC028BB6
:102C6000BDE8F08700000000200000108A0400107A
:102C70007C03001000007A440000C84210B50446EE
:102C800054B1012C12D100210A48A0F878144FF653
:102C9000E021A0F87A1409E00648B0F87C14A0F806
:102CA0007814B0F87E14A0F87A1400BF00BF26F0A4
:102CB000E7F910BD2000001010B517F041F80446E8
:102CC000104890F8A80401281AD100200D4981F875
:102CD000A8040F2020704FF6FF70608040F2CF10E4
:102CE000A08009480069A0600748C16CE160D0F885
:102CF00094102161D0F860116161204625F074FEC6
:102D000010BD0000200000108CB0060810B516F0B1
:102D10006FF804460648017890F8AB04401E10FB9B
:102D200004F0814202DB00200149087010BD000060
:102D30002000001038B504460D462846FFF7F2F88B
:102D400000904CB3012C70D100219DF80000C0EB25
:102D5000C00202EB4012394800EB42009DF801200E
:102D600002EB820303EBC20200EB420081804FF6CC
:102D7000E0219DF80000C0EBC00202EB40122F489A
:102D800000EB42009DF8012002EB820303EBC2023C
:102D900000EB4200C18048E09DF80000C0EBC0019C
:102DA00001EB4011254800EB41009DF8011001EBBB
:102DB000810202EBC10100EB410001899DF8000096
:102DC000C0EBC00202EB40121C4800EB42009DF831
:102DD000012002EB820303EBC20200EB4200818080
:102DE0009DF80000C0EBC00101EB4011134800EB5F
:102DF00041009DF8011001EB810202EBC10100EBE3
:102E0000410041899DF80000C0EBC00202EB401276
:102E10000A4800EB42009DF8012002EB820303EB1D
:102E2000C20200EB4200C18000BF00BF9DF801104C
:102E30009DF8000025F0FCFF38BD000022000010C6
:102E400010B5FFF7B7FA0120014981F8A80410BDB9
:102E5000200000102DE9F041002600250027002465
:102E6000A04615F0C5FF0646012E01DB0A2E01DD46
:102E7000BDE8F081701CC6B24E4991F8AF043146EE
:102E800040F01CFB4B4991F8AF049FED4B0A002129
:102E900040F038FB474991F8AF040022114640F05A
:102EA000EBFA00257FE0012015F08AFF074605EBCD
:102EB000C50101EB41024149114407EBC7028818E3
:102EC0000A22002143F077FC04463A4890F8AF0408
:102ED00020B101280AD002283CD121E0354890F8E1
:102EE000AC0410B94FF47A70444334E0314890F8A0
:102EF000AD0430B1012805D0022807D003280CD139
:102F000007E00BE004EB8400440007E06420444346
:102F100004E04FF47A70444300E000BF00BF1AE0C1
:102F2000244890F8AE0430B1012805D0022807D01B
:102F300003280CD107E00BE004EB8400440007E019
:102F40006420444304E04FF47A70444300E000BF3F
:102F500000BF00E000BF00BF6A1CD1B2154A92F862
:102F6000AF0400EE104AB8EEC00A40F0CBFA0220DF
:102F700015F026FF074605EBC50101EB41020F499D
:102F8000114407EBC70288180A22002143F013FC02
:102F900080466A1CD1B2074A92F8AF04424640F01C
:102FA0006BFA681CC5B2B542FFF67DAF3FF060F822
:102FB00000BF5DE720000010000000007C0300104F
:102FC00003680B600A718388A1F80530CA71C38851
:102FD0000B8100238B7270470CA00F4948660320B9
:102FE00081F854000020887001210B48C170022133
:102FF00001710A4800680849886508484168064820
:10300000C16506488168044801667047CDA8B5C00F
:10301000D1A1D4F100000000081F0020647A060846
:10302000FF2006494870002081F8680081F8690097
:103030000021024880F86A1070470000081F002035
:1030400010B518F009F901281BD116F057FBB0F59F
:10305000802F03D0B0F5801F12D108E001200A496B
:1030600081F869000121084880F86A1008E0012011
:10307000054981F869000021034880F86A1000BF03
:1030800000BF00F0F7F810BD081F002010B51B4866
:1030900090F8690001282FD1184890F86A0001289B
:1030A00025D116480178801C405C20B101280BD046
:1030B00002281BD111E00020104981F86E0091F820
:1030C0006C0025F09BFA11E001200C4981F86E009C
:1030D00091F86C0025F092FA08E00220074981F887
:1030E0006E0091F86C0025F089FA00BF04E00349F6
:1030F00091F86B0025F082FA10BD0000081F002037
:1031000010B53D4890F86800012874D13A484078DD
:10311000FF284ED03848407800EB800101EBC00119
:103120003548801D00EB410001893348407800EBB1
:10313000800202EBC0023048801D00EB420081801B
:103140002D48407800EB800101EBC0012A48801D2A
:1031500000EB410041892848407800EB800202EBF7
:10316000C0022548801D00EB4200C18022494878FA
:1031700010F0EEFE4FF6FF711F48007800EB800262
:1031800002EBC0021C48801D00EB420081804FF61C
:10319000E0211948007800EB800202EBC0021648DB
:1031A000801D00EB4200C1801349087810F0D0FE6A
:1031B0001DE04FF6FF711048007800EB800202EB33
:1031C000C0020D48801D00EB420081804FF6E021D7
:1031D0000948007800EB800202EBC0020648801D1F
:1031E00000EB4200C1800449087810F0B1FE0248AB
:1031F00000780149487010BD081F00201CB5002050
:10320000134981F8680001208DF80000084690F805
:1032100054008DF8010001208DF802009DF8010096
:103220009DF8021010FB01F0C0B28DF803000848B1
:103230000190684619F06CF805480078044949780F
:10324000884203D00120024981F868001CBD0000BB
:10325000081F002010B50024054991F86E0015F0F4
:10326000D7FD0446FF2C01D00148047010BD0000BA
:10327000081F002010B5002416F0F0FB0446002CB7
:103280000FDD084890F85400A0420ADB01200549F0
:1032900081F869000121034880F86A10601E014925
:1032A000087010BD081F0020FEB504460D4600261C
:1032B0002068009000208DF804000A220021684652
:1032C00043F079FA86B22E80A088ADF80000002085
:1032D0008DF802000A220021684643F06CFA86B29B
:1032E000AE70E088ADF8000000208DF802000A22E0
:1032F0000021684643F05FFA86B2EE70FEBD2DE90C
:10330000F04104460D46164600273046FCF7A2FF62
:1033100000F0FF0831462846FCF7BEFFA04501DB60
:10332000BDE8F081474603E02020E855781CC7B28D
:10333000A742F9DB0020285500BFF1E730B591B076
:10334000044600250A220021204643F034FA0546AF
:103350002A4607A109A843F005FA09A9684639F0E9
:1033600005FF10B9012011B030BD0020FBE70000BF
:103370007379732F253038640000000010B516F003
:10338000E5FA0446032C01D0002010BD0120FCE723
:1033900070B50025002431F021FA01281BD100204E
:1033A00031F046FA15F0E4FF0546284631F09AF967
:1033B00018B900BF00BF002070BD284631F0A9F940
:1033C0000446012C01D0022C05D100BF00BF24F01F
:1033D00091FC0120F0E70020EEE770B5FA2516F029
:1033E00059F90446FA2C07D94AF2145021F066FC28
:1033F000002025F0BFF803E0641C204625F0BAF851
:1034000070BD0000F0B52DED0A8BAFB0054600246D
:1034100000269FEDF80AF0EE409A9FEDF60AB0EE16
:1034200040BA9FEDF40AF0EE40BA9FEDF20AB0EE1A
:1034300040AA9FEDF00AF0EE40AA9FEDEE0AF0EEF2
:10344000408A9FEDEC0AB0EE409A9FEDEA0AB0EE9A
:10345000408A9FEDE80AB0EE40CA9FEDE60AF0EE22
:1034600040CA00271822E44929A8FCF7A9FE202217
:10347000E149183121A8FCF7A3FE2022DE493831AA
:1034800019A8FCF79DFE2022DB49583111A8FCF752
:1034900097FE2022D849783109A8FCF791FE202216
:1034A000D549983101A8FCF78BFE012D01DB0A2DCF
:1034B00003DD2FB0BDEC0A8BF0BD012015F054FCEC
:1034C0000646CE4890F8330320B1012873D0022875
:1034D00072D16DE1C94991F833033FF023FFB0EE9B
:1034E00040AAF0EE4AAAC54890F8300328B99FEDEB
:1034F000C40ACAEE800AF0EE60AA9FEDC20ACAEEC4
:10350000800AF0EE609A062D02D0082D6FD124E0DB
:1035100000241FE029A850F8240000EE100AB8EE9D
:10352000400A20EE290ABDEEC00AB8EEC00AB0EE8D
:10353000408A04EBC401B44800EB410006EBC6012D
:103540004218BDEEC80A10EE101A08203DF03EFEEB
:10355000601CC4B2AC42DDDBC3E000249CE0BDEEE5
:10356000CA0A10EE100AA0F51C50103850B1A74935
:10357000084410B3A6490844C0B3A649084400282B
:1035800068D14EE09D4890F8300348B921A850F822
:10359000240000EE100AB8EE400AB0EE408A09E0BE
:1035A00021A850F824004FF47A71484300EE100A25
:1035B000B8EE408A5EE096E072E1904890F8300301
:1035C00048B919A850F8240000EE100AB8EE400AD5
:1035D000B0EE408A09E019A850F824004FF47A713F
:1035E000484300EE100AB8EE408A43E000E057E09E
:1035F000824890F8300348B911A850F8240000EE32
:10360000100AB8EE400AB0EE408A09E011A850F85E
:1036100024004FF47A71484300EE100AB8EE408A55
:1036200028E0764890F8300348B909A850F82400FB
:1036300000EE100AB8EE400AB0EE408A09E009A890
:1036400050F824004FF47A71484300EE100AB8EEA7
:10365000408A0FE001A850F8240000EE100AB8EEEE
:10366000400A20EE290ABDEEC00AB8EEC00AB0EE4C
:10367000408A00BF00BF04EBC401634800EB410077
:1036800006EBC6014218BDEEC80A10EE101A08205B
:103690003DF09CFD601CC4B2AC42FFF660AF20E080
:1036A00000241BE007F10A00C7B200EE107AB8EE62
:1036B000400A29EE800AB0EE408A04EBC401524869
:1036C00000EB410006EBC6014218BDEEC80A10EE41
:1036D000101A08203DF07AFD601CC4B2AC42E1DB58
:1036E00000BF00BFDDE0454991F833033FF01AFE0B
:1036F000F0EE408A414890F8310330B1012805D0FE
:1037000002280AD0032816D10EE015E0B2EE040A12
:10371000C8EE800AF0EE608A0EE09FED3A0AC8EE2D
:10372000800AF0EE608A07E09FED350AC8EE800A55
:10373000F0EE608A00E000BF00BF00EE105AB8EE65
:10374000400AC8EE800ABDEEE00AB8EEC00AB0EE4C
:1037500040BA002419E0601C00EE100AB8EEC00A5E
:103760002BEE000AB0EE40CA04EBC401264800EB81
:10377000410006EBC6014218BDEECC0A10EE101A4D
:1037800008203DF023FD601CC4B2AC42E3DB681EA0
:1037900000EBC0011C4800EB410006EBC6014218DB
:1037A000BDEEE80A10EE101A08203DF00FFD78E09B
:1037B000124991F833033FF0B5FDB0EE409A0F483F
:1037C00090F8320330B1012805D002280AD003282E
:1037D00029D121E028E0B2EE040AC9EE000AB0EED9
:1037E000609A21E09FED070AC9EE000AB0EE609AE8
:1037F0001AE000000000000084770608D80F0020BF
:1038000000007A440000C842161200203093FBFFEB
:10381000600FE6FFC0BDF0FF1FED070AC9EE000A0A
:10382000B0EE609A00E000BF00BF00EE105AB8EEA4
:10383000400AC9EE000ABDEEE00AB8EEC00AF0EE9A
:1038400040BA002419E0601C00EE100AB8EEC00A6D
:103850002BEE800AF0EE40CA04EBC401124800EBE4
:10386000410006EBC6014218BDEEEC0A10EE101A3C
:1038700008203DF0ABFC601CC4B2AC42E3DB681E28
:1038800000EBC001084800EB410006EBC6014218FE
:10389000BDEEC90A10EE101A08203DF097FC00E0BA
:1038A00000BF00BF00BF04E61612002010B516F0DE
:1038B0001DF9012804D1032002490870012010BD20
:1038C0000020FCE7CCAC002038B53AF0B1FE04464D
:1038D00040F6D862FF2100F0FFFD8DF800003AF0BD
:1038E000ABFE044640F26C72FF2100F0F5FD8DF84E
:1038F00001003AF0A5FE04466422FF2100F0ECFD31
:103900008DF802009DF80000012808D19DF8010003
:10391000012804D19DF80200012800D138BD002003
:10392000FCE7002000BF742000BF00BF40F65E30FF
:1039300000BF00BF40F26C7000BF00BF642000BF3A
:1039400000BF4FF4737000BF00BF45F6DE5000BFEC
:1039500000BF704710B500BF18F04BFF00F08001AA
:103960008029F9D010BD000000200149087070477F
:10397000CCAC002038B504464FF4A8734FF4B372B2
:103980005A21022000943CF024FB38BD38B504468F
:103990001E234FF448724FF4E171002000943CF074
:1039A00018FB38BD38B5044640F21D134FF4D772EA
:1039B0008C214FF4B67000943CF00BFB38BD38B549
:1039C00004464FF4877340F212226421962000943B
:1039D0003CF0FFFA38BD38B50446B4F866000090F4
:1039E000B4F85E30B4F85C20618820883CF0F1FACD
:1039F00038BD10B58E2035F015FF20F03DFBC4B268
:103A000044F04004204635F013FF1FF093FE10BD34
:103A1000F8B5044604EB840000EBC401184830F804
:103A2000111004EB840000EBC402154800EB4200C7
:103A3000808908440C3086B204EB840000EBC4019A
:103A40000F4800EB4100418804EB840000EBC40206
:103A50000B4800EB4200C08A0844401C87B204EBCC
:103A6000840000EBC401064800EB4100C58805A0B6
:103A70002B462A4639460090304610F099FFF8BD93
:103A8000920A00203E000000F8B5044604EB8400D2
:103A900000EBC401184830F8111004EB840000EB6F
:103AA000C402154800EB4200808908440C3086B2FD
:103AB00004EB840000EBC4010F4800EB4100418897
:103AC00004EB840000EBC4020B4800EB4200C08A08
:103AD0000844401C87B204EB840000EBC401064894
:103AE00000EB4100C58805A02B462A4639460090C8
:103AF000304610F05DFFF8BD700600203E0000006B
:103B0000F8B5044604EB840000EBC401184830F813
:103B1000111004EB840000EBC402154800EB4200D6
:103B2000808908440C3086B204EB840000EBC401A9
:103B30000F4800EB4100418804EB840000EBC40215
:103B40000B4800EB4200C08A0844401C87B204EBDB
:103B5000840000EBC401064800EB4100C58805A0C5
:103B60002B462A4639460090304610F021FFF8BD1A
:103B7000BA1600203E000000F8B5044604EB8400AD
:103B800000EBC401184830F8111004EB840000EB7E
:103B9000C402154800EB4200808908440C3086B20C
:103BA00004EB840000EBC4010F4800EB41004188A6
:103BB00004EB840000EBC4020B4800EB4200C08A17
:103BC0000844401C87B204EB840000EBC4010648A3
:103BD00000EB4100C58805A02B462A4639460090D7
:103BE000304610F0E5FEF8BD5AB900103E00000066
:103BF000F8B5044604EB840000EBC401184830F823
:103C0000111004EB840000EBC402154800EB4200E5
:103C1000808908440C3086B204EB840000EBC401B8
:103C20000F4800EB4100418804EB840000EBC40224
:103C30000B4800EB4200C08A0844401C87B204EBEA
:103C4000840000EBC401064800EB4100C58805A0D4
:103C50002B462A4639460090304610F0A9FEF8BDA2
:103C6000681500203E000000024909688143014AAE
:103C70001160704734000020024909688143014AFD
:103C8000116070473800002070B500254FF4803473
:103C900000E0641E24B1802022F0CAF80028F8D089
:103CA00014B90325284670BD40F2FF5021F09EFF55
:103CB0002846F8E710B5032428484078052849D25B
:103CC000DFE800F003061604050043E042E041E0AF
:103CD00002202249487000F089FA3221012036F092
:103CE000A9FF012100203AF069FF1C49887031E0EA
:103CF000012036F097FC90B1012018494870084621
:103D000090F85700401C81F85700084690F857007B
:103D1000032801DB0420487000BF00BF1AE00F48F1
:103D2000007800B916E042F037FA0C4981F8360005
:103D30000846817890F83600814205D00120074975
:103D4000487000BF00BF05E000200449487000F043
:103D500007F800BF00BF0148407810BD7C26001066
:103D600070B5002442F00CFA0446102C73D00CDC21
:103D7000A4F102000E281FD2DFE800F0161F283140
:103D80003A4346494C4F52C8C8B6A4F1FE00112828
:103D9000F1D2DFE800F0484BBB4E57BBBB6173BBB1
:103DA0007C858EBBBB97A00042F0E4F905465849DC
:103DB00037F066F800BF00BFA8E042F0DBF9054627
:103DC00053493EF04FFB00BF00BF9FE042F0D2F9E5
:103DD00005464F493EF046FB00BF00BF96E042F06B
:103DE000C9F905464A4937F09DF800BF00BF8DE08C
:103DF00042F0C0F9054646493EF034FB00BF00BF23
:103E000084E000BF00BF81E000BF00BF7EE000BFD4
:103E100000BF7BE000BF00BF78E000BF00BF75E0DF
:103E200000BF00BF72E000BF00BF6FE000BF00BF77
:103E30006CE042F09FF9054635493EF013FB00BFA8
:103E400000BF63E042F096F9054631493EF00AFBB7
:103E500000BF00BF5AE050E042F08CF905462C4903
:103E600037F05EF92A4A353AD2F84F10D07B3FF04E
:103E70005DFB3EF0FDF800BF00BF47E042F07AF97D
:103E8000054623493EF0EEFA00BF00BF3EE042F097
:103E900071F905461E493EF0E5FA00BF00BF35E066
:103EA00042F068F905461A493EF0DCFA00BF00BF4F
:103EB0002CE042F05FF9054615493EF0D3FA00BF09
:103EC00000BF23E042F056F9054611493EF0CAFA18
:103ED00000BF00BF1AE042F04DF905460C493EF024
:103EE000C1FA00BF00BF11E042F044F9054608499D
:103EF0003EF0B8FA00BF00BF08E042F03BF90546CB
:103F0000034936F0D9FF00BF00BF00BF00BF70BD3E
:103F1000B12600102DE9F041064600274848056803
:103F200001E04748056805F045000028F9D005F094
:103F3000040030B10327042021F058FE3846BDE8C4
:103F4000F08105F0010028B10127012021F04EFE8B
:103F50003846F4E721F066FFB04202D01027384619
:103F6000EDE740F2FF5021F041FE002022F030F852
:103F700004463448204008B93846E0E704F00040E1
:103F800008B11C20DBE704F0804008B10920D6E727
:103F900004F0005008B10A20D1E704F0805008B1C5
:103FA0000B20CCE704F0006008B10C20C7E704F058
:103FB000806008B10D20C2E704F0807008B10E20C7
:103FC000BDE704F4000008B10F20B8E704F4800056
:103FD00008B11020B3E704F4001008B11120AEE7D7
:103FE00004F4801008B11220A9E704F4002008B1FD
:103FF0001320A4E704F4802008B114209FE704F400
:10400000003008B115209AE704F4803008B116207A
:1040100095E704F4004008B1172090E704F48040CD
:1040200008B118208BE704F4005008B1192086E786
:1040300004F0080008B11A2081E738467FE7000045
:10404000342C014008E0FFFD70B5002510480468DD
:1040500001E00F48046804F045000028F9D004F09E
:10406000040028B10325042021F0C0FD284670BDBE
:1040700004F0010028B10125012021F0B7FD2846F8
:10408000F5E740F2FF5021F0B1FD2846EFE70000D0
:10409000342C014070B500250B48046801E00A4843
:1040A000046804F045000028F9D004F0040028B1A9
:1040B0000325042021F09AFD284670BD40F2FF50F0
:1040C00021F094FD2846F8E7342C01402DE9F04119
:1040D00006460F464FF000082248056801E02148D7
:1040E000056805F045000028F9D005F0040038B156
:1040F0004FF00308042021F079FD4046BDE8F0812F
:1041000005F0010030B14FF00108012021F06EFDF3
:104110004046F3E721F086FEB04203D04FF010088E
:104120004046EBE740F2FF5021F060FD002021F017
:104130004FFF044604F4604018B9200C3880404614
:10414000DCE704F4005008B11320D7E704F4804002
:1041500008B11020D2E704F4004008B10F20CDE7E9
:104160004046CBE7342C014070B500264FF4803533
:104170000F48046802E06D1E0D48046804F0450015
:1041800008B9002DF7D115B104F0040028B10326B9
:10419000042021F02BFD304670BD04F0400028B112
:1041A0000026402021F022FD3046F5E73046F3E7B7
:1041B000342C014010B51DF09FF8044624B1032CA7
:1041C00003D0042C0CD105E00BE00749012024F0BA
:1041D00033FA06E00449091D012024F02DFA00E01D
:1041E00000BF00BF204610BD88B3060800B58BB0E5
:1041F0007048B0F80300102870D00CDCA0F1020069
:104200000E286CD2DFE800F0151A1F262B303A4634
:10421000505C5FCFCFC3FE381128F2D2DFE800F048
:10422000565BC36067C3C36C75C37C888DC3C3A36F
:10423000AB0036F020FE00BF00BFB7E036F0F2FE64
:1042400000BF00BFB2E05B49887936F087FE00BF4F
:1042500000BFABE036F04CFE00BF00BFA6E036F07A
:10426000D7FD00BF00BFA1E0524AB2F80910B2F872
:10427000070036F0ABFE00BF00BF97E04D4BD3F810
:104280000B20B3F80910B3F8070036F0C1FF00BFE8
:1042900000BF8BE0474AB2F80910B2F8070036F0C9
:1042A000ABFE00BF00BF81E0424BD3F80B20B3F858
:1042B0000910B3F8070036F0CFFF00BF00BF75E06C
:1042C00000BF00BF72E000BF00BF6FE036F030FFFC
:1042D00000BF00BF6AE000BF00BF67E05DE062E0D2
:1042E0003449487936F0A3FE00BF00BF5EE036F0E7
:1042F000CBFE00BF00BF59E02E49C87B002211460B
:1043000036F0DBFE00BF00BF50E02A49087C36F0E3
:104310009EFD00BF00BF49E0264BB3F81520B3F85F
:104320001310B3F8110036F035FE00BF00BF3DE0BA
:1043300036F02DFF00BF00BF38E01E48173001697E
:10434000009141690191008BADF808001A221949CA
:10435000173104A8FBF734FF04A80FC836F0FBFEA2
:1043600000BF00BF22E01349D1F8310036F0E2FD72
:1043700000BF00BF1AE00F4BB3F81520B3F81310BD
:10438000B3F8110036F009FF00BF00BF0EE00A4885
:1043900036F080FE00BF00BF08E0102036F07FFD41
:1043A00000BF00BF02E000BF00BF00BF00BF0BB0F6
:1043B00000BD00007C26001031FFD8052DE9F0413A
:1043C00004460D46204600F029F80746294638469F
:1043D00034F0F0FA06463046BDE8F0812DE9F047AA
:1043E00081460E461746484600F018F88046B8F158
:1043F000000F02D1FF20BDE8F087002409E0315D05
:10440000404634F01FFC05460DB10120F3E7601C67
:1044100084B2BC42F3DB0020EDE70000014609B99D
:104420000B487047012901D10020FAE7022901D188
:104430000020F6E7032901D10020F2E7042901D189
:104440000020EEE7052901D10248EAE70020E8E76D
:1044500074210020F423002010B51E48007820B1FC
:10446000012813D0022830D122E01A48007901280F
:104470000BD10020174908710A2048804FF00070C6
:10448000FFF7F2FB0120134908701EE01148408835
:10449000052805DD0F484088401E0E49488006E08B
:1044A0004FF0007024F06CF802200A4908700CE00C
:1044B0000848408828B107484088401E0549488080
:1044C00002E000200349087000BF00BF18F098F90F
:1044D00010BD00001000001010B503460C4600216E
:1044E00005E0585CA04201D0002010BD491C91425B
:1044F000F7D30120F9E70000F0B53C2351243C221A
:10450000512100208BE000EB800505EBC006484DF3
:1045100025F8162000EB800505EBC006444D05EBA1
:1045200046056980002600EB800505EBC007404D7D
:1045300005EB4705AE804FF6FF7600EB800505EBF7
:10454000C0073B4D05EB4705EE80002600EB8005DC
:1045500005EBC007364D05EB47052E814FF6FF767C
:1045600000EB800505EBC007314D05EB47056E817B
:104570004FF4A07600EB800505EBC0072C4D05EB52
:104580004705AE81242600EB800505EBC007284DCA
:1045900005EB4705EE81202600EB800505EBC00703
:1045A000234D05EB47052E74252600EB800505EB12
:1045B000C0071F4D05EB47056E82002600EB800506
:1045C00005EBC0071A4D05EB4705AE82184D0A3DB5
:1045D00095F8C1506D1E85420CD100EB800505EBAE
:1045E000C006134D05EB4605AD8928351544AAB222
:1045F000512112E000EB800505EBC0060C4D05EBE8
:1046000046056E8A00EB800505EBC007084D05EBFB
:104610004705ED8935440D44A9B2451CE8B2044D67
:104620000A3D95F8C05085423FF76DAFF0BD0000E0
:10463000A6130020F0B5654D6C5C00EB800505EB22
:10464000C006634D05EB860501EB810606EBC1064E
:1046500025F8162000EB800505EBC0065C4D05EB48
:10466000860501EB810606EBC10605EB46056B806E
:104670004FF6FF7600EB800505EBC007544D05EBC8
:10468000870501EB810707EBC10705EB4705AE8006
:10469000002600EB800505EBC0074D4D05EB8705B7
:1046A00001EB810707EBC10705EB4705EE804FF6ED
:1046B000FF7600EB800505EBC007454D05EB870550
:1046C00001EB810707EBC10705EB47052E810026AB
:1046D00000EB800505EBC0073D4D05EB870501EBC1
:1046E000810707EBC10705EB47056E811E2600EB2E
:1046F000800505EBC007364D05EB870501EB81070B
:1047000007EBC10705EB4705EE81182600EB800596
:1047100005EBC0072E4D05EB870501EB810707EB85
:10472000C10705EB47052E74002600EB800505EB5D
:10473000C007274D05EB870501EB810707EBC10794
:1047400005EB47056E8200EB800505EBC007204DA9
:1047500005EB870501EB810707EBC10705EB470573
:10476000AE82022600EB800505EBC007184D05EB75
:10477000870501EB810707EBC10705EB4705EE82D3
:1047800014B1012C20D10FE04C2600EB800505EB85
:10479000C0070F4D05EB870501EB810707EBC1074C
:1047A00005EB4705AE810FE07E2600EB800505EBAB
:1047B000C007074D05EB870501EB810707EBC10734
:1047C00005EB4705AE8100BF00BFF0BDFB12002026
:1047D000DA0F00202DE9F04705460E461746002463
:1047E000B046B94600BF27E04B4642462146284620
:1047F000FFF720FF05EB850000EBC501124800EB39
:10480000810004EB840101EBC40100EB41008189CC
:1048100005EB850000EBC5020B4800EB820004EBC2
:10482000840202EBC40200EB4200C08A081A404432
:104830001FFA80F8601CC4B20348801E90F82F0352
:10484000A042D1DCBDE8F087DA0F002030B5034686
:104850000A46194C248B1C44A3B2174C248B1444D5
:10486000A2B203F16004A3B2A2F13004A2B2124CCE
:10487000A4F8FC32A4F8FE224FF6FF75A4F800530A
:104880000025A4F802534FF6FF75A4F80453002541
:10489000A4F806536625A4F808531E25A4F80A5365
:1048A000182584F80C530025A4F80E53A4F81053CF
:1048B0000225A4F8125330BDD80F00202DE9F0478F
:1048C0004FF493784FF064094646642514F064FA77
:1048D00007462A4631460020FFF77CFF342219495B
:1048E00001F50270FBF76CFC1648801EB0F8181238
:1048F000B0F82002081A284485B2002419E02A469C
:1049000031462046FFF766FF04EB840000EBC4014C
:104910000C4800EB8100C18904EB840000EBC40269
:10492000084800EB8200C08A081A284485B2601C3F
:10493000C4B2BC42E3DB64214FF49370FFF786FFFF
:10494000BDE8F087DA0F0020F0B56E4D6C5CC0EB6F
:10495000C00505EB40166C4D05EB460501EB8106E5
:1049600006EBC10625F81620C0EBC00505EB401686
:10497000654D05EB460501EB810606EBC10605EB2F
:1049800046056B804FF6FF76C0EBC00505EB401780
:104990005D4D05EB470501EB810707EBC10705EB13
:1049A0004705AE800026C0EBC00505EB4017564D0D
:1049B00005EB470501EB810707EBC10705EB470551
:1049C000EE804FF6FF76C0EBC00505EB40174E4D6D
:1049D00005EB470501EB810707EBC10705EB470531
:1049E0002E810026C0EBC00505EB4017464D05EBB8
:1049F000470501EB810707EBC10705EB47056E8112
:104A00001E26C0EBC00505EB40173F4D05EB4705E3
:104A100001EB810707EBC10705EB4705EE8118267F
:104A2000C0EBC00505EB4017374D05EB470501EB23
:104A3000810707EBC10705EB47052E740026C0EB85
:104A4000C00505EB4017304D05EB470501EB81072D
:104A500007EBC10705EB47056E82C0EBC00505EB10
:104A60004017294D05EB470501EB810707EBC1070F
:104A700005EB4705AE820226C0EBC00505EB4017EB
:104A8000214D05EB470501EB810707EBC10705EB5E
:104A90004705EE8224B1012C12D0022C30D11FE048
:104AA0003626C0EBC00505EB4017174D05EB470553
:104AB00001EB810707EBC10705EB4705AE811FE05E
:104AC0007E26C0EBC00505EB40170F4D05EB4705F3
:104AD00001EB810707EBC10705EB4705AE810FE04E
:104AE0006626C0EBC00505EB4017074D05EB4705F3
:104AF00001EB810707EBC10705EB4705AE8100BF5E
:104B000000BFF0BDC0040010220000102DE9F047E6
:104B100005460E4617460024B046B94600BF27E0BA
:104B20004B46424621462846FFF70EFFC5EBC5001F
:104B300000EB4511124800EB410004EB840101EB4E
:104B4000C40100EB41008189C5EBC50000EB4512B3
:104B50000B4800EB420004EB840202EBC40200EBC2
:104B60004200C08A081A40441FFA80F8601CC4B290
:104B70000348801E90F8AB04A042D1DCBDE8F0876A
:104B80002200001030B503460A46194C248B1C4401
:104B9000A3B2174C248B1444A2B203F16004A3B255
:104BA000A2F13004A2B2124CA4F87434A4F8762412
:104BB0004FF6FF75A4F878540025A4F87A544FF600
:104BC000FF75A4F87C540025A4F87E546625A4F84B
:104BD00080541E25A4F88254182584F88454002596
:104BE000A4F88654A4F888540225A4F88A5430BD49
:104BF000200000102DE9F0474FF0E6084FF064095F
:104C0000E626642514F0F4F807462A4631460020CB
:104C1000FFF77CFF4E22194901F54370FBF7D0FAEC
:104C20001648801EB0F81C13B0F82403081A284454
:104C300085B2002419E02A4631462046FFF766FF78
:104C4000C4EBC40000EB44110C4800EB4100C189E7
:104C5000C4EBC40000EB4412084800EB4200C08AD9
:104C6000081A284485B2601CC4B2BC42E3DB64214C
:104C7000E620FFF787FFBDE8F08700002200001064
:104C8000F0B5F0236924F0226921002077E000EBE1
:104C9000800505EBC0063D4D25F8162000EB80058C
:104CA00005EBC006394D05EB46056980002600EB93
:104CB000800505EBC007354D05EB4705AE804FF687
:104CC000FF7600EB800505EBC007304D05EB47058F
:104CD000EE80002600EB800505EBC0072B4D05EBB1
:104CE00047052E814FF6FF7600EB800505EBC007E8
:104CF000264D05EB47056E814FF4A07600EB80054D
:104D000005EBC007214D05EB4705AE81402600EBC2
:104D1000800505EBC0071D4D05EB4705EE812026FC
:104D200000EB800505EBC007184D05EB47052E7419
:104D3000282600EB800505EBC007144D05EB470561
:104D40006E82002600EB800505EBC0070F4D05EBDA
:104D50004705AE8200EB800505EBC0060B4D05EB69
:104D600046056E8A00EB800505EBC007074D05EB95
:104D70004705ED8935440D44A9B2451CE8B2034D01
:104D8000AD1F95F85450854281DCF0BD0E1F002008
:104D900030B54FF482724A2100200DE100EB800310
:104DA00003EBC004884B23F8142000EB800303EBD3
:104DB000C004854B03EB440359804FF6FF7400EBAE
:104DC000800303EBC005804B03EB45039C8000246C
:104DD00000EB800303EBC0057B4B03EB4503DC805A
:104DE0004FF6FF7400EB800303EBC005764B03EB3B
:104DF00045031C81002400EB800303EBC005724BCC
:104E000003EB45035C81962400EB800303EBC005B4
:104E10006D4B03EB45039C811E2400EB800303EBE9
:104E2000C005694B03EB4503DC81182400EB8003CC
:104E300003EBC005644B03EB45031C740A2400EB31
:104E4000800303EBC005604B03EB45035C82002449
:104E500000EB800303EBC0055B4B03EB45039C8237
:104E6000022400EB800303EBC005574B03EB450323
:104E7000DC8200EB800303EBC004534B33F8144097
:104E800000EB800303EBC0054F4B03EB45039B890D
:104E9000234424339CB24C4BEA3303EB40135C8035
:104EA00000EB800303EBC004474B03EB44035C8837
:104EB000454BEA3303EB40139C8000EB800303EB8C
:104EC000C004414B03EB44039C883F4BEA3303EBA4
:104ED0004013DC8000EB800303EBC0043A4B03EB90
:104EE0004403DC88384BEA3303EB40131C8166240F
:104EF000354BEA3303EB40135C811824324BEA3321
:104F000003EB40139C7402242F4BEA3303EB401352
:104F10009C8200242C4BEA3303EB4013DC820224F6
:104F2000294BEA3303EB40131C83274BEA3303EB93
:104F300040139C7C244BEA3303EB40139B8A1C44B4
:104F4000214BEA3303EB40139D8A1F4BEA3303EBFB
:104F500040139B7E03FB04541B4BEA3303EB4013CB
:104F60001B8B022505FB03439CB2174BEA3303EB73
:104F700040139C812D24144BEA3303EB4013DC8156
:104F80004FF4DC74104BEA3303EB40131C8200EB4C
:104F9000800303EBC0040C4B03EB4403DC8900EB00
:104FA000800303EBC005084B03EB45035B8A2344F6
:104FB0000B4499B2431CD8B2034B4A3B93F8A63238
:104FC00083423FF7EBAE30BD920A0020F0B5F94DB9
:104FD0006C5C00EB801505EB4505F74E06EB4505CF
:104FE00001EB810606EBC10625F8162000EB8015C3
:104FF00005EB4505F04E06EB450501EB810606EB9A
:10500000C10605EB46056B804FF6FF7500EB801679
:1050100006EB4606E84F07EB460601EB810707EB78
:10502000C10706EB4706B580002500EB801606EBAE
:105030004606E14F07EB460601EB810707EBC10788
:1050400006EB4706F5804FF6FF7500EB801606EB82
:105050004606D94F07EB460601EB810707EBC10770
:1050600006EB47063581002500EB801606EB460669
:10507000D14F07EB460601EB810707EBC10706EBB3
:10508000470675811C2500EB801606EB4606CA4FC5
:1050900007EB460601EB810707EBC10706EB470666
:1050A000F581182500EB801606EB4606C24F07EB8C
:1050B000460601EB810707EBC10706EB470635748F
:1050C000002500EB801606EB4606BB4F07EB4606B5
:1050D00001EB810707EBC10706EB4706758200EB82
:1050E000801606EB4606B44F07EB460601EB810738
:1050F00007EBC10706EB4706B582022500EB8016D9
:1051000006EB4606AC4F07EB460601EB810707EBC3
:10511000C10706EB4706F582A51E172D1CD2DFE856
:1051200005F0EFEEED1CECEBEAE9E81B1B0CE7E603
:105130002CE5C0D0F0E3E2E1E000342500EB80167E
:1051400006EB46069C4F07EB460601EB810707EB93
:10515000C10706EB4706B58144E2C42500EB801683
:1051600006EB4606944F07EB460601EB810707EB7B
:10517000C10706EB4706B58134E2904D95F883519F
:10518000072D02D00B2D76D13AE08D4D95F8335195
:1051900025B1012D12D0022D30D11FE0582500EB92
:1051A000801606EB4606844F07EB460601EB8107A7
:1051B00007EBC10706EB4706B5811FE04C2500EB66
:1051C000801606EB46067C4F07EB460601EB81078F
:1051D00007EBC10706EB4706B5810FE0C02500EBE2
:1051E000801606EB4606744F07EB460601EB810777
:1051F00007EBC10706EB4706B58100BF00BF4EE0D5
:105200006F4D95F8335135B1012D14D0022D22D0B8
:10521000032D41D130E0582500EB801606EB460601
:10522000654F07EB460601EB810707EBC10706EB6D
:105230004706B58130E0582500EB801606EB4606A0
:105240005D4F07EB460601EB810707EBC10706EB55
:105250004706B58120E0582500EB801606EB460690
:10526000554F07EB460601EB810707EBC10706EB3D
:105270004706B58110E011E0582500EB801606EBDB
:1052800046064D4F07EB460601EB810707EBC107CA
:1052900006EB4706B58100BF00BF00E000BF00BFBE
:1052A000A0E1852500EB801606EB4606424F07EB92
:1052B000460601EB810707EBC10706EB4706B58100
:1052C00090E1652500EB801606EB46063A4F07EBAA
:1052D000460601EB810707EBC10706EB4706B581E0
:1052E00080E14EE03DE02CE01BE00AE059E069E19E
:1052F00058E147E145E143E141E114E13EE13CE1B0
:10530000ECE0652500EB801606EB46062A4F07EB1E
:10531000460601EB810707EBC10706EB4706B5819F
:1053200060E1652500EB801606EB4606224F07EB91
:10533000460601EB810707EBC10706EB4706B5817F
:1053400050E1722500EB801606EB46061A4F07EB7C
:10535000460601EB810707EBC10706EB4706B5815F
:1053600040E14C2500EB801606EB4606124F07EB9A
:10537000460601EB810707EBC10706EB4706B5813F
:1053800030E14C2500EB801606EB46060A4F07EB92
:10539000460601EB810707EBC10706EB4706B5811F
:1053A00020E1064D95F88351072D0BD00B2D6FD1C1
:1053B00043E000005B3800100427001004370010A1
:1053C0000CA80020884D95F8335125B1012D12D03D
:1053D000022D30D11FE0792500EB801606EB460642
:1053E000824F07EB460601EB810707EBC10706EB8F
:1053F0004706B5811FE0852500EB801606EB4606C3
:105400007A4F07EB460601EB810707EBC10706EB76
:105410004706B5810FE0962500EB801606EB4606A1
:10542000724F07EB460601EB810707EBC10706EB5E
:105430004706B58100BF00BF4EE06B4D95F8335174
:1054400035B1012D14D0022D23D0032D41D130E0F0
:10545000962500EB801606EB4606644F07EB4606E2
:1054600001EB810707EBC10706EB4706B58130E08A
:10547000962500EB801606EB46065C4F07EB4606CA
:1054800001EB810707EBC10706EB4706B58120E07A
:1054900021E0962500EB801606EB4606534F07EBFE
:1054A000460601EB810707EBC10706EB4706B5810E
:1054B0000FE0962500EB801606EB46064B4F07EBF8
:1054C000460601EB810707EBC10706EB4706B581EE
:1054D00000BF00BF00E000BF00BF83E0444D95F86F
:1054E0008351052D0FD1C42500EB801606EB46062F
:1054F0003E4F07EB460601EB810707EBC10706EBC2
:105500004706B5810EE04C2500EB801606EB4606FB
:10551000364F07EB460601EB810707EBC10706EBA9
:105520004706B5815EE0324D95F88351082D04D0D1
:105530002F4D95F88351092D0FD1C42500EB80160E
:1055400006EB4606294F07EB460601EB810707EB02
:10555000C10706EB4706B5810EE04C2500EB80162F
:1055600006EB4606214F07EB460601EB810707EBEA
:10557000C10706EB4706B58134E000BF00BF00BF9E
:1055800000BF00BF4C2500EB801606EB4606174F08
:1055900007EB460601EB810707EBC10706EB470661
:1055A000B5811FE0642500EB801606EB46060F4F21
:1055B00007EB460601EB810707EBC10706EB470641
:1055C000B5810FE07C2500EB801606EB4606074F01
:1055D00007EB460601EB810707EBC10706EB470621
:1055E000B58100BF00BFF0BD0CA80020042700104B
:1055F000043700102DE9F04705460E4617460024F3
:10560000B046B94600BF27E04B46424621462846F1
:10561000FFF7DCFC05EB851000EB4000124901EBC5
:10562000400004EB840101EBC40100EB41008089E0
:1056300005EB851101EB41010B4A02EB410104EB43
:10564000840202EBC40201EB4201C98A401A4044C1
:105650001FFA80F8601CC4B2044890F87301A0429D
:10566000D2DCBDE8F08700000427001004370010EA
:10567000F0B503460C46184621460022324DED8A0D
:105680000544A8B2304DED8A0D44A9B22F4DA5F8BE
:10569000F800F8356980A1F13005A9B22B4DF83535
:1056A000A880E98000F5A875A8B2284DF8352881B2
:1056B000698118462146F83D95F86F5145B3234D51
:1056C00095F86F516D1EEAB202EB821505EB4505A8
:1056D0001D4E06EB4505ED8A0544A8B202EB821586
:1056E00005EB450506EB45056D8802EB821606EBDA
:1056F0004606154F07EB4606F689354402EB82163F
:1057000006EB460607EB4606F68A3544A9B20FE0DB
:105710000D4DB5F83A590544A8B20B4DB5F82669B8
:10572000B5F832592E44084DB5F83A593544A9B266
:10573000064DF835A881E98100F5C075A8B2034D82
:10574000F83528826982F0BD042700100437001064
:1057500070B5382672251E352A4631460020FFF7DF
:1057600049FF4FF4C372194901F62410FAF728FDD6
:105770001648B0F83219B0F83A09081A284485B228
:10578000002419E02A4631462046FFF733FF04EB98
:10579000841000EB40000D4901EB4000C08904EB90
:1057A000841101EB4101094A02EB4101C98A401A07
:1057B000284485B2601CC4B2054890F86F01A0422D
:1057C000E0DC72213820FFF753FF70BD0427001082
:1057D00004370010F0B53C2351243C225121002015
:1057E0008BE000EB800505EBC006484D25F8162040
:1057F00000EB800505EBC006444D05EB46056980CE
:10580000002600EB800505EBC007404D05EB470582
:10581000AE804FF6FF7600EB800505EBC0073B4DF1
:1058200005EB4705EE80002600EB800505EBC00781
:10583000364D05EB47052E814FF6FF7600EB8005D0
:1058400005EBC007314D05EB47056E814FF4A0769F
:1058500000EB800505EBC0072C4D05EB4705AE813D
:10586000242600EB800505EBC007284D05EB470516
:10587000EE81202600EB800505EBC007234D05EBEC
:1058800047052E74252600EB800505EBC0071F4D4C
:1058900005EB47056E82002600EB800505EBC0078F
:1058A0001A4D05EB4705AE82184D0A3D95F8C150DB
:1058B0006D1E85420CD100EB800505EBC006134D33
:1058C00005EB4605AD8928351544AAB2512112E0F1
:1058D00000EB800505EBC0060C4D05EB46056E8A16
:1058E00000EB800505EBC007084D05EB4705ED898A
:1058F00035440D44A9B2451CE8B2044D0A3D95F863
:10590000C05085423FF76DAFF0BD0000FE1F002084
:10591000F0B5A14D6C5C00EB800505EBC0069E4D1B
:10592000AD1C05EB860501EB810606EBC10625F8EB
:10593000162000EB800505EBC006974DAD1C05EB6E
:10594000860501EB810606EBC10605EB46056B807B
:10595000002864D14FF6FF7600EB800505EBC00709
:105960008D4DAD1C05EB870501EB810707EBC107EA
:1059700005EB4705AE8040F2CF1600EB800505EB46
:10598000C007854DAD1C05EB870501EB810707EBD3
:10599000C10705EB4705EE804FF6FF7600EB80056B
:1059A00005EBC0077C4DAD1C05EB870501EB8107BE
:1059B00007EBC10705EB47052E8140F2CF1600EB40
:1059C000800505EBC007744DAD1C05EB870501EBA9
:1059D000810707EBC10705EB47056E811E2600EB2B
:1059E000800505EBC0076C4DAD1C05EB870501EB91
:1059F000810707EBC10705EB4705EE81182600EB91
:105A0000800505EBC007644DAD1C05EB870501EB78
:105A1000810707EBC10705EB47052E7463E04FF6DE
:105A2000FF7600EB800505EBC0075B4DAD1C05EB79
:105A3000870501EB810707EBC10705EB4705AE8042
:105A40004CF2186600EB800505EBC007524DAD1C0B
:105A500005EB870501EB810707EBC10705EB470560
:105A6000EE804FF6FF7600EB800505EBC0074A4D50
:105A7000AD1C05EB870501EB810707EBC10705EBC3
:105A800047052E814CF2186600EB800505EBC00738
:105A9000414DAD1C05EB870501EB810707EBC10705
:105AA00005EB47056E813C2600EB800505EBC00742
:105AB000394DAD1C05EB870501EB810707EBC107ED
:105AC00005EB4705EE81302600EB800505EBC007AE
:105AD000314DAD1C05EB870501EB810707EBC107D5
