:020000040802F0
:1000000070BC01209D01020887FC0308619F030862
:10001000B5F80308B10E02083D8B0508000000008A
:100020000000000000000000000000000969040852
:10003000E9B8020800000000BD0D0408CFB80408AC
:10004000B7010208B7010208B7010208B7010208A8
:10005000B7010208B7010208B7010208B701020898
:10006000B7010208B7010208B7010208B701020888
:10007000B7010208B7010208B7010208B701020878
:10008000B7010208B7010208B7010208B701020868
:10009000B7010208B7010208B7010208B701020858
:1000A000B7010208B7010208B7010208B701020848
:1000B00031DA040839DA0408B7010208B701020886
:1000C000B7010208B7010208B7010208B701020828
:1000D000B7010208593B0508B7010208B701020839
:1000E000B7010208B7010208B7010208B701020808
:1000F000B7010208B7010208B7010208B7010208F8
:10010000B701020841530408B7010208B701020809
:10011000B7010208B7010208B7010208B7010208D7
:10012000B7010208B7010208B701020861AF02086F
:10013000B70102081DE90208B7010208B701020869
:10014000B7010208B7010208B7010208B7010208A7
:10015000B7010208B7010208B7010208693B0508A8
:10016000B7010208B7010208B7010208B701020887
:10017000B7010208B5FE0308B7010208B70102087B
:10018000B7010208B7010208DFF80CD000F060FAEE
:100190000048004707F7050870BC01200648804763
:1001A00006480047FEE7FEE7FEE7FEE7FEE7FEE75C
:1001B000FEE7FEE7FEE7FEE761C3040889010208E7
:1001C00010B5431A934209D28318881803E010F837
:1001D000011D03F8011D521EF9D210BD40EA0103B2
:1001E0009B0703D009E008C9121F08C0042AFAD2ED
:1001F00003E011F8013B00F8013B521EF9D210BD9B
:10020000D2B201E000F8012B491EFBD27047002258
:10021000F6E710B513460A4604461946FFF7F0FF05
:10022000204610BD421E12F8013F002BFBD111F8F1
:10023000013B02F8013B002BF9D1704710B5044691
:1002400004E00B7800F8013B03B1491C521EF8D2C0
:10025000204610BD421C10F8011B0029FBD1801A5A
:10026000704710B5002200E0521C835C8C5CA342F6
:1002700001D1002BF8D1D8B2E1B2401A10BD30B58F
:1002800004460020034600E05B1C934203D2E05C7E
:10029000CD5C401BF8D030BD034611F8012B00F8AF
:1002A000012B002AF9D11846704730B505460020C9
:1002B000034600E05B1C934205D2EC5CC85C201A4C
:1002C00001D1002CF6D130BD2DE9FE4F81EA0304A7
:1002D00004F0004421F0004100944FF0000B23F0A3
:1002E000004350EA01045ED052EA03045BD0C3F33A
:1002F0000A54C1F30A552C44A4F2F3340194A0FB30
:100300000254C1F3130141F48011C3F3130343F406
:10031000801301FB024400FB034E840A970A44EA5F
:10032000815447EA8357A4FB076802958D0A05FBB1
:1003300007854FEA932C04FB0C542705029D4FEAD6
:10034000065847EA1637B5EB08056EEB070C870E23
:10035000920E47EA811742EA8312A7FB0201B6EB2D
:100360000B0164EB00042B0D43EA0C335E1844EBE5
:100370001C50DA465146E7FB0201C5F313044FEA6D
:100380000B3343EA14534FEA0432019C43EA060359
:10039000A4F10C040294009CCDE900B400F00AF929
:1003A00003B0BDE8F08F00200146F9E770B5C1F356
:1003B0000A5201F000450024C1F3130140F2FF335B
:1003C00041F480119A4201DA002070BD40F23343BB
:1003D0009A42A2F2334203DC524200F095F800E068
:1003E00090402C43F1D0404270BDC1F30A5210B589
:1003F000C1F3130140F2FF3341F480119A4201DA54
:10040000002010BD40F233439A42A2F2334203DC93
:10041000524200F079F810BD904010BD00F000424B
:1004200030F000400AD0C10D01F56071C0F3160034
:1004300042EA0151C20840071143704700200146BB
:100440007047000030B5041E71F1000404DB4FF06A
:100450000044404264EB0101141E73F1000405DB0B
:100460001C464FF00043524263EB04038B4208BF2B
:10047000824230BD30B5041E71F1000404DB4FF040
:100480000044404264EB0101141E73F1000405DBDB
:100490001C464FF00043524263EB0403994208BFED
:1004A000904230BD01F0004330B421F0004150EAE9
:1004B000010206D00A0DA2F56072C1F31301002AF1
:1004C00002DC30BC00207047440F44EAC104C10084
:1004D000E01830BC00EBC25000F026B830B50B4637
:1004E000014600202022012409E021FA02F59D4264
:1004F00005D303FA02F5491B04FA02F52844151E38
:10050000A2F10102F1DC30BD202A04DB203A21FAFD
:1005100002F00021704721FA02F3D040C2F120021C
:1005200091400843194670470029A8BF7047401CF6
:10053000490008BF20F00100704710B4B0FA80FCF9
:1005400000FA0CF050EA010404BF10BC704749B136
:10055000CCF1200421FA04F411FA0CF118BF0121A6
:1005600021430843A3EB0C01CB1D4FEA00614FEA86
:10057000102042BF002010BC704700EBC350104455
:100580000029A4BF10BC7047401C490008BF20F0E0
:10059000010010BC704710B5141E73F1000408DA96
:1005A000401C41F1000192185B411A4301D120F037
:1005B000010010BD2DE9F04D92469B4611B1B1FAF4
:1005C00081F202E0B0FA80F22032904600F052F858
:1005D00004460F4640EA0A0041EA0B0153465A46D8
:1005E000084313D0114653EA010019D0C8F1400264
:1005F0005046FFF789FF05460E465046594642468B
:1006000000F038F8084305D0012004E020463946C0
:10061000BDE8F08D0020054346EAE0762C433743E1
:100620000A986305E40AA0EB08000022FD0A44EAE8
:1006300047540A3002D500200146E9E701051019A8
:100640006941DDE9084500196941BDE8F04DA2E7BF
:10065000064C074D06E0E06840F0010394E807000F
:1006600098471034AC42F6D3FFF792FD48D1060804
:1006700088D10608202A04DB203A00FA02F1002083
:1006800070479140C2F1200320FA03F319439040D0
:10069000704770B58C1810F8015B15F0070301D195
:1006A00010F8013B2A1106D110F8012B03E010F8D5
:1006B000016B01F8016B5B1EF9D12B0705D40023F8
:1006C000521E0DD401F8013BFAE710F8013BCB1A9A
:1006D000921C03E013F8015B01F8015B521EF9D58F
:1006E000A142D8D3002070BD10B52DED0A8BF0EEDD
:1006F000408AB0EE609A18F04FFEB0EE408A18F0D3
:1007000033FBF0EE409A9FED2A0AB0EE40AAB7EE16
:10071000000AF0EE40AA18EE100AFFF77FFE41EC47
:100720001C0BB0EE4C0AF0EE6C0A38F079FAB0EE21
:1007300040BAF0EE60BA9FED1F0B53EC102B51EC5A
:100740001B0BFFF77FFE03D2B7EE000AB0EE408A24
:1007500089EE880AF7EE000A20EE200A79EE680A90
:1007600020EE200AB0EE40AA00BF18EE100AFFF7F4
:1007700055FE41EC1C0BB0EE4C0AF0EE6C0A38F062
:100780004FFAB0EE40BAF0EE60BA9FED0A0B53ECB0
:10079000102B51EC1B0BFFF76DFE02D307A038F0B6
:1007A0002FFA00BFB0EE4A0ABDEC0A8B10BD000064
:1007B00000000000000000E0E2361A3FD4ADCABCE1
:1007C000B1EABEE0B3FDC1E3B4EDCEF3A3A10D0ADF
:1007D000000000002DE9F04705460E46144618F0CB
:1007E000CDFA074619F006FB804617F07BFF8146DD
:1007F00025B1012D10D0022D4ED12DE017B1012FC2
:1008000008D106E03046A0473046A0473046A04712
:1008100000E000BF00BF40E0B8F1000F09D0B8F120
:10082000010F07D0B8F1020F07D0B8F1030F10D1B4
:1008300008E00FE03046A0470CE03046A0473046C5
:10084000A04707E03046A0473046A0473046A047C3
:1008500000E000BF00BF20E0B9F1000F09D0B9F1FE
:10086000010F07D0B9F1020F07D0B9F1030F10D172
:1008700008E00FE03046A0470CE03046A047304685
:10088000A04707E03046A0473046A0473046A04783
:1008900000E000BF00BF00E000BF00BFBDE8F08780
:1008A00001460148405C7047EA0400200246FF20F0
:1008B000002107E0074B5B5C934201D1084607E04B
:1008C0004B1CD9B2034B9B1E93F8FE308B42F1DCDC
:1008D00000BF7047EA04002010B50446062C26D25B
:1008E000DFE804F0251009171E03124A012108460B
:1008F00027F04CF81CE00F4A121D0121084627F092
:1009000045F815E00B4A08320121084627F03EF869
:100910000EE0084A0C320121084627F037F807E0BC
:10092000044A10320121084627F030F800E000BFE9
:1009300000BF10BDCC6206082DE9F04107460C4609
:1009400015461E46302038F0FBF8384638F0FEF8E1
:10095000312038F0F5F8381238F0F8F8342038F053
:10096000EFF8204638F0F2F8352038F0E9F8201298
:1009700038F0ECF8322038F0E3F8284638F0E6F8A2
:10098000332038F0DDF8281238F0E0F8362038F05F
:10099000D7F8304638F0DAF8372038F0D1F830128E
:1009A00038F0D4F822F056F8BDE8F08107201E494F
:1009B00081F8C000052081F8C10000208870012165
:1009C0001948C17002210171032141710421817113
:1009D0000521C17106210172144800681249C1F84D
:1009E000C400124841681048C0F8C8100F48816818
:1009F0000D48C0F8CC100D48C1680B48C0F8D010A5
:100A00000A4801690848C0F8D410084841690648F6
:100A1000C0F8D810054881690348C0F8DC1004A06C
:100A20000149C1F8E000704740130020DC6406086B
:100A3000B8DFBCB6B2CECAFD00000000FF200649F8
:100A40004870002081F8E40081F8E50000210248A8
:100A500080F8E610704700004013002010B51AF02F
:100A6000CBF801281BD118F037FBB0F5802F03D04D
:100A7000B0F5801F12D108E001200A4981F8E50095
:100A80000121084880F8E61008E00120054981F8B6
:100A9000E5000021034880F8E61000BF00BF00F029
:100AA000FDF810BD4013002010B5284890F8E5006F
:100AB00001284AD1254890F8E600012842D1234870
:100AC0000178801C405C07283BD2DFE800F004116D
:100AD0001E22262A3700012026F04AFF1F2026F07A
:100AE0003BFF142026F03EFF152026F029FF28E0CA
:100AF000012026F03DFF1F2026F02EFF132026F0B8
:100B000031FF152026F01CFF1BE0112026F018FFF6
:100B100017E0122026F014FF13E0102026F010FF3B
:100B20000FE0012026F024FF1F2026F015FF2320D0
:100B300026F018FF152026F003FF02E01BF0BEFD93
:100B400000BF02E0082026F0FBFE10BD401300208D
:100B500010B53D4890F8E400012874D13A48407837
:100B6000FF284ED03848407800EB800101EBC001EF
:100B700035480A3000EB410001893348407800EBEA
:100B8000800202EBC00230480A3000EB4200818054
:100B90002D48407800EB800101EBC0012A480A3063
:100BA00000EB410041892848407800EB800202EBCD
:100BB000C00225480A3000EB4200C1802249487833
:100BC00012F04EFC4FF6FF711F48007800EB8002D8
:100BD00002EBC0021C480A3000EB420081804FF655
:100BE000E0211948007800EB800202EBC0021648B1
:100BF0000A3000EB4200C1801349087812F030FC43
:100C00001DE04FF6FF711048007800EB800202EB08
:100C1000C0020D480A3000EB420081804FF6E0210F
:100C20000948007800EB800202EBC00206480A3057
:100C300000EB4200C1800449087812F011FC024820
:100C400000780149487010BD401300201CB50020F9
:100C5000114981F8E40001208DF80000084690F861
:100C6000C1008DF8010002208DF80200084690F8BE
:100C7000C0008DF803000846019068461AF0A0FEF7
:100C80000548007804494978884203D00120024988
:100C900081F8E4001CBD00004013002010B50024C2
:100CA00018F0CAFB0446002C0FDD084890F8C0007D
:100CB000A0420ADB0120054981F8E5000121034833
:100CC00080F8E610601E0149087010BD4013002036
:100CD0000421024A117211460860704778AB002067
:100CE00000B589B043F0D4FF01A83CF0BDFADDE9BE
:100CF0000101CDE904019DF8130000909DF8123028
:100D0000BDF810201EA106A844F016FB06A802F0AC
:100D100057F9002831D11EA000234FF6FF72009032
:100D20001F4801881F48008813F03CFB1FF086FF16
:100D30008DF80C0021F056FC8DF80D0021F034FDEB
:100D40008DF80E009DF80C0080B99DF80D0068B973
:100D50009DF80E0050B914A000231A4600901048C8
:100D600001881048008813F01DFB06E0134A01219A
:100D7000084626F00BFE20F0CDF809B000BD0000BB
:100D800025303464253032642530326400000000A0
:100D9000D5FDD4DAD7D4B6AFB1B8B7DD2E2E2E003C
:100DA00006000020040000202020202020202020F9
:100DB000202020202020202000000000945706083A
:100DC00010B538F07FFC38F087FA38F004FC38F0C2
:100DD0004DFB38F0E5FB38F013FC38F099FA38F0A9
:100DE000B7FC38F04FFB38F025FB38F07DFA10BD2A
:100DF00010B522480078002836D0012802D00228F9
:100E000033D110E01E480088401C1D490880084668
:100E100000881C490988884204DB00F039F8022068
:100E20001649087027E016480088401C14490880BD
:100E30000846008814490988884214DB00201049BC
:100E400008801248008801280ADD10480088401EEA
:100E50000E49088001200949087000F021F802E0DD
:100E600000200649087006E005E000F011F80020B7
:100E70000249087000BF00BF10BD00004000002004
:100E800044000020480000204600002042000020CE
:100E900010B54FF0004002F017FD1FF099FB10BD98
:100EA00010B54FF0004026F043FD1FF091FB10BD40
:100EB00000BFFEE738B504460020009017F046FC5E
:100EC000054694FBF5F005FB1040C0B28DF800001C
:100ED00094FBF5F0401CC0B28DF80100BDF8001085
:100EE000084638BD2DE9F047054617F02FFC0746A8
:100EF0000026B046B146002028706870012F07DA3E
:100F0000304A0121084626F041FD0020BDE8F08767
:100F1000012017F003FC064600244EE004EBC40257
:100F2000294901EB420106EBC60288180A2200217A
:100F300044F02BFA8046611C01EBC102224901EB0F
:100F4000420106EBC60288180A22002144F01DFA6D
:100F500081464846B8F1000101DB0A4600E04A42FA
:100F6000002801DB034600E043429A4223DB2C7059
:100F70006E70164890F8330320B1012809D002287A
:100F800015D10DE00F4A121D0121084626F0FEFC86
:100F90000EE00C4A08320121084626F0F7FC07E073
:100FA000084A0C320121084626F0F0FC00E000BFA0
:100FB00000BF0020AAE7601CC4B2781EA042ADDCCE
:100FC0000120A3E738630608BA1100207C0F002037
:100FD00010B50446012C01DB0A2C06DD044A012170
:100FE000084626F0D3FC002010BD0120FCE70000DD
:100FF00034630608594991F8331321B1012907D008
:1010000002290FD109E056A1544AC2F828130AE078
:1010100059A1524AC2F8281305E05DA14F4AC2F80F
:10102000281300E000BF00BF02214C4A82F82F13B2
:10103000002182F823130122484981F824235A49C8
:101040000968464AC2F81813114691F8331321B1C2
:10105000012912D002295CD135E0404991F83013C2
:1010600029B951494A683D49C1F81C2304E04E4959
:101070008A683A49C1F81C234CE0384991F8311389
:1010800031B101290AD002290ED0032918D111E06B
:101090004549CA683149C1F81C2312E042490A692E
:1010A0002E49C1F81C230CE03F494A692B49C1F87D
:1010B0001C2306E03C498A692849C1F81C2300E04A
:1010C00000BF00BF26E0254991F8321331B1012954
:1010D0000AD002290ED0032918D111E03249CA687A
:1010E0001E49C1F81C2312E02F490A691B49C1F8A7
:1010F0001C230CE02C494A691849C1F81C2306E05E
:1011000029498A691549C1F81C2300E000BF00BFC6
:1011100000E000BF00BF0121104A82F82113002225
:101120000E4981F82223002015E0002200EB800107
:1011300001EBC0030949891C01EB83014A7600EBEE
:10114000800101EBC0030549891C01EB830181F893
:101150003320411CC8B20A28E7DB70477C0F00200F
:10116000B8BABAC9CDA8B5C0207C20B1EAB6A8B239
:10117000CECAFDC9E8D6C300CEBBD2C6CDA8B5C085
:10118000207C20B1EAB6A8B2CECAFDC9E8D6C30019
:10119000B1E4D0CECDA8B5C0207C20B1EAB6A8B2CB
:1011A000CECAFDC9E8D6C3001863060870B517F0AB
:1011B000CDFA04460C4805780078401C0A490870AE
:1011C0000846017890F82F03401E10FB04F091FBB5
:1011D000F0F200FB12100449087008460078A8429B
:1011E00001D1FF20487070BD7C0F002010B5FF209A
:1011F00011494870002081F82503012081F82C0353
:10120000002081F82D0300210B4880F82E1317F0E1
:10121000B5FD094981F8300318F0ECFD064981F865
:10122000310317F05FFA044981F8320317F0C4FA6A
:10123000014981F8330310BD7C0F0020F8B56548E3
:1012400005782846FFF736FE009019F0D5FC0128F6
:1012500070D117F041FFB0F5802F09D0B0F5801F95
:1012600073D0B0F1805F67D0B0F1005F6CD194E0D3
:1012700018F046F90446201E02D0022862D100E090
:10128000F8BD544890F8340350BB18F035F906788F
:101290003046FFF79DFED0B14E4890F81503A0B937
:1012A00018F02AF94B49066891F8200301F2F2225E
:1012B00031463EF079FD17F049FA064601F0E4FEAA
:1012C0000120444981F8350300E000BF00BF012040
:1012D000404981F82D0300213E4880F82E13CFE7C6
:1012E0009DF8000000EB800101EBC0013948801C33
:1012F00000EB81009DF8011001EB810202EBC101BE
:1013000000EB4100407EC0B918F0F6F89DF80010DF
:1013100001EBC103304901EB43019DF8013003EBC0
:10132000C303CA182B49066891F8200331463EF0E2
:101330003BFD03E04CE008E03DE000BF00BF00F0F3
:101340007BFB00E000BF00BF41E018F0D9F8044685
:10135000201E02D003281DD10BE0082026F0F0FA51
:1013600001201C4981F82D0300211A4880F82E1312
:1013700011E0184890F8340320B90120154981F88C
:10138000250302E0FF20134948700120114981F82C
:101390002C0300E000BF00BF19E017F029FA064651
:1013A00026F0CEFA01200B4981F82D0301210948CE
:1013B00080F82E130BE0082026F0C2FA0120054920
:1013C00081F82D030021034880F82E1300BF00BFD1
:1013D00000BF55E77C0F0020BA11002008B50C486B
:1013E00090F82D03012810D1094890F82E03012808
:1013F0000BD16846FFF776FD28B9072026F0A0FA42
:101400001FF088FD08BD00F021FB00BFFAE70000D7
:101410007C0F002010B5124890F8250301281DD13B
:1014200000200F4981F82503084690F8340318B9C5
:10143000012000F0ABFA0DE009484078FF2804D005
:1014400007484178002000F077FB0548017801202B
:1014500000F072FB024800780149487010BD00009E
:101460007C0F0020FEB5002417F070F90546002619
:1014700019F0C2FB012833D117F02EFE04462D4887
:1014800090F8340388B9B4F5003F29D10126002033
:1014900000F07CFA0120274981F8250381F8340304
:1014A00000200870FF2048701AE022490878FFF7F2
:1014B00001FD0090B4F5002F12D19DF8000078B91D
:1014C00001261C480178002000F036FB0120194954
:1014D00081F82503002081F834030870FF2048704C
:1014E000012E00D1FEBD01208DF804008DF80550BD
:1014F000104890F82F03401EC0B28DF806009DF8EA
:1015000005009DF8061010FB01F0C0B28DF8070031
:101510000848029001A81AF053FA064800780549D5
:101520004978884203D00120024981F8250300BF91
:10153000D8E700007C0F002038B517F0D1FF044633
:10154000A74805782846FFF7B5FC009021F06AFA15
:1015500040F2CB2020804FF4CD70608041F6FC40FB
:10156000A0809F4890F8340320B99D48B0F8060346
:10157000E08013E09DF8000000EB800101EBC0016A
:101580009748801C00EB81009DF8011001EB81025F
:1015900002EBC10100EB41004089E0804FF6FF7093
:1015A000A08240F2CF10E08201202072A0728C480D
:1015B00090F8340380B98A48B0F8FC12B0F81203EE
:1015C0000844401CA0818648B0F8FE12B0F812030F
:1015D0000844401CE08150E09DF8000000EB8001D1
:1015E00001EBC0017E48801C00EB81009DF80110DA
:1015F00001EB810202EBC10130F811109DF80000EF
:1016000000EB800202EBC0027548801C00EB8200F8
:101610009DF8012002EB820303EBC20200EB4200C3
:10162000C08A0844401CA0819DF8000000EB8001A6
:1016300001EBC0016A48801C00EB81009DF801109D
:1016400001EB810202EBC10100EB410041889DF8F2
:10165000000000EB800202EBC0026148801C00EB3E
:1016600082009DF8012002EB820303EBC20200EB33
:101670004200C08A0844401CE08108202076607641
:10168000574890F8340398B95548B0F80813B0F8A3
:101690001203022202FB1010801E20825048B0F874
:1016A0000A13B0F8120302FB1010801E608255E08E
:1016B0009DF8000000EB800101EBC0014848801C50
:1016C00000EB81009DF8011001EB810202EBC101EA
:1016D00000EB410081899DF8000000EB800202EBE5
:1016E000C0023F48801C00EB82009DF8012002EB05
:1016F000820303EBC20200EB4200C08A022202FB1B
:101700001010801E20829DF8000000EB800101EB8C
:10171000C0013348801C00EB81009DF8011001EBF3
:10172000810202EBC10100EB4100C1899DF800007C
:1017300000EB800202EBC0022948801C00EB820013
:101740009DF8012002EB820303EBC20200EB420092
:10175000C08A022202FB1010801E60822148E061D4
:101760001F4890F8340350B91D4890F8150384F8C9
:1017700020001B4890F80C0384F8220029E09DF813
:10178000000000EB800101EBC0011548801C00EB5C
:1017900081009DF8011001EB810202EBC10100EB19
:1017A0004100407E84F820009DF8000000EB80019D
:1017B00001EBC0010A48801C00EB81009DF801107C
:1017C00001EB810202EBC10100EB4100007C84F8D7
:1017D0002200002084F8230020461AF02BFA38BD9E
:1017E0007C0F00209C1200202DE9F0412DED028B92
:1017F0000024002500269FED600AB0EE408A0127F4
:101800005E4991F8330340F033FC0446022C01DBBF
:101810000B2C00DD0224601EC4B2584890F835033A
:1018200028B9574A214608203EF0BEFA02E016F0D9
:101830008DFF0446002594E0002016F06FFF064659
:1018400005EBC5014E48B43800EB410006EBC6017C
:101850004218394608203EF0A7FA781CC7B247481C
:1018600090F8350300287AD1012016F057FF06467C
:101870006A1CD1B2414A92F8330340F019FCB0EE31
:10188000408A3E4890F8330320B101280DD0022849
:1018900053D12EE0394890F8300328B99FED390A2A
:1018A000C8EE000AB0EE608A48E0344890F8310390
:1018B00030B1012805D002280AD0032816D10EE045
:1018C00015E0B2EE040AC8EE000AB0EE608A0EE03F
:1018D0009FED2D0AC8EE000AB0EE608A07E09FED8A
:1018E000290AC8EE000AB0EE608A00E000BF00BF1F
:1018F00024E0224890F8320330B1012805D00228B4
:101900000AD0032816D10EE015E0B2EE040AC8EEA4
:10191000000AB0EE608A0EE09FED1B0AC8EE000AD6
:10192000B0EE608A07E09FED170AC8EE000AB0EE3D
:10193000608A00E000BF00BF00E000BF00BF05EB11
:10194000C5010F48B43800EB410006EBC601421850
:10195000BDEEC80A10EE101A08203EF025FA681CE9
:10196000C5B2A542FFF668AF0020044981F83503EF
:10197000BDEC028BBDE8F081000000007C0F002070
:101980006E12002000007A440000C84210B50446E0
:1019900054B1012C12D100210A48A0F800134FF6CF
:1019A000E021A0F8021309E00648B0F80413A0F8FB
:1019B0000013B0F80613A0F8021300BF00BF26F012
:1019C0007FFB10BD7C0F002010B517F0A7FE04466A
:1019D0000D4890F82C03012815D100200A4981F800
:1019E0002C030C2020704FF6FF70608040F2CF1067
:1019F000A0800648D0F850112161D0F80C11616127
:101A0000204626F093F910BD7C0F0020509C06085C
:101A100010B516F09BFE04460648017890F82F0397
:101A2000401E10FB04F0814202DB002001490870D7
:101A300010BD00007C0F002010B5FFF7B7FB0120A0
:101A4000014981F82C0310BD7C0F00202DE9F041E5
:101A500000260024002716F079FE0646012016F025
:101A60005DFE0746002558E005EBC5022F4901EB56
:101A7000420107EBC70288180A22002143F085FCC7
:101A800004462B4890F8330320B101280AD00228DD
:101A90003CD121E0264890F8300310B94FF47A7019
:101AA000444334E0224890F8310330B1012805D096
:101AB000022807D003280CD107E00BE004EB8400D8
:101AC000440007E06420444304E04FF47A70444348
:101AD00000E000BF00BF1AE0154890F8320330B1B3
:101AE000012805D0022807D003280CD107E00BE01D
:101AF00004EB8400440007E06420444304E04FF416
:101B00007A70444300E000BF00BF00E000BF00BFA8
:101B1000084840F82540681CC5B2B542A4DB16F061
:101B200015FE0449091F0870BDE8F081BA110020B4
:101B30007C0F0020B812002038B504460D46284618
:101B4000FFF7B8F900904CB3012C70D100219DF83B
:101B5000000000EB800202EBC002394800EB82007B
:101B60009DF8012002EB820303EBC20200EB42006E
:101B700081804FF6E0219DF8000000EB800202EB2F
:101B8000C0022F4800EB82009DF8012002EB820387
:101B900003EBC20200EB4200C18048E09DF8000068
:101BA00000EB800101EBC001254800EB81009DF8AE
:101BB000011001EB810202EBC10100EB4100018940
:101BC0009DF8000000EB800202EBC0021C4800EB15
:101BD00082009DF8012002EB820303EBC20200EBBE
:101BE000420081809DF8000000EB800101EBC00104
:101BF000134800EB81009DF8011001EB810202EB1C
:101C0000C10100EB410041899DF8000000EB80021A
:101C100002EBC0020A4800EB82009DF8012002EBB3
:101C2000820303EBC20200EB4200C18000BF00BF91
:101C30009DF801109DF8000026F01EF938BD000047
:101C40007E0F002038B504460020009016F0AAFD53
:101C5000054694FBF5F005FB1040C0B28DF800007E
:101C600094FBF5F0401CC0B28DF80100BDF80010E7
:101C7000084638BD2DE9F047054616F093FD81462C
:101C800000260027B046002028706870B9F1010FC7
:101C900007DA5F4A0121084625F078FE0020BDE8FA
:101CA000F087012016F066FD064600244FE004EBA5
:101CB000C40101EB41025749114406EBC6028818E2
:101CC0000A22002143F061FB0746611C01EBC101C0
:101CD00001EB41024F49114406EBC60288180A2263
:101CE000002143F052FB80464046391E01DB0A4684
:101CF00000E04A42002801DB034600E043429A42EA
:101D000023DB2C706E70444890F8AF0420B101289A
:101D100009D0022815D10DE03D4A121D01210846C7
:101D200025F034FE0EE03A4A0C320221012025F063
:101D30002DFE07E0364A18320221012025F026FE4A
:101D400000E000BF00BF0020A9E7601CC4B2A9F1F9
:101D50000100A042ABDC022016F00CFD0646002478
:101D60004FE004EBC40101EB41022A49114406EBA8
:101D7000C60288180A22002143F007FB0746611CAF
:101D800001EBC10101EB41022249114406EBC602FD
:101D900088180A22002143F0F8FA80464046391E8E
:101DA00001DB0A4600E04A42002801DB034600E06E
:101DB00043429A4223DB2C706E70174890F8AF04B0
:101DC00020B1012809D0022815D10DE0104A0832AF
:101DD0000121084625F0DAFD0EE00D4A14320121FA
:101DE000084625F0D3FD07E0094A203201210846C4
:101DF00025F0CCFD00E000BF00BF00204FE7601CD5
:101E0000C4B2A9F10100A042ABDC012047E7000009
:101E10002C6206087C0300102000001010B5044658
:101E2000012C01DB0A2C06DD044A0121084625F0BD
:101E3000ADFD002010BD0120FCE70000286206086F
:101E4000784991F8AF1421B1012907D002290FD1A7
:101E500009E075A1734AC2F8A4140AE076A1714A98
:101E6000C2F8A41405E078A16E4AC2F8A41400E0F8
:101E700000BF00BF03216B4A82F8AB14002182F837
:101E8000A0140122674981F8A124022281F8A2242A
:101E900071490968634AC2F89014114691F8AF1469
:101EA00021B1012917D0022970D14EE05D4991F886
:101EB000AC1429B968494A685A49C1F8942404E025
:101EC00065498A685749C1F894246349CA685549E5
:101ED000C1F8982475E0534991F8AD1431B1012946
:101EE0000FD0022918D003292CD120E05A490A69C1
:101EF0004C49C1F8942458490A6A4A49C1F89824BF
:101F000021E055494A694749C1F8942452490A6A6F
:101F10004449C1F8982416E04F498A694149C1F8FB
:101F200094244D490A6A3F49C1F898240BE04A4974
:101F3000CA693C49C1F8942447490A6A3949C1F839
:101F4000982400E000BF00BF3BE0364991F8AE1492
:101F500031B101290FD0022919D003292DD121E057
:101F60003D490A692F49C1F894243B494A6A2D49E1
:101F7000C1F8982422E038494A692A49C1F89424D2
:101F800035494A6A2749C1F8982417E018E03249D0
:101F90008A692449C1F894242F494A6A2149C1F821
:101FA00098240BE02C49CA691E49C1F894242A4997
:101FB0004A6A1C49C1F8982400E000BF00BF00E055
:101FC00000BF00BF0121174A82F89D140022154965
:101FD00081F89E2481F89F2400201FE00022C0EB9E
:101FE000C00101EB40130F49891C01EB43014A7604
:101FF000C0EBC00101EB40130A49891C01EB43010E
:1020000081F83320C0EBC00101EB40130549891C66
:1020100001EB430181F84D20411CC8B20A28DDDBE9
:102020007047000020000010B8BABAC9CDA8B5C0EA
:10203000B1EAB6A8B1ED0000CEBBD2C6CDA8B5C0FE
:10204000B1EAB6A8B1ED0000B1E4D0CECDA8B5C0DC
:10205000B1EAB6A8B1ED00000062060870B516F04E
:10206000A1FB04461748007890FBF4F0401CC5B271
:1020700014480678012016F07DFBA84205D11148CE
:10208000007820440F49087008E00E480078001BD3
:102090000C49087008460078401C0870094801780F
:1020A00090F8AB04401E604391FBF0F200FB12106D
:1020B0000449087008460078B04201D1FF204870FA
:1020C00070BD00002000001010B5FF2011494870BD
:1020D000002081F8A304012081F8A804002081F8E1
:1020E000A90400210B4880F8AA1416F047FE0949FC
:1020F00081F8AC0417F07EFE064981F8AD0416F0B5
:10210000F1FA044981F8AE0416F056FB014981F852
:10211000AF0410BD20000010F8B56E4805782846C1
:10212000FFF790FD009018F067FD012873D116F0BD
:10213000D3FFB0F1805F6FD009DCB0F1004F6CD0FD
:10214000B0F5802F0AD0B0F5801F67D16FE0B0F1F5
:10215000005F73D0B0F1804FF7D19CE017F0D0F959
:10216000044614B1022C5FD100E0F8BD594890F844
:10217000B00428BB17F0C0F906783046FFF74EFED2
:10218000A8B1544890F88D0478B917F0B5F95149C1
:10219000066891F89C0401F26A4231463DF004FE63
:1021A00001204C4981F8B10400E000BF00BF0120CC
:1021B000484981F8A9040021464880F8AA14D4E7C8
:1021C0009DF80000C0EBC00101EB40114148801CAC
:1021D00000EB41009DF8011001EB810202EBC1010F
:1021E00000EB4100407ED0B917F086F99DF8001051
:1021F00001EBC10101EB4103374919449DF801305E
:1022000003EBC303CA183349066891F89C043146AE
:102210003DF0CAFD04E05AE04CE030E056E000BF7B
:1022200000BF00F04FFC00E000BF00BF4EE017F021
:1022300067F904461CB1032C1ED10CE02EE00820E7
:1022400025F07EFB0120234981F8A90400212148C3
:1022500080F8AA1411E01F4890F8B00420B90120BA
:102260001C4981F8A30402E0FF201A4948700120AC
:10227000184981F8A80400E000BF00BF26E009204B
:1022800025F05EFB0120134981F8A90401211148C2
:1022900080F8AA141AE000F0D1F817E0082025F021
:1022A0004FFB01200B4981F8A9040121094880F85E
:1022B000AA140BE0082025F043FB0120054981F812
:1022C000A9040021034880F8AA1400BF00BF00BF82
:1022D0004BE70000200000107C03001008B50D48FB
:1022E00090F8A904012812D10A4890F8AA040128FC
:1022F0000DD16846FFF7BEFC28B90A2025F020FB67
:102300001EF008FE08BD00F0E7FB25F00BFB00BF48
:10231000F8E700002000001010B5124890F8A30460
:1023200001281DD100200F4981F8A304084690F828
:10233000B00418B9012000F0E3FA0DE00948407834
:10234000FF2804D007484178002000F035FB0548FD
:102350000178012000F030FB024800780149487004
:1023600010BD000020000010FEB5002416F01AFA7F
:102370000546002618F040FC012833D116F0ACFECB
:1023800004462D4890F8B00488B9B4F5003F29D12F
:102390000126002000F0B4FA0120274981F8A304A7
:1023A00081F8B00400200870FF2048701AE022492C
:1023B0000878FFF747FC0090B4F5002F12D19DF884
:1023C000000078B901261C480178002000F0F4FADA
:1023D0000120194981F8A304002081F8B004087095
:1023E000FF204870012E00D1FEBD01208DF80400B1
:1023F0008DF80550104890F8AB04401EC0B28DF81F
:1024000006009DF805009DF8061010FB01F0C0B213
:102410008DF807000848029001A819F0D1FA064883
:10242000007805494978884203D00120024981F8A3
:10243000A30400BFD8E700002000001010B525F06D
:10244000B3FC0A4991F8AF041EF0B8FE40B9012070
:10245000064981F8A9040021044880F8AA1403E081
:102460000120024981F8A80410BD000020000010DE
:1024700038B517F035F80446A74805782846FFF721
:10248000E1FB009020F0CEFA40F2CB2020804FF408
:10249000CD70608041F6FC40A0809F4890F8B00469
:1024A00020B99D48B0F87E04E08013E09DF800005C
:1024B000C0EBC00101EB40119748801C00EB4100CC
:1024C0009DF8011001EB810202EBC10100EB41001C
:1024D0004089E0804FF6FF70A08240F2CF10E0828A
:1024E00001202072A0728C4890F8B00480B98A480C
:1024F000B0F87414B0F88A040844401CA0818648DF
:10250000B0F87614B0F88A040844401CE08150E02A
:102510009DF80000C0EBC00101EB40117E48801C1B
:1025200000EB41009DF8011001EB810202EBC101BB
:1025300030F811109DF80000C0EBC00202EB401211
:102540007548801C00EB42009DF8012002EB8203DD
:1025500003EBC20200EB4200C08A0844401CA08189
:102560009DF80000C0EBC00101EB40116A48801CDF
:1025700000EB41009DF8011001EB810202EBC1016B
:1025800000EB410041889DF80000C0EBC00202EB67
:1025900040126148801C00EB42009DF8012002EBD4
:1025A000820303EBC20200EB4200C08A0844401CD5
:1025B000E081082020766076574890F8B00498B9FA
:1025C0005548B0F88014B0F88A04022202FB1010BB
:1025D000801E20825048B0F88214B0F88A0402FBB2
:1025E0001010801E608255E09DF80000C0EBC00115
:1025F00001EB40114848801C00EB41009DF80110A0
:1026000001EB810202EBC10100EB410081899DF8E1
:102610000000C0EBC00202EB40123F48801C00EB00
:1026200042009DF8012002EB820303EBC20200EBA3
:102630004200C08A022202FB1010801E20829DF8F8
:102640000000C0EBC00101EB40113348801C00EBDF
:1026500041009DF8011001EB810202EBC10100EB8A
:102660004100C1899DF80000C0EBC00202EB40129E
:102670002948801C00EB42009DF8012002EB8203F8
:1026800003EBC20200EB4200C08A022202FB1010E0
:10269000801E60822148E0611F4890F8B00450B964
:1026A0001D4890F88D0484F820001B4890F884049D
:1026B00084F8220029E09DF80000C0EBC00101EB86
:1026C00040111548801C00EB41009DF8011001EB02
:1026D000810202EBC10100EB4100407E84F8200042
:1026E0009DF80000C0EBC00101EB40110A48801CBE
:1026F00000EB41009DF8011001EB810202EBC101EA
:1027000000EB4100007C84F82200002084F82300C4
:10271000204619F08FFA38BD20000010BC040010CC
:102720002DE9F0472DED028B0025A9460024002657
:102730009FED6D0AB0EE408A0127A0466B4991F8E3
:10274000AF043FF095FC0546022D01DB0B2D00DDAB
:102750000225681EC5B2A946644890F8B10428B99C
:10276000634A294608203DF01FFB06E016F01AF8E0
:10277000054600205D4981F8B1040024ACE000204A
:1027800015F0F8FF064604EBC40000EB4001594881
:10279000084406EBC6014218394608203DF004FB08
:1027A000781CC7B24C457CDA012015F0E3FF0646E1
:1027B000621CD1B24D4A92F8AF043FF079FCB0EE02
:1027C000408A4A4890F8AF0420B101280DD0022871
:1027D00053D12EE0454890F8AC0428B99FED460A45
:1027E000C8EE000AB0EE608A48E0404890F8AD04B8
:1027F00030B1012805D002280AD0032816D10EE0F6
:1028000015E0B2EE040AC8EE000AB0EE608A0EE0EF
:102810009FED3A0AC8EE000AB0EE608A07E09FED2D
:10282000360AC8EE000AB0EE608A00E000BF00BFC2
:1028300024E02E4890F8AE0430B1012805D00228DB
:102840000AD0032816D10EE015E0B2EE040AC8EE55
:10285000000AB0EE608A0EE09FED280AC8EE000A7A
:10286000B0EE608A07E09FED240AC8EE000AB0EEE1
:10287000608A00E000BF00BF00E000BF00BF04EBC3
:10288000C40000EB40011B48084406EBC601421897
:10289000BDEEC80A10EE101A08203DF085FA02209D
:1028A00000E017E015F066FF0646621CD1B20F4A41
:1028B00092F8AF043FF0B8FB804604EBC40000EB95
:1028C00040010C48084406EBC60142184146082066
:1028D0003DF06AFA601CC4B2AC42FFF650AFBDECEA
:1028E000028BBDE8F087000000000000200000100F
:1028F0008A0400107C03001000007A440000C842E3
:1029000010B5044654B1012C12D100210A48A0F898
:1029100078144FF6E021A0F87A1409E00648B0F8E0
:102920007C14A0F87814B0F87E14A0F87A1400BFD4
:1029300000BF25F047FD10BD2000001010B516F0B7
:10294000EDFE0446104890F8A80401281AD1002092
:102950000D4981F8A8040F2020704FF6FF706080A9
:1029600040F2CF10A08009480069A0600748C16C00
:10297000E160D0F894102161D0F8E8106161204640
:1029800025F0D4F910BD000020000010509C06086E
:1029900010B515F007FF04460648017890F8AB041F
:1029A000401E10FB04F0814202DB00200149087048
:1029B00010BD00002000001038B504460D46284622
:1029C000FFF740F900904CB3012C70D100219DF825
:1029D0000000C0EBC00202EB4012394800EB42009D
:1029E0009DF8012002EB820303EBC20200EB4200E0
:1029F00081804FF6E0219DF80000C0EBC00202EBA1
:102A000040122F4800EB42009DF8012002EB8203A8
:102A100003EBC20200EB4200C18048E09DF80000D9
:102A2000C0EBC00101EB4011254800EB41009DF8CF
:102A3000011001EB810202EBC10100EB41000189B1
:102A40009DF80000C0EBC00202EB40121C4800EBF6
:102A500042009DF8012002EB820303EBC20200EB6F
:102A6000420081809DF80000C0EBC00101EB4011E5
:102A7000134800EB41009DF8011001EB810202EBCD
:102A8000C10100EB410041899DF80000C0EBC0028C
:102A900002EB40120A4800EB42009DF8012002EBD5
:102AA000820303EBC20200EB4200C18000BF00BF03
:102AB0009DF801109DF8000025F05CFB38BD00007A
:102AC0002200001010B5FFF7C9FA0120014981F872
:102AD000A80410BD200000102DE9F04100260025BB
:102AE00000270024A04615F05DFE0646012E01DBFE
:102AF0000A2E01DDBDE8F081701CC6B24E4991F886
:102B0000AF0431463FF0C4FA4B4991F8AF049FED52
:102B10004B0A00213FF0E0FA474991F8AF04002248
:102B200011463FF093FA00257FE0012015F022FEC8
:102B3000074605EBC50101EB41024149114407EB92
:102B4000C70288180A22002142F01FFC04463A48B6
:102B500090F8AF0420B101280AD002283CD121E02E
:102B6000354890F8AC0410B94FF47A70444334E01F
:102B7000314890F8AD0430B1012805D0022807D0C3
:102B800003280CD107E00BE004EB8400440007E0CD
:102B90006420444304E04FF47A70444300E000BFF3
:102BA00000BF1AE0244890F8AE0430B1012805D0E7
:102BB000022807D003280CD107E00BE004EB8400C7
:102BC000440007E06420444304E04FF47A70444337
:102BD00000E000BF00BF00E000BF00BF6A1CD1B230
:102BE000154A92F8AF0400EE104AB8EEC00A3FF062
:102BF00073FA022015F0BEFD074605EBC50101EB97
:102C000041020F49114407EBC70288180A2200212C
:102C100042F0BBFB80466A1CD1B2074A92F8AF046F
:102C200042463FF013FA681CC5B2B542FFF67DAFCD
:102C30003EF006F800BF5DE7200000100000000035
:102C40007C03001003680B600A718388A1F80530CB
:102C5000CA71C3880B8100238B7270470CA00F4987
:102C60004866032081F854000020887001210B4839
:102C7000C170022101710A48006808498865084846
:102C800041680648C1650648816804480166704786
:102C9000CDA8B5C0D1A1D4F100000000AC1E002029
:102CA00028660608FF2006494870002081F8680061
:102CB00081F869000021024880F86A10704700001E
:102CC000AC1E002010B517F097FF01281BD116F09D
:102CD00003FAB0F5802F03D0B0F5801F12D108E0C1
:102CE00001200A4981F869000121084880F86A102A
:102CF00008E00120054981F869000021034880F8B7
:102D00006A1000BF00BF00F0F7F810BDAC1E002035
:102D100010B51B4890F8690001282FD1184890F889
:102D20006A00012825D116480178801C405C20B13A
:102D300001280BD002281BD111E00020104981F896
:102D40006E0091F86C0024F0FBFD11E001200C49AD
:102D500081F86E0091F86C0024F0F2FD08E002208A
:102D6000074981F86E0091F86C0024F0E9FD00BF7E
:102D700004E0034991F86B0024F0E2FD10BD00006F
:102D8000AC1E002010B53D4890F86800012874D1B1
:102D90003A484078FF284ED03848407800EB800110
:102DA00001EBC0013548801D00EB4100018933482B
:102DB000407800EB800202EBC0023048801D00EB3F
:102DC000420081802D48407800EB800101EBC0017A
:102DD0002A48801D00EB410041892848407800EBDB
:102DE000800202EBC0022548801D00EB4200C1803A
:102DF0002249487810F016FE4FF6FF711F48007800
:102E000000EB800202EBC0021C48801D00EB420078
:102E100081804FF6E0211948007800EB800202EB38
:102E2000C0021648801D00EB4200C180134908789B
:102E300010F0F8FD1DE04FF6FF711048007800EB30
:102E4000800202EBC0020D48801D00EB4200818031
:102E50004FF6E0210948007800EB800202EBC00247
:102E60000648801D00EB4200C1800449087810F03C
:102E7000D9FD024800780149487010BDAC1E002001
:102E80001CB50020134981F8680001208DF800006E
:102E9000084690F854008DF8010001208DF80200DA
:102EA0009DF801009DF8021010FB01F0C0B28DF8F2
:102EB000030008480190684618F082FD0548007834
:102EC00004494978884203D00120024981F868000A
:102ED0001CBD0000AC1E002010B50024054991F86F
:102EE0006E0015F06FFC0446FF2C01D00148047001
:102EF00010BD0000AC1E002010B5002416F09CFA96
:102F00000446002C0FDD084890F85400A0420ADB6C
:102F10000120054981F869000121034880F86A1001
:102F2000601E0149087010BDAC1E0020FEB50446AD
:102F30000D4600262068009000208DF804000A222B
:102F40000021684642F021FA86B22E80A088ADF8B2
:102F5000000000208DF802000A220021684642F09D
:102F600014FA86B2AE70E088ADF8000000208DF84B
:102F700002000A220021684642F007FA86B2EE708B
:102F8000FEBD2DE9F04104460D46164600273046A9
:102F9000FDF760F900F0FF0831462846FDF77CF99F
:102FA000A04501DBBDE8F081474603E02020E8555D
:102FB000781CC7B2A742F9DB0020285500BFF1E713
:102FC00030B591B0044600250A220021204642F087
:102FD000DCF905462A4607A109A842F0ADF909A97E
:102FE000684638F0B1FE10B9012011B030BD0020A4
:102FF000FBE700007379732F253038640000000070
:1030000010B516F091F90446032C01D0002010BD34
:103010000120FCE770B50025002430F06DFD01288B
:103020001BD1002030F092FD15F090FE0546284699
:1030300030F0E6FC18B900BF00BF002070BD284684
:1030400030F0F5FC0446012C01D0022C05D100BF64
:1030500000BF23F0F9FF0120F0E70020EEE770B594
:10306000FA2516F005F80446FA2C07D94AF214504E
:1030700020F0B2FF002024F01FFC03E0641C204677
:1030800024F01AFC70BD0000F0B52DED0A8BAFB036
:103090000546002400269FEDF80AF0EE409A9FEDC9
:1030A000F60AB0EE40BA9FEDF40AF0EE40BA9FED9A
:1030B000F20AB0EE40AA9FEDF00AF0EE40AA9FEDB2
:1030C000EE0AF0EE408A9FEDEC0AB0EE409A9FEDDA
:1030D000EA0AB0EE408A9FEDE80AB0EE40CA9FEDE2
:1030E000E60AF0EE40CA00271822E44929A8FDF7B5
:1030F00067F82022E149183121A8FDF761F8202264
:10310000DE49383119A8FDF75BF82022DB49583138
:1031100011A8FDF755F82022D849783109A8FDF704
:103120004FF82022D549983101A8FDF749F8012D23
:1031300001DB0A2D03DD2FB0BDEC0A8BF0BD0120B1
:1031400015F0ECFA0646CE4890F8330320B101287A
:1031500073D0022872D16DE1C94991F833033EF072
:10316000CBFEB0EE40AAF0EE4AAAC54890F8300374
:1031700028B99FEDC40ACAEE800AF0EE60AA9FED5E
:10318000C20ACAEE800AF0EE609A062D02D0082D1F
:103190006FD124E000241FE029A850F8240000EE9D
:1031A000100AB8EE400A20EE290ABDEEC00AB8EEB9
:1031B000C00AB0EE408A04EBC401B44800EB410001
:1031C00006EBC6014218BDEEC80A10EE101A082020
:1031D0003CF0EAFD601CC4B2AC42DDDBC3E000247D
:1031E0009CE0BDEECA0A10EE100AA0F51C50103883
:1031F00050B1A749084410B3A6490844C0B3A64932
:103200000844002868D14EE09D4890F8300348B942
:1032100021A850F8240000EE100AB8EE400AB0EEE3
:10322000408A09E021A850F824004FF47A714843FD
:1032300000EE100AB8EE408A5EE096E072E1904837
:1032400090F8300348B919A850F8240000EE100A8D
:10325000B8EE400AB0EE408A09E019A850F8240000
:103260004FF47A71484300EE100AB8EE408A43E00A
:1032700000E057E0824890F8300348B911A850F8B0
:10328000240000EE100AB8EE400AB0EE408A09E0D1
:1032900011A850F824004FF47A71484300EE100A48
:1032A000B8EE408A28E0764890F8300348B909A87B
:1032B00050F8240000EE100AB8EE400AB0EE408A42
:1032C00009E009A850F824004FF47A71484300EE51
:1032D000100AB8EE408A0FE001A850F8240000EE72
:1032E000100AB8EE400A20EE290ABDEEC00AB8EE78
:1032F000C00AB0EE408A00BF00BF04EBC4016348BF
:1033000000EB410006EBC6014218BDEEC80A10EE04
:10331000101A08203CF048FD601CC4B2AC42FFF615
:1033200060AF20E000241BE007F10A00C7B200EE06
:10333000107AB8EE400A29EE800AB0EE408A04EB1B
:10334000C401524800EB410006EBC6014218BDEE35
:10335000C80A10EE101A08203CF026FD601CC4B20A
:10336000AC42E1DB00BF00BFDDE0454991F833032B
:103370003EF0C2FDF0EE408A414890F8310330B192
:10338000012805D002280AD0032816D10EE015E046
:10339000B2EE040AC8EE800AF0EE608A0EE09FEDFD
:1033A0003A0AC8EE800AF0EE608A07E09FED350A1F
:1033B000C8EE800AF0EE608A00E000BF00BF00EEB9
:1033C000105AB8EE400AC8EE800ABDEEE00AB8EE28
:1033D000C00AB0EE40BA002419E0601C00EE100AEA
:1033E000B8EEC00A2BEE000AB0EE40CA04EBC401EE
:1033F000264800EB410006EBC6014218BDEECC0AA0
:1034000010EE101A08203CF0CFFC601CC4B2AC4295
:10341000E3DB681E00EBC0011C4800EB410006EB3B
:10342000C6014218BDEEE80A10EE101A08203CF062
:10343000BBFC78E0124991F833033EF05DFDB0EE3D
:10344000409A0F4890F8320330B1012805D0022885
:103450000AD0032829D121E028E0B2EE040AC9EEFF
:10346000000AB0EE609A21E09FED070AC9EE000A5B
:10347000B0EE609A1AE00000000000004863060801
:103480007C0F002000007A440000C842BA110020DE
:103490003093FBFF600FE6FFC0BDF0FF1FED070A92
:1034A000C9EE000AB0EE609A00E000BF00BF00EE77
:1034B000105AB8EE400AC9EE000ABDEEE00AB8EEB6
:1034C000C00AF0EE40BA002419E0601C00EE100AB9
:1034D000B8EEC00A2BEE800AF0EE40CA04EBC4013D
:1034E000124800EB410006EBC6014218BDEEEC0AA3
:1034F00010EE101A08203CF057FC601CC4B2AC421D
:10350000E3DB681E00EBC001084800EB410006EB5E
:10351000C6014218BDEEC90A10EE101A08203CF090
:1035200043FC00E000BF00BF00BF04E6BA1100206A
:1035300010B515F0C9FF012804D103200249087015
:10354000012010BD0020FCE76CAC002038B539F03C
:103550005DFE044640F6D862FF2100F0E5FD8DF8DF
:10356000000039F057FE044640F26C72FF2100F073
:10357000DBFD8DF8010039F051FE04466422FF2185
:1035800000F0D2FD8DF802009DF80000012808D15E
:103590009DF80100012804D19DF80200012800D106
:1035A00038BD0020FCE710B500BF18F07AFC00F031
:1035B00080018029F9D010BD0020014908707047B2
:1035C0006CAC002038B504464FF491734FF4AF72E1
:1035D0006E21042000943BF0EAFA38BD38B5044669
:1035E0001E234FF448724FF4E171002000943BF029
:1035F000DEFA38BD38B5044640F21D134FF4D772D9
:103600008C214FF4B67000943BF0D1FA38BD38B538
:1036100004464FF4877340F21222642196200094EE
:103620003BF0C5FA38BD38B50446B4F866000090E2
:10363000B4F85E30B4F85C20618820883BF0B7FABB
:1036400038BD10B58E2035F07BFA1FF0A5FEC4B250
:1036500044F04004204635F079FA1FF0FBF910BD24
:10366000F8B5044604EB840000EBC401184830F8B8
:10367000111004EB840000EBC402154800EB42007B
:10368000808908440C3086B204EB840000EBC4014E
:103690000F4800EB4100418804EB840000EBC402BA
:1036A0000B4800EB4200C08A0844401C87B204EB80
:1036B000840000EBC401064800EB4100C58805A06A
:1036C0002B462A4639460090304610F09FFEF8BD42
:1036D000760A00203E000000F8B5044604EB8400A2
:1036E00000EBC401184830F8111004EB840000EB23
:1036F000C402154800EB4200808908440C3086B2B1
:1037000004EB840000EBC4010F4800EB410041884A
:1037100004EB840000EBC4020B4800EB4200C08ABB
:103720000844401C87B204EB840000EBC401064847
:1037300000EB4100C58805A02B462A46394600907B
:10374000304610F063FEF8BD700600203E00000019
:10375000F8B5044604EB840000EBC401184830F8C7
:10376000111004EB840000EBC402154800EB42008A
:10377000808908440C3086B204EB840000EBC4015D
:103780000F4800EB4100418804EB840000EBC402C9
:103790000B4800EB4200C08A0844401C87B204EB8F
:1037A000840000EBC401064800EB4100C58805A079
:1037B0002B462A4639460090304610F027FEF8BDC9
:1037C0005E1600203E000000F8B5044604EB8400BD
:1037D00000EBC401184830F8111004EB840000EB32
:1037E000C402154800EB4200808908440C3086B2C0
:1037F00004EB840000EBC4010F4800EB410041885A
:1038000004EB840000EBC4020B4800EB4200C08ACA
:103810000844401C87B204EB840000EBC401064856
:1038200000EB4100C58805A02B462A46394600908A
:10383000304610F0EBFDF8BD3EB900103E00000030
:10384000F8B5044604EB840000EBC401184830F8D6
:10385000111004EB840000EBC402154800EB420099
:10386000808908440C3086B204EB840000EBC4016C
:103870000F4800EB4100418804EB840000EBC402D8
:103880000B4800EB4200C08A0844401C87B204EB9E
:10389000840000EBC401064800EB4100C58805A088
:1038A0002B462A4639460090304610F0AFFDF8BD51
:1038B0000C1500203E000000024909688143014ABE
:1038C0001160704734000020024909688143014AB1
:1038D000116070473800002070B500254FF4803427
:1038E00000E0641E24B1802021F030FC0028F8D0D4
:1038F00014B90325284670BD40F2FF5021F004FBA7
:103900002846F8E710B5032428484078052849D20E
:10391000DFE800F003061604050043E042E041E062
:1039200002202249487000F089FA3221012035F046
:103930006FFF0121002039F02FFF1C49887031E012
:10394000012035F05DFC90B101201849487008460F
:1039500090F85700401C81F85700084690F857002F
:10396000032801DB0420487000BF00BF1AE00F48A5
:10397000007800B916E041F0F9F90C4981F83600F9
:103980000846817890F83600814205D00120074929
:10399000487000BF00BF05E000200449487000F0F7
:1039A00007F800BF00BF0148407810BD7C2600101A
:1039B00070B5002441F0CEF90446102C73D00CDC15
:1039C000A4F102000E281FD2DFE800F0161F2831F4
:1039D0003A4346494C4F52C8C8B6A4F1FE001128DC
:1039E000F1D2DFE800F0484BBB4E57BBBB6173BB65
:1039F0007C858EBBBB97A00041F0A6F905465849CF
:103A000036F02CF800BF00BFA8E041F09DF9054654
:103A100053493DF00FFB00BF00BF9FE041F094F918
:103A200005464F493DF006FB00BF00BF96E041F060
:103A30008BF905464A4936F063F800BF00BF8DE0B8
:103A400041F082F9054646493DF0F4FA00BF00BF57
:103A500084E000BF00BF81E000BF00BF7EE000BF88
:103A600000BF7BE000BF00BF78E000BF00BF75E093
:103A700000BF00BF72E000BF00BF6FE000BF00BF2B
:103A80006CE041F061F9054635493DF0D3FA00BFDD
:103A900000BF63E041F058F9054631493DF0CAFAEC
:103AA00000BF00BF5AE050E041F04EF905462C49F6
:103AB00036F024F92A4A353AD2F84F10D07B3EF03E
:103AC0001FFB3DF0BDF800BF00BF47E041F03CF9EF
:103AD000054623493DF0AEFA00BF00BF3EE041F08D
:103AE00033F905461E493DF0A5FA00BF00BF35E099
:103AF00041F02AF905461A493DF09CFA00BF00BF83
:103B00002CE041F021F9054615493DF093FA00BF3C
:103B100000BF23E041F018F9054611493DF08AFA4B
:103B200000BF00BF1AE041F00FF905460C493DF017
:103B300081FA00BF00BF11E041F006F905460849CF
:103B40003DF078FA00BF00BF08E041F0FDF80546FF
:103B5000034935F09FFF00BF00BF00BF00BF70BD2D
:103B6000B12600102DE9F0410646002748480568B7
:103B700001E04748056805F045000028F9D005F048
:103B8000040030B10327042021F0BEF93846BDE817
:103B9000F08105F0010028B10127012021F0B4F9DE
:103BA0003846F4E721F0CCFAB04202D0102738466C
:103BB000EDE740F2FF5021F0A7F9002021F096FB3D
:103BC00004463448204008B93846E0E704F0004095
:103BD00008B11C20DBE704F0804008B10920D6E7DB
:103BE00004F0005008B10A20D1E704F0805008B179
:103BF0000B20CCE704F0006008B10C20C7E704F00C
:103C0000806008B10D20C2E704F0807008B10E207A
:103C1000BDE704F4000008B10F20B8E704F4800009
:103C200008B11020B3E704F4001008B11120AEE78A
:103C300004F4801008B11220A9E704F4002008B1B0
:103C40001320A4E704F4802008B114209FE704F4B3
:103C5000003008B115209AE704F4803008B116202E
:103C600095E704F4004008B1172090E704F4804081
:103C700008B118208BE704F4005008B1192086E73A
:103C800004F0080008B11A2081E738467FE70000F9
:103C9000342C014008E0FFFD70B500251048046891
:103CA00001E00F48046804F045000028F9D004F052
:103CB000040028B10325042021F026F9284670BD10
:103CC00004F0010028B10125012021F01DF928464A
:103CD000F5E740F2FF5021F017F92846EFE7000022
:103CE000342C014070B500250B48046801E00A48F7
:103CF000046804F045000028F9D004F0040028B15D
:103D00000325042021F000F9284670BD40F2FF5041
:103D100021F0FAF82846F8E7342C01402DE9F0416B
:103D200006460F464FF000082248056801E021488A
:103D3000056805F045000028F9D005F0040038B109
:103D40004FF00308042021F0DFF84046BDE8F08181
:103D500005F0010030B14FF00108012021F0D4F846
:103D60004046F3E721F0ECF9B04203D04FF01008E1
:103D70004046EBE740F2FF5021F0C6F8002021F06A
:103D8000B5FA044604F4604018B9200C3880404667
:103D9000DCE704F4005008B11320D7E704F48040B6
:103DA00008B11020D2E704F4004008B10F20CDE79D
:103DB0004046CBE7342C014070B500264FF48035E7
:103DC0000F48046802E06D1E0D48046804F04500C9
:103DD00008B9002DF7D115B104F0040028B103266D
:103DE000042021F091F8304670BD04F0400028B165
:103DF0000026402021F088F83046F5E73046F3E70A
:103E0000342C014010B51CF0F9FB044624B1032CFE
:103E100003D0042C0CD105E00BE00749012023F06E
:103E2000ADFD06E00449091D012023F0A7FD00E0D7
:103E300000BF00BF204610BD389F060800B58BB0FC
:103E40007048B0F80300102870D00CDCA0F102001C
:103E50000E286CD2DFE800F0151A1F262B303A46E8
:103E6000505C5FCFCFC3FE381128F2D2DFE800F0FC
:103E7000565BC36067C3C36C75C37C888DC3C3A323
:103E8000AB0035F0E6FD00BF00BFB7E035F0B8FE8F
:103E900000BF00BFB2E05B49887935F04DFE00BF3E
:103EA00000BFABE035F012FE00BF00BFA6E035F06A
:103EB0009DFD00BF00BFA1E0524AB2F80910B2F860
:103EC000070035F071FE00BF00BF97E04D4BD3F8FF
:103ED0000B20B3F80910B3F8070035F087FF00BFD7
:103EE00000BF8BE0474AB2F80910B2F8070035F07E
:103EF00071FE00BF00BF81E0424BD3F80B20B3F846
:103F00000910B3F8070035F095FF00BF00BF75E05A
:103F100000BF00BF72E000BF00BF6FE035F0F6FEEB
:103F200000BF00BF6AE000BF00BF67E05DE062E085
:103F30003449487935F069FE00BF00BF5EE035F0D6
:103F400091FE00BF00BF59E02E49C87B00221146F8
:103F500035F0A1FE00BF00BF50E02A49087C35F0D3
:103F600064FD00BF00BF49E0264BB3F81520B3F84D
:103F70001310B3F8110035F0FBFD00BF00BF3DE0AA
:103F800035F0F3FE00BF00BF38E01E48173001696E
:103F9000009141690191008BADF808001A2219497E
:103FA000173104A8FCF70CF904A80FC835F0C1FEBE
:103FB00000BF00BF22E01349D1F8310035F0A8FD61
:103FC00000BF00BF1AE00F4BB3F81520B3F8131071
:103FD000B3F8110035F0CFFE00BF00BF0EE00A4875
:103FE00035F046FE00BF00BF08E0102035F045FD6B
:103FF00000BF00BF02E000BF00BF00BF00BF0BB0AA
:1040000000BD00007C26001031FFD8052DE9F041ED
:1040100004460D46204600F029F807462946384652
:1040200033F056FE06463046BDE8F0812DE9F047F4
:1040300081460E461746484600F018F88046B8F10B
:10404000000F02D1FF20BDE8F087002409E0315DB8
:10405000404633F085FF05460DB10120F3E7601CB3
:1040600084B2BC42F3DB0020EDE70000014609B951
:104070000B487047012901D10020FAE7022901D13C
:104080000020F6E7032901D10020F2E7042901D13D
:104090000020EEE7052901D10248EAE70020E8E721
:1040A000182100209823002010B51E48007820B168
:1040B000012813D0022830D122E01A4800790128C3
:1040C0000BD10020174908710A2048804FF000707A
:1040D000FFF7F2FB0120134908701EE011484088E9
:1040E000052805DD0F484088401E0E49488006E03F
:1040F0004FF0007023F0E6FB02200A4908700CE044
:104100000848408828B107484088401E0549488033
:1041100002E000200349087000BF00BF17F0C8FE8E
:1041200010BD00001000001010B503460C46002121
:1041300005E0585CA04201D0002010BD491C91420E
:10414000F7D30120F9E70000F0B53C2351243C22CD
:10415000512100208BE000EB800505EBC006484DA7
:1041600025F8162000EB800505EBC006444D05EB55
:1041700046056980002600EB800505EBC007404D31
:1041800005EB4705AE804FF6FF7600EB800505EBAB
:10419000C0073B4D05EB4705EE80002600EB800590
:1041A00005EBC007364D05EB47052E814FF6FF7630
:1041B00000EB800505EBC007314D05EB47056E812F
:1041C0004FF4A07600EB800505EBC0072C4D05EB06
:1041D0004705AE81242600EB800505EBC007284D7E
:1041E00005EB4705EE81202600EB800505EBC007B7
:1041F000234D05EB47052E74252600EB800505EBC6
:10420000C0071F4D05EB47056E82002600EB8005B9
:1042100005EBC0071A4D05EB4705AE82184D0A3D68
:1042200095F8C1506D1E85420CD100EB800505EB61
:10423000C006134D05EB4605AD8928351544AAB2D5
:10424000512112E000EB800505EBC0060C4D05EB9B
:1042500046056E8A00EB800505EBC007084D05EBAF
:104260004705ED8935440D44A9B2451CE8B2044D1B
:104270000A3D95F8C05085423FF76DAFF0BD000094
:104280004A130020F0B5654D6C5C00EB800505EB32
:10429000C006634D05EB860501EB810606EBC10602
:1042A00025F8162000EB800505EBC0065C4D05EBFC
:1042B000860501EB810606EBC10605EB46056B8022
:1042C0004FF6FF7600EB800505EBC007544D05EB7C
:1042D000870501EB810707EBC10705EB4705AE80BA
:1042E000002600EB800505EBC0074D4D05EB87056B
:1042F00001EB810707EBC10705EB4705EE804FF6A1
:10430000FF7600EB800505EBC007454D05EB870503
:1043100001EB810707EBC10705EB47052E8100265E
:1043200000EB800505EBC0073D4D05EB870501EB74
:10433000810707EBC10705EB47056E811E2600EBE1
:10434000800505EBC007364D05EB870501EB8107BE
:1043500007EBC10705EB4705EE81182600EB80054A
:1043600005EBC0072E4D05EB870501EB810707EB39
:10437000C10705EB47052E74002600EB800505EB11
:10438000C007274D05EB870501EB810707EBC10748
:1043900005EB47056E8200EB800505EBC007204D5D
:1043A00005EB870501EB810707EBC10705EB470527
:1043B000AE82022600EB800505EBC007184D05EB29
:1043C000870501EB810707EBC10705EB4705EE8287
:1043D00014B1012C20D10FE04C2600EB800505EB39
:1043E000C0070F4D05EB870501EB810707EBC10700
:1043F00005EB4705AE810FE07E2600EB800505EB5F
:10440000C007074D05EB870501EB810707EBC107E7
:1044100005EB4705AE8100BF00BFF0BD9F12002035
:104420007E0F00202DE9F04705460E461746002472
:10443000B046B94600BF27E04B46424621462846D3
:10444000FFF720FF05EB850000EBC501124800EBEC
:10445000810004EB840101EBC40100EB4100818980
:1044600005EB850000EBC5020B4800EB820004EB76
:10447000840202EBC40200EB4200C08A081A4044E6
:104480001FFA80F8601CC4B20348801E90F82F0306
:10449000A042D1DCBDE8F0877E0F002030B5034696
:1044A0000A46194C248B1C44A3B2174C248B144489
:1044B000A2B203F16004A3B2A2F13004A2B2124C82
:1044C000A4F8FC32A4F8FE224FF6FF75A4F80053BE
:1044D0000025A4F802534FF6FF75A4F804530025F5
:1044E000A4F806536625A4F808531E25A4F80A5319
:1044F000182584F80C530025A4F80E53A4F8105383
:104500000225A4F8125330BD7C0F00202DE9F0479E
:104510004FF493784FF064094646642514F016F979
:1045200007462A4631460020FFF77CFF342219490E
:1045300001F50270FBF744FE1648801EB0F8181211
:10454000B0F82002081A284485B2002419E02A464F
:1045500031462046FFF766FF04EB840000EBC40100
:104560000C4800EB8100C18904EB840000EBC4021D
:10457000084800EB8200C08A081A284485B2601CF3
:10458000C4B2BC42E3DB64214FF49370FFF786FFB3
:10459000BDE8F0877E0F0020F0B56E4D6C5CC0EB7F
:1045A000C00505EB40166C4D05EB460501EB810699
:1045B00006EBC10625F81620C0EBC00505EB40163A
:1045C000654D05EB460501EB810606EBC10605EBE3
:1045D00046056B804FF6FF76C0EBC00505EB401734
:1045E0005D4D05EB470501EB810707EBC10705EBC7
:1045F0004705AE800026C0EBC00505EB4017564DC1
:1046000005EB470501EB810707EBC10705EB470504
:10461000EE804FF6FF76C0EBC00505EB40174E4D20
:1046200005EB470501EB810707EBC10705EB4705E4
:104630002E810026C0EBC00505EB4017464D05EB6B
:10464000470501EB810707EBC10705EB47056E81C5
:104650001E26C0EBC00505EB40173F4D05EB470597
:1046600001EB810707EBC10705EB4705EE81182633
:10467000C0EBC00505EB4017374D05EB470501EBD7
:10468000810707EBC10705EB47052E740026C0EB39
:10469000C00505EB4017304D05EB470501EB8107E1
:1046A00007EBC10705EB47056E82C0EBC00505EBC4
:1046B0004017294D05EB470501EB810707EBC107C3
:1046C00005EB4705AE820226C0EBC00505EB40179F
:1046D000214D05EB470501EB810707EBC10705EB12
:1046E0004705EE8224B1012C12D0022C30D11FE0FC
:1046F0003626C0EBC00505EB4017174D05EB470507
:1047000001EB810707EBC10705EB4705AE811FE011
:104710007E26C0EBC00505EB40170F4D05EB4705A6
:1047200001EB810707EBC10705EB4705AE810FE001
:104730006626C0EBC00505EB4017074D05EB4705A6
:1047400001EB810707EBC10705EB4705AE8100BF11
:1047500000BFF0BDC0040010220000102DE9F0479A
:1047600005460E4617460024B046B94600BF27E06E
:104770004B46424621462846FFF70EFFC5EBC500D3
:1047800000EB4511124800EB410004EB840101EB02
:10479000C40100EB41008189C5EBC50000EB451267
:1047A0000B4800EB420004EB840202EBC40200EB76
:1047B0004200C08A081A40441FFA80F8601CC4B244
:1047C0000348801E90F8AB04A042D1DCBDE8F0871E
:1047D0002200001030B503460A46194C248B1C44B5
:1047E000A3B2174C248B1444A2B203F16004A3B209
:1047F000A2F13004A2B2124CA4F87434A4F87624C6
:104800004FF6FF75A4F878540025A4F87A544FF6B3
:10481000FF75A4F87C540025A4F87E546625A4F8FE
:1048200080541E25A4F88254182584F88454002549
:10483000A4F88654A4F888540225A4F88A5430BDFC
:10484000200000102DE9F0474FF0E6084FF0640912
:10485000E626642513F0A6FF07462A4631460020C7
:10486000FFF77CFF4E22194901F54370FBF7A8FCC6
:104870001648801EB0F81C13B0F82403081A284408
:1048800085B2002419E02A4631462046FFF766FF2C
:10489000C4EBC40000EB44110C4800EB4100C1899B
:1048A000C4EBC40000EB4412084800EB4200C08A8D
:1048B000081A284485B2601CC4B2BC42E3DB642100
:1048C000E620FFF787FFBDE8F08700002200001018
:1048D000F0B5F0236924F0226921002077E000EB95
:1048E000800505EBC0063D4D25F8162000EB800540
:1048F00005EBC006394D05EB46056980002600EB47
:10490000800505EBC007354D05EB4705AE804FF63A
:10491000FF7600EB800505EBC007304D05EB470542
:10492000EE80002600EB800505EBC0072B4D05EB64
:1049300047052E814FF6FF7600EB800505EBC0079B
:10494000264D05EB47056E814FF4A07600EB800500
:1049500005EBC007214D05EB4705AE81402600EB76
:10496000800505EBC0071D4D05EB4705EE812026B0
:1049700000EB800505EBC007184D05EB47052E74CD
:10498000282600EB800505EBC007144D05EB470515
:104990006E82002600EB800505EBC0070F4D05EB8E
:1049A0004705AE8200EB800505EBC0060B4D05EB1D
:1049B00046056E8A00EB800505EBC007074D05EB49
:1049C0004705ED8935440D44A9B2451CE8B2034DB5
:1049D000AD1F95F85450854281DCF0BDB21E002019
:1049E00030B54FF482724A2100200DE100EB8003C4
:1049F00003EBC004884B23F8142000EB800303EB87
:104A0000C004854B03EB440359804FF6FF7400EB61
:104A1000800303EBC005804B03EB45039C8000241F
:104A200000EB800303EBC0057B4B03EB4503DC800D
:104A30004FF6FF7400EB800303EBC005764B03EBEE
:104A400045031C81002400EB800303EBC005724B7F
:104A500003EB45035C81962400EB800303EBC00568
:104A60006D4B03EB45039C811E2400EB800303EB9D
:104A7000C005694B03EB4503DC81182400EB800380
:104A800003EBC005644B03EB45031C740A2400EBE5
:104A9000800303EBC005604B03EB45035C820024FD
:104AA00000EB800303EBC0055B4B03EB45039C82EB
:104AB000022400EB800303EBC005574B03EB4503D7
:104AC000DC8200EB800303EBC004534B33F814404B
:104AD00000EB800303EBC0054F4B03EB45039B89C1
:104AE000234424339CB24C4BD23303EB40135C8001
:104AF00000EB800303EBC004474B03EB44035C88EB
:104B0000454BD23303EB40139C8000EB800303EB57
:104B1000C004414B03EB44039C883F4BD23303EB6F
:104B20004013DC8000EB800303EBC0043A4B03EB43
:104B30004403DC88384BD23303EB40131C816624DA
:104B4000354BD23303EB40135C811824324BD23304
:104B500003EB40139C7402242F4BD23303EB40131E
:104B60009C8200242C4BD23303EB4013DC820224C2
:104B7000294BD23303EB40131C83274BD23303EB77
:104B800040139C7C244BD23303EB40139B8A1C4480
:104B9000214BD23303EB40139D8A1F4BD23303EBDF
:104BA00040139B7E03FB04541B4BD23303EB401397
:104BB0001B8B022505FB03439CB2174BD23303EB3F
:104BC00040139C812D24144BD23303EB4013DC8122
:104BD0004FF4DC74104BD23303EB40131C8200EB18
:104BE000800303EBC0040C4B03EB4403DC8900EBB4
:104BF000800303EBC005084B03EB45035B8A2344AA
:104C00000B4499B2431CD8B2034B423B93F85D323C
:104C100083423FF7EBAE30BD760A0020F0B5F94D88
:104C20006C5C00EB801505EB4505F74E06EB450582
:104C300001EB810606EBC10625F8162000EB801576
:104C400005EB4505F04E06EB450501EB810606EB4D
:104C5000C10605EB46056B804FF6FF7500EB80162D
:104C600006EB4606E84F07EB460601EB810707EB2C
:104C7000C10706EB4706B580002500EB801606EB62
:104C80004606E14F07EB460601EB810707EBC1073C
:104C900006EB4706F5804FF6FF7500EB801606EB36
:104CA0004606D94F07EB460601EB810707EBC10724
:104CB00006EB47063581002500EB801606EB46061D
:104CC000D14F07EB460601EB810707EBC10706EB67
:104CD000470675811C2500EB801606EB4606CA4F79
:104CE00007EB460601EB810707EBC10706EB47061A
:104CF000F581182500EB801606EB4606C24F07EB40
:104D0000460601EB810707EBC10706EB4706357442
:104D1000002500EB801606EB4606BB4F07EB460668
:104D200001EB810707EBC10706EB4706758200EB35
:104D3000801606EB4606B44F07EB460601EB8107EB
:104D400007EBC10706EB4706B582022500EB80168C
:104D500006EB4606AC4F07EB460601EB810707EB77
:104D6000C10706EB4706F582A51E172D1CD2DFE80A
:104D700005F0EFEEED1CECEBEAE9E81B1B0CE7E6B7
:104D80002CE5C0D0F0E3E2E1E000342500EB801632
:104D900006EB46069C4F07EB460601EB810707EB47
:104DA000C10706EB4706B58144E2C42500EB801637
:104DB00006EB4606944F07EB460601EB810707EB2F
:104DC000C10706EB4706B58134E2904D95F8835153
:104DD000072D02D00B2D76D13AE08D4D95F8335149
:104DE00025B1012D12D0022D30D11FE0582500EB46
:104DF000801606EB4606844F07EB460601EB81075B
:104E000007EBC10706EB4706B5811FE04C2500EB19
:104E1000801606EB46067C4F07EB460601EB810742
:104E200007EBC10706EB4706B5810FE0C02500EB95
:104E3000801606EB4606744F07EB460601EB81072A
:104E400007EBC10706EB4706B58100BF00BF4EE088
:104E50006F4D95F8335135B1012D14D0022D22D06C
:104E6000032D41D130E0582500EB801606EB4606B5
:104E7000654F07EB460601EB810707EBC10706EB21
:104E80004706B58130E0582500EB801606EB460654
:104E90005D4F07EB460601EB810707EBC10706EB09
:104EA0004706B58120E0582500EB801606EB460644
:104EB000554F07EB460601EB810707EBC10706EBF1
:104EC0004706B58110E011E0582500EB801606EB8F
:104ED00046064D4F07EB460601EB810707EBC1077E
:104EE00006EB4706B58100BF00BF00E000BF00BF72
:104EF000A0E1852500EB801606EB4606424F07EB46
:104F0000460601EB810707EBC10706EB4706B581B3
:104F100090E1652500EB801606EB46063A4F07EB5D
:104F2000460601EB810707EBC10706EB4706B58193
:104F300080E14EE03DE02CE01BE00AE059E069E151
:104F400058E147E145E143E141E114E13EE13CE163
:104F5000ECE0652500EB801606EB46062A4F07EBD2
:104F6000460601EB810707EBC10706EB4706B58153
:104F700060E1652500EB801606EB4606224F07EB45
:104F8000460601EB810707EBC10706EB4706B58133
:104F900050E1722500EB801606EB46061A4F07EB30
:104FA000460601EB810707EBC10706EB4706B58113
:104FB00040E14C2500EB801606EB4606124F07EB4E
:104FC000460601EB810707EBC10706EB4706B581F3
:104FD00030E14C2500EB801606EB46060A4F07EB46
:104FE000460601EB810707EBC10706EB4706B581D3
:104FF00020E1064D95F88351072D0BD00B2D6FD175
:1050000043E000005B380010042700100437001054
:10501000ACA70020884D95F8335125B1012D12D051
:10502000022D30D11FE0792500EB801606EB4606F5
:10503000824F07EB460601EB810707EBC10706EB42
:105040004706B5811FE0852500EB801606EB460676
:105050007A4F07EB460601EB810707EBC10706EB2A
:105060004706B5810FE0962500EB801606EB460655
:10507000724F07EB460601EB810707EBC10706EB12
:105080004706B58100BF00BF4EE06B4D95F8335128
:1050900035B1012D14D0022D23D0032D41D130E0A4
:1050A000962500EB801606EB4606644F07EB460696
:1050B00001EB810707EBC10706EB4706B58130E03E
:1050C000962500EB801606EB46065C4F07EB46067E
:1050D00001EB810707EBC10706EB4706B58120E02E
:1050E00021E0962500EB801606EB4606534F07EBB2
:1050F000460601EB810707EBC10706EB4706B581C2
:105100000FE0962500EB801606EB46064B4F07EBAB
:10511000460601EB810707EBC10706EB4706B581A1
:1051200000BF00BF00E000BF00BF83E0444D95F822
:105130008351052D0FD1C42500EB801606EB4606E2
:105140003E4F07EB460601EB810707EBC10706EB75
:105150004706B5810EE04C2500EB801606EB4606AF
:10516000364F07EB460601EB810707EBC10706EB5D
:105170004706B5815EE0324D95F88351082D04D085
:105180002F4D95F88351092D0FD1C42500EB8016C2
:1051900006EB4606294F07EB460601EB810707EBB6
:1051A000C10706EB4706B5810EE04C2500EB8016E3
:1051B00006EB4606214F07EB460601EB810707EB9E
:1051C000C10706EB4706B58134E000BF00BF00BF52
:1051D00000BF00BF4C2500EB801606EB4606174FBC
:1051E00007EB460601EB810707EBC10706EB470615
:1051F000B5811FE0642500EB801606EB46060F4FD5
:1052000007EB460601EB810707EBC10706EB4706F4
:10521000B5810FE07C2500EB801606EB4606074FB4
:1052200007EB460601EB810707EBC10706EB4706D4
:10523000B58100BF00BFF0BDACA70020042700105F
:10524000043700102DE9F04705460E4617460024A6
:10525000B046B94600BF27E04B46424621462846A5
:10526000FFF7DCFC05EB851000EB4000124901EB79
:10527000400004EB840101EBC40100EB4100808994
:1052800005EB851101EB41010B4A02EB410104EBF7
:10529000840202EBC40201EB4201C98A401A404475
:1052A0001FFA80F8601CC4B2044890F87301A04251
:1052B000D2DCBDE8F087000004270010043700109E
:1052C000F0B503460C46184621460022324DED8AC1
:1052D0000544A8B2304DED8A0D44A9B22F4DA5F872
:1052E000F800F8356980A1F13005A9B22B4DF835E9
:1052F000A880E98000F5A875A8B2284DF835288166
:10530000698118462146F83D95F86F5145B3234D04
:1053100095F86F516D1EEAB202EB821505EB45055B
:105320001D4E06EB4505ED8A0544A8B202EB821539
:1053300005EB450506EB45056D8802EB821606EB8D
:105340004606154F07EB4606F689354402EB8216F2
:1053500006EB460607EB4606F68A3544A9B20FE08F
:105360000D4DB5F83A590544A8B20B4DB5F826696C
:10537000B5F832592E44084DB5F83A593544A9B21A
:10538000064DF835A881E98100F5C075A8B2034D36
:10539000F83528826982F0BD042700100437001018
:1053A00070B5382672251E352A4631460020FFF793
:1053B00049FF4FF4C372194901F62410FAF700FFB0
:1053C0001648B0F83219B0F83A09081A284485B2DC
:1053D000002419E02A4631462046FFF733FF04EB4C
:1053E000841000EB40000D4901EB4000C08904EB44
:1053F000841101EB4101094A02EB4101C98A401ABB
:10540000284485B2601CC4B2054890F86F01A042E0
:10541000E0DC72213820FFF753FF70BD0427001035
:1054200004370010F0B53C2351243C2251210020C8
:105430008BE000EB800505EBC006484D25F81620F3
:1054400000EB800505EBC006444D05EB4605698081
:10545000002600EB800505EBC007404D05EB470536
:10546000AE804FF6FF7600EB800505EBC0073B4DA5
:1054700005EB4705EE80002600EB800505EBC00735
:10548000364D05EB47052E814FF6FF7600EB800584
:1054900005EBC007314D05EB47056E814FF4A07653
:1054A00000EB800505EBC0072C4D05EB4705AE81F1
:1054B000242600EB800505EBC007284D05EB4705CA
:1054C000EE81202600EB800505EBC007234D05EBA0
:1054D00047052E74252600EB800505EBC0071F4D00
:1054E00005EB47056E82002600EB800505EBC00743
:1054F0001A4D05EB4705AE82184D0A3D95F8C1508F
:105500006D1E85420CD100EB800505EBC006134DE6
:1055100005EB4605AD8928351544AAB2512112E0A4
:1055200000EB800505EBC0060C4D05EB46056E8AC9
:1055300000EB800505EBC007084D05EB4705ED893D
:1055400035440D44A9B2451CE8B2044D0A3D95F816
:10555000C05085423FF76DAFF0BD0000A21F002094
:10556000F0B5A14D6C5C00EB800505EBC0069E4DCF
:10557000AD1C05EB860501EB810606EBC10625F89F
:10558000162000EB800505EBC006974DAD1C05EB22
:10559000860501EB810606EBC10605EB46056B802F
:1055A000002864D14FF6FF7600EB800505EBC007BD
:1055B0008D4DAD1C05EB870501EB810707EBC1079E
:1055C00005EB4705AE8040F2CF1600EB800505EBFA
:1055D000C007854DAD1C05EB870501EB810707EB87
:1055E000C10705EB4705EE804FF6FF7600EB80051F
:1055F00005EBC0077C4DAD1C05EB870501EB810772
:1056000007EBC10705EB47052E8140F2CF1600EBF3
:10561000800505EBC007744DAD1C05EB870501EB5C
:10562000810707EBC10705EB47056E811E2600EBDE
:10563000800505EBC0076C4DAD1C05EB870501EB44
:10564000810707EBC10705EB4705EE81182600EB44
:10565000800505EBC007644DAD1C05EB870501EB2C
:10566000810707EBC10705EB47052E7463E04FF692
:10567000FF7600EB800505EBC0075B4DAD1C05EB2D
:10568000870501EB810707EBC10705EB4705AE80F6
:105690004CF2186600EB800505EBC007524DAD1CBF
:1056A00005EB870501EB810707EBC10705EB470514
:1056B000EE804FF6FF7600EB800505EBC0074A4D04
:1056C000AD1C05EB870501EB810707EBC10705EB77
:1056D00047052E814CF2186600EB800505EBC007EC
:1056E000414DAD1C05EB870501EB810707EBC107B9
:1056F00005EB47056E813C2600EB800505EBC007F6
:10570000394DAD1C05EB870501EB810707EBC107A0
:1057100005EB4705EE81302600EB800505EBC00761
:10572000314DAD1C05EB870501EB810707EBC10788
:1057300005EB47052E74002600EB800505EBC0073E
:10574000294DAD1C05EB870501EB810707EBC10770
:1057500005EB47056E8200EB800505EBC007224D87
:10576000AD1C05EB870501EB810707EBC10705EBD6
:105770004705AE82022600EB800505EBC0071A4DF7
:10578000AD1C05EB870501EB810707EBC10705EBB6
:105790004705EE8214B1012C24D111E04FF4C876F4
:1057A00000EB800505EBC0070F4DAD1C05EB870531
:1057B00001EB810707EBC10705EB4705AE8111E05F
:1057C0004FF4C97600EB800505EBC007064DAD1C14
:1057D00005EB870501EB810707EBC10705EB4705E3
:1057E000AE8100BF00BFF0BD903800102DE9F04140
:1057F00000274FF0020800250226002434E002268C
:1058000033462A4621460020FFF7AAFE04EB840017
:1058100000EBC401184800EB4100C18904EB84008F
:1058200000EBC402144800EB4200C08A081A30445E
:1058300086B233462A4621460120FFF791FE04EB4B
:10584000840000EBC4010C4800EB4100818904EBAB
:10585000840000EBC402084800EB4200C08A081A2A
:10586000284485B2601CC4B20348801E90F87400BE
:10587000A042C4DCBDE8F08192380010F0B56F4D55
:105880006C5C00EB8016A5F2F16505EB460501EBBB
:10589000810606EBC10625F8162000EB8016684D40
:1058A00005EB460501EB810606EBC10605EB460557
:1058B0006B804FF6FF7600EB8017614D05EB4705D7
:1058C00001EB810707EBC10705EB4705AE8000261A
:1058D00000EB80175A4D05EB470501EB810707EBFD
:1058E000C10705EB4705EE804FF6FF7600EB80170A
:1058F000534D05EB470501EB810707EBC10705EBAE
:1059000047052E81002600EB80174D4D05EB47051E
:1059100001EB810707EBC10705EB47056E811C26EC
:1059200000EB8017464D05EB470501EB810707EBC0
:10593000C10705EB4705EE81182600EB8017404DA7
:1059400005EB470501EB810707EBC10705EB4705B1
:105950002E74002600EB8017394D05EB470501EB4F
:10596000810707EBC10705EB47056E8200EB801747
:10597000334D05EB470501EB810707EBC10705EB4D
:105980004705AE82022600EB80172D4D05EB47053B
:1059900001EB810707EBC10705EB4705EE82052CFC
:1059A0004AD2DFE804F003111F2D3B00362600EB3E
:1059B0008017234D05EB470501EB810707EBC10776
:1059C00005EB4705AE8137E07E2600EB80171C4DC6
:1059D00005EB470501EB810707EBC10705EB470521
:1059E000AE8129E07E2600EB8017154D05EB4705BB
:1059F00001EB810707EBC10705EB4705AE811BE013
:105A0000662600EB80170E4D05EB470501EB81077D
:105A100007EBC10705EB4705AE810DE0662600EBFD
:105A20008017074D05EB470501EB810707EBC10721
:105A300005EB4705AE8100BF00BFF0BD99400010E7
:105A4000A83900102DE9F04705460E4617460024F8
:105A5000B046B94600BF23E04B46424621462846A1
:105A6000FFF70CFF05EB8511114800EB410004EB3B
:105A7000840101EBC40100EB4100818905EB851233
:105A80000B4800EB420004EB840202EBC40200EB83
:105A90004200C08A081A40441FFA80F8601CC4B251
:105AA000044890F8B808A042D6DCBDE8F0870000B2
:105AB000A83900109038001070B59D2664251E3559
:105AC0002A4631460020FFF7BDFF82221549A1F189
:105AD0008200FAF775FB1448B0F8A410B0F8AC00D7
